:020000040000FA
:10000000A05700206D020000710200007302000082
:10001000750200007502000075020000000000007B
:100020000000000000000000000000007502000059
:10003000750200000000000075020000750200005B
:1000400075020000750200007502000075020000D4
:1000500075020000F13F000075020000750200000B
:1000600075020000750200007502000075020000B4
:1000700075020000750200007502000075020000A4
:10008000750200007502000075020000F5300000E6
:100090007502000075020000750200007502000084
:1000A0007502000075020000750200007502000074
:1000B0007502000075020000750200007502000064
:1000C0007502000075020000750200007502000054
:1000D0007502000075020000750200004731000043
:1000E0007502000075020000750200007502000034
:1000F0007502000075020000750200007502000024
:100100007502000075020000750200007502000013
:100110007502000075020000750200007502000003
:1001200075020000750200007502000075020000F3
:1001300075020000750200007502000075020000E3
:1001400000000000000000000000000000000000AF
:1001500075020000750200007502000075020000C3
:10016000000000000000000000000000000000008F
:10017000000000000000000000000000000000007F
:10018000000000000000000000000000000000006F
:10019000000000000000000000000000000000005F
:1001A000000000000000000000000000000000004F
:1001B0007502000075020000750200007502000063
:1001C0007502000075020000750200007502000053
:1001D0007502000075020000750200007502000043
:1001E0007502000075020000750200007502000033
:1001F0007502000075020000750200007502000023
:100200007502000075020000750200000000000089
:100210007502000075020000750200007502000002
:1002200075020000750200007502000075020000F2
:1002300075020000750200007502000075020000E2
:1002400075020000750200007502000075020000D2
:1002500075020000750200007502000075020000C2
:1002600075020000750200007502000000F004B87D
:10027000FEE7FEE7FEE70000DFF80CD007F0BCF871
:100280000048004701410000A05700200138FDD17F
:1002900070470000EFF3108072B67047EFF31080E4
:1002A0007047EFF3108062B6704730BF704780F33D
:1002B00011887047EFF31180704700000246F84B39
:1002C000D01A9A4247D02EDCF64BA2EB03009A429A
:1002D00049D016DCF44BA2EB03009A423AD009DC79
:1002E000B2F1402F2DD0F148104468B3B0F5805FD3
:1002F0004FD12CE0B0F5E83F2FD0B0F5F03F48D11A
:100300002EE0B0F5483F1DD006DCB0F5805F2DD063
:10031000B0F5B83F3DD12CE0B0F54C3F15D0B0F56D
:10032000503F36D114E0C0F30B037BBB00130C2805
:100330002FD2DFE800F02E1316191C1F21232527CA
:10034000292C00BF102127E000BF112124E000BFAD
:10035000122121E000BF13211EE000BF14211BE089
:1003600000BF2E2118E000BF2F2115E000BF302173
:1003700012E000BF46210FE047210DE048210BE0CD
:100380007F2109E0802107E0842105E001E08C2144
:1003900002E04FF0FF30704700BF0846FBE702F075
:1003A00001031BB1D0F800340B4302E0D0F8003455
:1003B0008B43C0F8003402F002031BB1D0F82034A4
:1003C0000B4302E0D0F820348B43C0F82034704750
:1003D00030B5024601208840C1B2D2F80034D2F8CC
:1003E000204403EA010008B1012000E0002004EAF3
:1003F00001050DB1022500E00025284330BD02F0C3
:1004000001031BB1D0F808340B4302E0D0F80834E4
:100410008B43C0F8083402F002031BB1D0F8043457
:100420000B4302E0D0F804348B43C0F8043402F0EC
:1004300004031BB1D0F80C340B4302E0D0F80C34A9
:100440008B43C0F80C34704770B5024601208840D9
:10045000C1B2D2F80834D2F80444D2F80C5403EAFA
:10046000010008B1012000E0002004EA01060EB1FD
:10047000022600E00026304305EA01060EB10426FC
:1004800000E00026304370BD10B502F001041CB13D
:10049000D0F800450C4302E0D0F800458C43C0F88A
:1004A000004502F002041CB1D0F804450C4302E000
:1004B000D0F804458C43C0F8044502F004041CB194
:1004C000D0F808450C4302E0D0F808458C43C0F84A
:1004D000084502F008041CB1D0F818450C4302E0AE
:1004E000D0F818458C43C0F8184503F001041CB13E
:1004F000D0F80C450C4302E0D0F80C458C43C0F812
:100500000C4503F002041CB1D0F810450C4302E086
:10051000D0F810458C43C0F8104503F004041CB11A
:10052000D0F814450C4302E0D0F814458C43C0F8D1
:10053000144503F008041CB1D0F81C450C4302E03C
:10054000D0F81C458C43C0F81C451BB9D0F8284591
:100550000C4302E0D0F828458C43C0F8284510BD74
:100560002DE9F0414FF0010C0CFA01FC0CF0FF01F9
:10057000D0F80045D0F80455D0F80865D0F81875C3
:1005800004EA010CBCF1000F02D04FF0010C01E0B5
:100590004FF0000C05EA0108B8F1000F02D04FF04F
:1005A000020801E04FF000084CEA080C06EA0108D6
:1005B000B8F1000F02D04FF0040801E04FF000083E
:1005C0004CEA080C07EA0108B8F1000F02D04FF01E
:1005D000080801E04FF000084CEA080CC2F800C01F
:1005E000D0F80C45D0F81055D0F81465D0F81C752B
:1005F00004EA010CBCF1000F02D04FF0010C01E045
:100600004FF0000C05EA0108B8F1000F02D04FF0DE
:10061000020801E04FF000084CEA080C06EA010865
:10062000B8F1000F02D04FF0040801E04FF00008CD
:100630004CEA080C07EA0108B8F1000F02D04FF0AD
:10064000080801E04FF000084CEA080CC3F800C0AD
:10065000BDE8F081D0F810240A43C0F81024704798
:10066000D0F810248A43C0F810247047024611B114
:10067000D2F818047047D2F81404FBE7C0F81C1431
:10068000704770B504460D462046FFF717FE044636
:100690002946204600F0AAFF204601F003F870BD6D
:1006A00000B00540006002400070004000B0FFBF95
:1006B00010B504462046FFF701FE0446204601F02F
:1006C0002DF8204600F0ACFF10BD0246002000EBE4
:1006D000810010587047002303EB8103C25070471C
:1006E00030B504460D46002229462046FFF757FE46
:1006F0000023012229462046FFF7C6FE30BD30B553
:1007000004460D46022229462046FFF748FE0823EC
:10071000042229462046FFF7B7FE30BD30B5044617
:100720000D46002229462046FFF739FE002301220C
:1007300029462046FFF7A8FE30BD30B504460D46D9
:10074000022229462046FFF72AFE082304222946D2
:100750002046FFF799FE30BD30B504460D46022213
:1007600029462046FFF71BFE08230422294620467F
:10077000FFF78AFE30BD30B504460D4602222946F9
:100780002046FFF70CFE0823042229462046FFF7E7
:100790007BFE30BD30B504460D4602222946204678
:1007A000FFF7FDFD0823012229462046FFF76CFED6
:1007B00030BD30B504460D46002229462046FFF7DD
:1007C000EEFD0823012229462046FFF75DFE30BDDD
:1007D00030B504460D460823012229462046FFF77E
:1007E00053FE012229462046FFF7D9FD30BD30B522
:1007F00004460D460923012229462046FFF744FE00
:10080000012229462046FFF7CAFD30BD30B5044617
:100810000D46022229462046FFF7C1FD0B23012287
:1008200029462046FFF730FE30BD30B504460D4660
:10083000022229462046FFF7B2FD8148006881491F
:1008400008408149884206D10823012229462046D2
:10085000FFF71AFE05E00923012229462046FFF78B
:1008600013FE30BD30B504460D460222294620460F
:10087000FFF795FD0823012229462046FFF704FED5
:1008800030BD30B504460D46022229462046FFF70A
:1008900086FD0823042229462046FFF7F5FD30BDDA
:1008A00030B504460D46002229462046FFF777FD65
:1008B0000023012229462046FFF7E6FD30BD30B572
:1008C00004460D46022229462046FFF768FD08230C
:1008D000012229462046FFF7D7FD30BD30B504463A
:1008E0000D46022229462046FFF759FD0823012222
:1008F00029462046FFF7C8FD30BD30B504460D46F9
:10090000022229462046FFF74AFD0A2301222946F2
:100910002046FFF7B9FD30BD30B504460D46022232
:1009200029462046FFF73BFD0823012229462046A1
:10093000FFF7AAFD30BD30B504460D460222294618
:100940002046FFF72CFD0823012229462046FFF709
:100950009BFD30BD30B504460D4602222946204697
:10096000FFF71DFD0823012229462046FFF78CFDD5
:1009700030BD30B504460D46002229462046FFF71B
:100980000EFD0023012229462046FFF77DFD30BDE4
:1009900030B504460D46022229462046FFF7FFFCEB
:1009A0000823012229462046FFF76EFD30BD10B511
:1009B0000146C1F30740224BDB6E012484402340F3
:1009C00033B1012303EB4003204C54F8230003E030
:1009D00043001E4C54F82300C1F30722D0F82C35F5
:1009E0000F249440A34301F00F0494402343C0F824
:1009F0002C3510BDD0F834250A43C0F83425704793
:100A0000D0F834258A43C0F834257047D0F8302513
:100A10000A43C0F830257047D0F830258A43C0F823
:100A2000302570470A49C0F82015FF21C0F8241569
:100A300070470749C0F820150021C0F824157047F9
:100A400000E00F400000FF7000000510048200006D
:100A50004B434F4C024600210AE0FC4850F831005D
:100A6000904204D1F94800EBC10040687047491C2E
:100A70002329F2D31046F9E7F5488068000C0002FC
:100A800000F580707047F24880680004400900F566
:100A9000006070470146EE488069084008B10120B7
:100AA00070470020FCE7014601F07040B0F1704F44
:100AB00015D1C1F30720E74A104400F0704040F020
:100AC0000070C1F30722E34B1A44C2F3130240EA59
:100AD0004210CAB240EA82000068C0B27047DE48E5
:100AE000814208D1DA48406A00F0030008B10120D1
:100AF000F4E70020F2E70F2000EA1170D74A52F81D
:100B0000200000688AB2C1F304439A40104008B143
:100B10000120E3E70020E1E710B504462046FFF797
:100B200099FF0446C4F30720CD49084400F0704003
:100B300040F00070C4F30721C94A1144C1F3130106
:100B400040EA4110E1B240EA81000068C0B210BD45
:100B500010B504462046FFF77DFF04460120C4F38C
:100B60000721C04A114401F0704141F00071C4F303
:100B70000722BC4B1A44C2F3130241EA4211E2B20B
:100B800041EA8201086010BD10B504462046FFF717
:100B900061FF04460020C4F30721B24A114401F06A
:100BA000704141F00071C4F30722AE4B1A44C2F306
:100BB000130241EA4211E2B241EA8201086010BD2B
:100BC00018B500F07041B1F1704F33D10121C0F37D
:100BD0000722A54B1A4402F0704242F00072C0F3A3
:100BE0000723A14C2344C3F3130342EA4312C3B2C5
:100BF00042EA830211600021009102E00099491C41
:100C0000009100991029F9D30021C0F30722964BD7
:100C10001A4402F0704242F00072C0F30723924C73
:100C20002344C3F3130342EA4312C3B242EA8302EA
:100C300011602EE00F2101EA10718C4A52F8211048
:100C4000096882B2C0F304439A4011430F2202EABA
:100C50001072864B53F8222011600021009102E0AF
:100C60000099491C009100991029F9D30F2101EA3C
:100C700010717E4A52F82110096882B2C0F3044311
:100C80009A4091430F2202EA1072784B53F82220C7
:100C9000116018BD10B500F07041B1F1704F15D161
:100CA0000121C0F30722724B1A4402F0704242F055
:100CB0000072C0F307236E4C2344C3F3130342EACC
:100CC0004312C3B242EA8302116012E00F2101EA2B
:100CD0001071684A52F82110096882B2C0F30443C7
:100CE0009A4011430F2202EA1072624B53F82220FD
:100CF000116010BD10B500F07041B1F1704F15D109
:100D00000021C0F307225A4B1A4402F0704242F00D
:100D10000072C0F30723564C2344C3F3130342EA83
:100D20004312C3B242EA8302116012E00F2101EACA
:100D30001071504A52F82110096882B2C0F304437E
:100D40009A4091430F2202EA10724A4B53F8222034
:100D5000116010BD10B500F07041B1F1704F15D1A8
:100D60000121C0F30722444B1A4402F0704242F0C2
:100D70000072C0F30723404C2344C3F3130342EA39
:100D80004312C3B242EA8302116012E00F2101EA6A
:100D900010713A4A52F82110096882B2C0F3044334
:100DA0009A4011430F2202EA1072344B53F822206A
:100DB000116010BD10B500F07041B1F1704F15D148
:100DC0000021C0F307222C4B1A4402F0704242F07B
:100DD0000072C0F30723284C2344C3F3130342EAF1
:100DE0004312C3B242EA8302116012E00F2101EA0A
:100DF0001071224A52F82110096882B2C0F30443EC
:100E00009A4091430F2202EA10721C4B53F82220A1
:100E1000116010BD10B500F07041B1F1704F31D1CB
:100E20000121C0F30722164B1A4402F0704242F02F
:100E30000072C0F30723124C2344C3F3130342EAA6
:100E40004312C3B242EA830211602EE028830000FD
:100E500000E00F4000E30F40010010207C82000002
:100E600000EA0F4000E90F4000E50F408C820000CF
:100E700000E60F409882000000E70F40A4820000C7
:100E800000E80F400F2101EA1071FC4A52F82110CE
:100E9000096882B2C0F304439A4011430F2202EA68
:100EA0001072F64B53F82220116010BD10B500F0FF
:100EB0007041B1F1704F15D10021C0F30722F04B02
:100EC0001A4402F0704242F00072C0F30723EC4C67
:100ED0002344C3F3130342EA4312C3B242EA830238
:100EE000116012E00F2101EA1071E44A52F821105A
:100EF000096882B2C0F304439A4091430F2202EA88
:100F00001072DE4B53F82220116010BD30B1DD4964
:100F1000096E41F00061DB4A116605E0D949096EAE
:100F200021F00061D74A1166704710B5044621468A
:100F30002C2000F05BFB2C2000F0B4FB10BD10B5A2
:100F40002C2000F0EBFB2C2000F06AFB10BDCD49FB
:100F5000496D0143CB4A51657047CA49496D814388
:100F6000C84A51657047C74988657047014611B145
:100F7000C448806D7047C348006DFBE7C1494863B2
:100F80007047C048406B7047BF4908607047BF4812
:100F9000BF49086000BFFEE710B5FFF786F910BD36
:100FA00010B5BB48001D006840F00400B849091D99
:100FB0000860FFF77AF9B648001D006820F00400C9
:100FC000B349091D086010BDAE48C06D7047AD49FA
:100FD000C96D8143AB4AD165704740EA8102A94B94
:100FE0001A637047A749C86770470146A948084077
:100FF00050B101F00040A44A103A1060A548813871
:101000000840A04AC2F850019F481038016001F41E
:10101000007088B100BF9C480C38006800F4407034
:101020000028F8D098480C38006800F44070B0F5FB
:10103000807F01D0002070470120FCE72DE9F041BE
:1010400006469048006800F0E04030B18D480068E6
:1010500091490840B0F1805F04D106F0004008B12A
:10106000BDE8F0818748056E046F45F4006525F4FE
:10107000800544F400640566046705F0020010B1C1
:1010800006F0020028B105F0010010B306F00100DF
:10109000F8B966F0030005407A48056604F00040A0
:1010A00038B104F0700030280AD004F070007028C5
:1010B00006D004F0004040B905F03000302804D1DB
:1010C0004FF48050FFF7E2F803E04FF40020FFF701
:1010D000DDF825F4FE6506F4FE6005436F48044024
:1010E0006E49A13106EA0100044306F0080044EA13
:1010F000C0046448056604671020FFF7C7F825F4AC
:10110000405506F44050054324F4005406F40050C2
:10111000044340205B49886504F0004018B108464C
:101120000467056602E05748056604675C480540A9
:10113000C14306EA0100054324F0FC5406F0FC50CC
:10114000044306F0804040B145F4800524F4800457
:10115000544906EA0100044301E024F0804406F407
:10116000006080B94FF4004706E04648006D00F08B
:10117000400000B102E07F1E002FF6D100BF25F431
:10118000006524F400643F48056604671020FFF7FB
:101190007DF800BF64E770B53A48046E026F02F054
:1011A000004010B102F0700001E004F0300030287F
:1011B00061D005DC48B110280DD020285CD133E087
:1011C00060285AD0702857D187E03748C4F3841676
:1011D00050F8261086E02B48006800F0E04030B15F
:1011E000284800682C4E3040B0F1805F01D12F4973
:1011F00019E024480068284E30402D4EB04204D1FA
:101200002048006880B202280AD01E480068224E9A
:101210003040284EB04205D11A48006880B208B963
:10122000254900E025495DE01648006800F0E040EF
:1012300030B114480068184E3040B0F1805F01D1E1
:101240001F4943E00F480068134E3040184EB0422B
:1012500004D10C48006880B202280AD0094800680E
:101260000D4E3040134EB0422FD10648006880B278
:1012700050BB14492AE02AE032E02BE0B0820000A3
:1012800000E80F4000E00F4060E10F400400FA0565
:101290000CED00E0000100800000FF708FFFFF7F79
:1012A000FCFF3FF800004040BC820000C0E1E400C9
:1012B0000000011000000310001BB7000024F40020
:1012C00070383900C0C62D00FFE7BB490AE047F27D
:1012D000305107E04FF4800104E04FF4004101E099
:1012E000002070BD00BF02F0004010B102F40060A9
:1012F00028B102F00040C8BB04F40060B0BBAF48A6
:101300000068AF4E3040AF4EB04218D1AE480368CF
:10131000AA48D0F8645105F01F00401CC5F304260C
:10132000761C10FB06F04000B1FBF0F1C3F309009E
:101330004843C3F389264E4300EB962128E09F489B
:10134000436E006800F0E04030B19C4800689C4E5D
:101350003040B0F1805F0AD1C3F34810801C48438D
:1013600003F01F06B61CB0FBF6F109E012E0C3F370
:101370004810484303F01F06761C7600B0FBF6F1D8
:1013800003F4804000B1490803F4004000B189082B
:1013900044F4800404F4800018B302F00040D8B193
:1013A00002F0804090B102F0004010B102F4006001
:1013B00028B102F0004048B904F4006030B94E0092
:1013C000C2F38650401CB6FBF0F10AE0C2F3C550F0
:1013D000401CB1FBF0F104E0C4F3C350401CB1FB6E
:1013E000F0F108467DE778491C3908607047734979
:1013F000096E21F4F0110143704A116670476F487D
:10140000006E00F4801008B9002070476B48006E31
:1014100000F4F010F9E76C496039096821F4706153
:101420000143664AC2F8001167495039096821F43E
:1014300070610143C2F8101170476348603800685A
:1014400000F47060704730B15C49096E41F00801EA
:101450005A4A116605E05949096E21F00801574AB8
:101460001166704730B15549096E41F00401534A85
:10147000116605E05149096E21F004014F4A1166D9
:10148000704730B14D49096E41F480614B4A116695
:1014900005E04A49096E21F48061484A11667047A7
:1014A000012049491039086000204449C1F8500121
:1014B00070474249C96E82B21143404AD1667047B3
:1014C0003E49C96E82B291433C4AD16670473B485F
:1014D000006F20F480403949086770473748006F33
:1014E00040F4804035490867704770B502460B46A6
:1014F00023B90020344E1036306070BDBAB92F4881
:10150000456E006EC0F38410304E56F82020C5F3AF
:101510004810504305F01F06761CB0FBF6F205F4A8
:10152000804000B1520805F4004000B1920801204B
:10153000C0EB53100244B2FBF3F120480068204E88
:101540003040234EB0420BD11C48006880B240F2BC
:101550000116B04204D1FF2902D9FF210F240BE06C
:10156000B1F5806F03D340F2FF310F2404E001FB9B
:1015700013200001B0FBF3F44FF0004040EA0150AB
:1015800040EA044040F4004040EA011020430E4E7F
:10159000103630600120C0EB5310121A04EB011119
:1015A000B2FBF1F00301180900FB11200001B0FBB0
:1015B000F1F003441846A0E700093D0000E00F40A9
:1015C0000000FF700000051060E10F40BC820000C9
:1015D0000000041000BFFEE710B5FEF762FEC0B2C7
:1015E00010BD10B5FEF756FEC0B210BD30B50246B4
:1015F000994C2468994DAC420ED0974C236800203A
:1016000005E053F82040954D45F82040401C9B28AC
:10161000F7D3924C904D2C60904C44F8221030BD82
:101620008F498E4A42F8201070478E4951F8201099
:101630008D4A1143884A121D11607047864A121D57
:10164000126802F4E061002006E0864A52F8202089
:101650008A4200D102E0401C0828F6D300BF704740
:1016600010B50A468308814C54F823301968830763
:10167000DC0EFF23A34099438307DB0E02FA03F33A
:1016800019438308794C54F82330196010BD014682
:101690008808764A52F8200000688A07D20ED040A7
:1016A000C0B27047042808D16B491C31096841F465
:1016B0008031694A1C3211602FE0052808D1664943
:1016C0001C31096841F40031634A1C32116024E086
:1016D000062808D160491C31096841F480215E4A1E
:1016E0001C32116019E00F2808D14FF0E021096980
:1016F00041F002014FF0E02211610EE010280CD3FE
:10170000A0F1100101F01F0201219140A0F110028F
:101710005209574B53F8222011607047042808D112
:101720004D491C31096821F480314B4A1C3211604B
:101730002FE0052808D148491C31096821F40031FF
:10174000454A1C32116024E0062808D142491C3168
:10175000096821F48021404A1C32116019E00F28E9
:1017600008D14FF0E021096921F002014FF0E02299
:1017700011610EE010280CD3A0F1100101F01F023E
:1017800001219140A0F1100252093A4B53F8222056
:1017900011607047022808D12F49091F096841F0DC
:1017A00000412D4A121F116024E00E2808D12A4959
:1017B000091F096841F08051274A121F116019E082
:1017C0000F2808D12449091F096841F08061224A85
:1017D000121F11600EE010280CD3A0F1100101F0CF
:1017E0001F0201219140A0F110025209224B53F82F
:1017F0002220116070470E2808D11749091F096877
:1018000041F00061144A121F116019E00F2808D13D
:101810001149091F096841F000710F4A121F116038
:101820000EE010280CD3A0F1100101F01F020121DD
:101830009140A0F110025209104B53F82220116080
:10184000704710B504462046FEF731FD10BD10B5B7
:10185000FEF730FD10BD000008ED00E000040020A0
:10186000D5150000408400000000FA0560840000E7
:10187000F4840000088500001C850000308500000D
:10188000024600210AE0AD4850F83100904204D1F0
:10189000AA4800EBC10040687047491C0C29F2D3EC
:1018A0004FF0FF30F8E7C26840F201130B401A43D3
:1018B000C2607047C26840F201130B409A43C26095
:1018C0007047C26840F201139A43C2600A0E026078
:1018D000CAB242F400724260C1F3072242F40072BD
:1018E0008260704744F24003194012B1C3680B4351
:1018F00001E0C3688B43C360704742F22003194084
:1019000012B1C3680B4301E0C3688B43C3607047E7
:1019100010B540F60C431940C3688B4302EA01043A
:101920002343C36010BD40F20223194012B1C368C3
:101930000B4301E0C3688B43C3607047CBB24BB12C
:1019400022B1436843F04003436003E0436823F05F
:101950004003436001F47F434BB122B1836843F0FD
:101960004003836003E0836823F040038360704793
:10197000C16841F01001C1607047C16821F01001D9
:10198000C1607047CBB203B1826301F47F4303B1FE
:10199000C26370470246FF2901D1906B7047D06B3C
:1019A000FCE7CBB203B1026401F47F4303B14264AC
:1019B00070470246FF2901D1106C7047506CFCE75C
:1019C000CBB203B1826201F47F4303B1C2627047BC
:1019D0000246FF2901D1906A7047D06AFCE7C362D2
:1019E0008262704730B5034600BFDA6A9C6ADD6ADE
:1019F000AA42FAD1002001462043114330BD0246DD
:101A0000FF2901D1906C7047D06CFCE730B50346DC
:101A100000BFDA6C9C6CDD6CAA42FAD10020014652
:101A20002043114330BDCBB203B1026301F47F43C5
:101A300003B1426370470246FF2901D1106B704722
:101A4000506BFCE743630263704730B5034600BF49
:101A50005A6B1C6B5D6BAA42FAD1002001462043F1
:101A6000114330BD70B504460D4616462046FFF7BB
:101A700007FF0446E8B230B131462046FFF7B6FD15
:101A80002046FFF70FFE05F47F4030B13146601C61
:101A9000FFF7ACFD601CFFF705FE70BD70B5054695
:101AA0000C462846FFF7ECFE0546E0B228B1284672
:101AB000FFF734FE2846FFF7B3FD04F47F4028B15A
:101AC000681CFFF72BFE681CFFF7AAFD70BD82693A
:101AD0000A438261704782698A4382617047024685
:101AE00009B1106A7047D069FCE741627047016133
:101AF000704710B504460020E060A061401E60629F
:101B0000010C2046FFF7CAFF002020606060A06043
:101B1000E0612062401EA062000CE0624FF0FF30E6
:101B20002063000C60630020A063E06320646064B5
:101B3000401EA064000CE06410BD0000448500005D
:101B4000024600210AE0594850F83100904204D181
:101B5000564800EBC10040687047491C0429F2D385
:101B60004FF0FF30F8E72DE9F04F0E46DDE909C8E8
:101B7000022B02D14FF0080A01E04FF0000A544650
:101B800013B94FF0000A01E04FF0040A4AEA0404D6
:101B90004460B6FBFCF7002100BF891CB7FBF1FADB
:101BA000AAF10105FF2DF8D801614FEA827A4FEAC8
:101BB0001A6902F0300249EA052A4AEA020AA8F143
:101BC000010B4AEA0B040460BDE8F08F416841F064
:101BD000020141607047416821F002014160704795
:101BE00070B504460D462046FFF7AAFF0646294673
:101BF0003046FFF7FBFC3046FFF754FD70BD70B573
:101C000004462046FFF79CFF05462846FFF786FD61
:101C10002846FFF705FD70BD42690A4342617047DF
:101C200042698A4342617047024609B1D0697047F0
:101C30009069FCE70162704700BFC26802F00202CF
:101C4000002AFAD0816070470246D06800F0020096
:101C500010B19160012070470020FCE700BFC2680E
:101C600002F00402002AFAD082680A607047024635
:101C7000D06800F0040018B1906808600120704737
:101C80000020FCE7426A0A4342627047426A8A4384
:101C9000426270470146C868C0F300107047C0F840
:101CA000C81F70470146D1F8C80F7047A4850000CF
:101CB0000146F84A0A4432B1B2F5805F05D0B2F568
:101CC000005F06D103E0372006E0382004E0392029
:101CD00002E04FF0FF3000BF00BF7047F8B5044688
:101CE000200B0003FFF7E4FF0746002616B1384635
:101CF000FFF714FD20680020009002E00098401CCF
:101D0000009000980528F9D3256816B13846FFF7EA
:101D1000C9FC2846F8BD016070472DE9F041054631
:101D20000F46164600240FE02046641C15F800807C
:101D3000B44204D22046641C285C48EA0028384695
:101D40003F1D4146FFF7E7FFB442EDD3BDE8F08108
:101D50002DE9F04106468846174600240FE040462C
:101D600008F10408FFF7BAFF05462046641C355405
:101D7000BC4204D2C5F307222046641C3254BC4244
:101D8000EDD3BDE8F08170B5044601212046FFF790
:101D9000C2FF00BF04F12000FFF7A0FF00F40040E5
:101DA0000028F7D1B02104F12400FFF7B4FF00218F
:101DB00004F13400FFF7AFFF002104F13800FFF712
:101DC000AAFF01250EE000BF04F12000FFF786FF07
:101DD00000F400400028F7D1294604F12000FFF765
:101DE0009AFF6D1C202DEED90C2104F12400FFF781
:101DF00092FF01250EE000BF04F12000FFF76EFF07
:101E000000F400400028F7D1294604F12000FFF734
:101E100082FF6D1C202DEED9201DFFF75FFF70BDE6
:101E200070B504462046FFF759FF20F0010529460A
:101E30002046FFF770FF70BD70B504462046FFF7DF
:101E40004DFF40F0010529462046FFF764FF70BDB5
:101E500070B506460C4606F10C00FFF73FFF05463D
:101E6000C5F30230401C6060C5F30320401C2060B5
:101E7000C5F38110401CA06006F11800FFF72EFF8B
:101E800000F00F01284661F39F10401CE06070BD18
:101E90002DE9F05F044688469146B8FBF9F5B8FB9A
:101EA000F5F0484500D96D1C34E013262FE0B5FB52
:101EB000F6F707FB06F0A84228D1301F764931F823
:101EC00010B02046FFF70AFF1FFA80FA4AF04101DE
:101ED0002046FFF720FF781E00F03F0040EA0B0B82
:101EE000594604F10C00FFF716FF781EC0F383116A
:101EF00004F11800FFF70FFF51462046FFF70BFFD4
:101F000007FB06F0B8FBF0F0BDE8F09F761E042E4C
:101F1000CDD26D1CB5F5984FC7D90020F4E72DE957
:101F2000F04104460D462046FFF7D8FE064646F02F
:101F300041012046FFF7EFFE6868401E4FF4E04184
:101F400001EA00372868401E4FF4706101EA002062
:101F50000743A868401EC02101EA80100743287B80
:101F6000401E00F03F000743394604F10C00FFF724
:101F7000D2FEA889401EC0F3831104F11800FFF7B8
:101F8000CAFE26F0400606F0010008B126F0010660
:101F900031462046FFF7BFFEBDE8F08170B504462C
:101FA0000D462046FFF784FE064629463046FFF7D9
:101FB0001DFB3046FFF776FB70BD70B5044620462A
:101FC000FFF776FE05462846FFF7A8FB2846FFF7F1
:101FD00027FB70BD70B504460D462046FFF77EFE18
:101FE00040EA050631462046FFF795FE70BD70B504
:101FF00004460D462046FFF771FE20EA05063146ED
:102000002046FFF788FE70BD70B504460E4616B137
:10201000012E12D105E004F11000FFF75FFE054626
:102020000DE004F5A070FFF759FE85B204F5A2702B
:10203000FFF754FE45EA004501E0002500BF00BF60
:10204000284670BD70B504460D46B5F5004F03D166
:10205000201DFFF743FE1CE000BF04F12000FFF746
:102060003DFE00F400400028F7D1082104F12400CF
:10207000FFF751FE05F03F0104F12000FFF74BFE92
:1020800000BF04F12000FFF729FE00F40040002803
:10209000F7D170BD0000FCBFC485000070B50446D8
:1020A0000E462046FFF71AFE054616B125F020051C
:1020B00001E045F0200529462046FFF72CFE70BDC3
:1020C00010B504462046FFF709FE00F0200008B1D5
:1020D000002010BD0120FCE770B504460E4636B165
:1020E000012E0ED0022E18D0032E2ED121E0201D5D
:1020F000FFF7F4FD05466FF01F01201DFFF70BFEF3
:1021000025E004F58070FFF7E9FD054604F58270CF
:10211000FFF7E4FD45EA004519E004F59070FFF78C
:10212000DDFD054604F59270FFF7D8FD45EA004550
:102130000DE004F5B070FFF7D1FD054604F5B2706F
:10214000FFF7CCFD45EA004501E0002500BF00BFD8
:10215000284670BD2DE9F04107460D46164607F1A9
:102160000800FFF7BBFD0446C4F306202860E0B278
:10217000306004F4004010B10120BDE8F08100207F
:10218000FBE72DE9FF4F83B0054614469B46002030
:10219000009000BF05F12000FFF7A0FD00F4004013
:1021A0000028F7D12068B0F5006F03D2207A00F044
:1021B000040010B14FF0010A01E04FF0000A4FF0A7
:1021C0009308002001900027002602908146BBF171
:1021D000050F23D2DFE80BF0030A0E101B0046F4B4
:1021E00080764FF40057012000901AE046F4807684
:1021F000002716E0002714E04FF400577E104FF63A
:10220000FF70029041F6FF7948F0400809E04FF472
:1022100000574FF490560120009002E007B0BDE84F
:10222000F08F00BF207A00F0080080B1BAF1000FF3
:1022300006D0A08880B202906068C0F30C4906E026
:102240000020029041F6FF71606801EA8009207A5F
:1022500000F02800282801D149F40049207A00F034
:102260001800182801D149F48049207A00F038007C
:1022700018B146F4805648F0400848F02008BAF1FA
:10228000000F0BD0208880B201990843019020688C
:10229000C0F30C40074347F4404707E041F6FF71A5
:1022A000206801EA8000074347F40047207B00F0E4
:1022B0000F000643208900F4007008B946F080063C
:1022C000207A00F0010008B146F40066207A00F0A0
:1022D000020008B146F48066009828B105F13C017F
:1022E000D4E90320FFF719FD414605F12400FFF76B
:1022F00012FD05F128000299FFF70DFD494605F191
:102300002C00FFF708FD05F130000199FFF703FDF0
:10231000394605F13400FFF7FEFC314605F138007F
:10232000FFF7F9FC049800F03F0105F12000FFF7EA
:10233000F2FC00BF72E72DE9FC5F054689461446B2
:102340009A4673200190BAF1000F03D0019840F033
:102350000800019005F184000199FFF7DCFC09F009
:102360003F0105F18000FFF7D6FC00BF05F18000BA
:10237000FFF7B4FC00F400400028F7D105F1880015
:10238000FFF7ACFC80B2009005F18C00FFF7A6FCD3
:102390001FFA80F805F19000FFF7A0FC1FFA80FB00
:1023A00005F19400FFF79AFC87B205F19800FFF75A
:1023B00095FC86B20020A06006F4807010B907F486
:1023C000005028B906F4807030B107F4005018B9F5
:1023D000A06840F04000A06007F4804048B1C7F317
:1023E0000C004BEA00402060A06840F00400A060B0
:1023F00002E0C7F38A00206006F4804018B1A068AC
:1024000040F48070A06006F48050A0B307F48040D0
:1024100098B1C8F30C01009840EA014060606FF089
:1024200060416068884203D1207A00F04000A0B982
:10243000A06840F00800A0600FE0C8F38A00606068
:1024400040F2FF716068884203D1207A00F04000BA
:1024500018B9A06840F00800A06008F4004018B166
:10246000A06840F02800A06008F4804018B1A0687F
:1024700040F01800A06006F4006018B1A06840F0B9
:102480000100A06006F4806018B1A06840F002006E
:10249000A06006F4004028B306F00F00E060207A48
:1024A00000F0400028B905F19C01D4E90320FFF7B2
:1024B0004FFC042105F18400FFF72DFC09F03F01DA
:1024C00005F18000FFF727FC00BF05F18000FFF752
:1024D00005FC00F400400028F7D1A06840F080001F
:1024E000A06001E00020E060BDE8FC9F70B50446FC
:1024F0000D4600BF04F12000FFF7F0FB00F40040A0
:102500000028F7D1A02104F12400FFF704FC0021EA
:1025100004F13000FFF7FFFB002104F13400FFF766
:10252000FAFB05F03F0104F12000FFF7F4FB70BD5A
:1025300070B50446E10901208840C5430A20FDF733
:10254000A5FE0320C64908600A20FDF79FFEC54886
:10255000C0F8C0520A20FDF799FE0020C04908606B
:102560000A20FDF793FE70BD10B50A20FDF78EFE20
:102570000320BB4908600A20FDF788FE0020B94906
:10258000C1F8C0020A20FDF781FE0020B4490860AE
:102590000A20FDF77BFE10BD00BFB348806900F044
:1025A00001000028F9D1704710B50220FDF76EFE3A
:1025B000FFF7F2FFAC48C46904F00C0080B1AB48EF
:1025C000FEF7FEFA0220FDF761FEFFF7E5FFA648E1
:1025D000C46904F00C0008B1022010BD0120FCE722
:1025E0000020FAE7A04800680004800B70479E486E
:1025F0000068C0F30A40704710B58B099A4C6360BD
:10260000C1F38303A36092080CE0974B5B690360FE
:10261000001D521E944B9B6823B9934B5B685B1C57
:10262000914C6360002AF0D110BD2DE9F0410746BE
:102630000C4615468E4800688E4908408E498842EF
:1026400006D18B48006880B210B92046FFF770FFB2
:10265000A00985494860C4F383008860AD0826E07E
:1026600081493868486100BF7F48866906F00100EB
:102670000028F9D106F4887078B17D4800687D495A
:1026800008407D49884205D17948006880B208B980
:10269000FFF76AFF3046BDE8F0813F1D6D1E7248AE
:1026A000806820B970484068401C6F494860002D20
:1026B000D6D16F4800686F4908406F49884205D1FC
:1026C0006B48006880B208B9FFF74EFF6648806922
:1026D000E1E770B505460C46654800686549084065
:1026E0006549884206D16248006880B210B9204628
:1026F000FFF71EFFA0095C494860C4F383008860AF
:1027000008464561806970BD10B55C485649803106
:102710000860FFF741FF5548FEF752FA0220FDF727
:10272000B5FDFFF739FF5048806910BD01464E489E
:102730004160006B704702464B484260016300BF36
:102740004948806900F001000028F9D146488069B5
:10275000704710B5034644484360434C34340BE0A3
:1027600008682060091D241D521E00BF3E48806974
:1027700000F001000028F9D1002AF1D13A4880691F
:1027800010BD0146384841604FF0FF30364A1062B4
:102790001046006A704710B50346334843604FF057
:1027A000FF30314C2062501E01EB800104E051F8F3
:1027B00004092D4C2062521E002AF8D12A48006AD2
:1027C00010BD01218140284A116570472649096CD6
:1027D00041F00101244A11642149FC39096941F0A1
:1027E00004011F4AFC3A116170471D49FC3909690F
:1027F00021F004011A4AFC3A11611B49096C21F0CD
:102800000101194A11647047014649B11448FC3866
:10281000406900F0040008B1042070470020FCE784
:102820001148806900F0010008B10020F5E704209C
:10283000F3E710B5044604200949FC3948610C4807
:1028400000680C4908400C49884205D108480068D6
:1028500080B208B9FFF788FE10BD03488069704751
:10286000FCD00F4000E00A4000F00A40005800F0A1
:1028700000E00F400000FF700000051001007BE346
:10288000024600210AE0C04850F83100904204D1CD
:10289000BD4800EBC10040687047491C0829F2D3CD
:1028A0004FF0FF30F8E7C26A22F086020A43C262A4
:1028B00070470146C86A00F08600704741EA02038B
:1028C0004363704710B5436B03F007040C6003F0DB
:1028D0003804146010BDC16A41F01001C162016B7F
:1028E00040F2013211430163704700BF816901F07A
:1028F00008010029FAD1C16A21F01001C162016BFF
:1029000040F20132914301637047F0B504460E4630
:1029100015461F462046FFF7E8FFB6EB051F05D218
:10292000206B40F0200020636D0803E0206B20F056
:1029300020002063F000B0FBF5F0401C430898092C
:10294000606203F03F00A062E7620020A0612046C1
:10295000FFF7C1FFF0BDF0B5446A856A8E004027DD
:1029600007FB0457B6FBF7F61660066B06F0200669
:1029700016B1166876001660C66A06F0EE061E608E
:10298000F0BDC16A41F01001C1627047C16A21F017
:102990001001C162704721B1026B42F0060202636E
:1029A00003E0026B42F0020202637047016B21F008
:1029B000060101637047C16A21F0E60141F06E0132
:1029C000C162026B42F0080202637047016B21F0A2
:1029D000080101637047026B01F440631A4302630C
:1029E0007047026B01F440639A43026370470146EB
:1029F000086B00F4406070470146886940F2071296
:102A000010407047026B22F440420A430263704751
:102A10000146086B00F440407047026B22F0100240
:102A20000A43026370470146086B00F010007047CC
:102A300001468869012222EA101070470146886920
:102A4000012222EA501070470146886900F0100008
:102A500008B9086870474FF0FF30FBE7014600BF38
:102A6000886900F010000028FAD108687047024613
:102A7000906900F0200010B911600120704700201B
:102A8000FCE700BF826902F02002002AFAD101604F
:102A9000704719B1C26A42F0010202E0C26A22F034
:102AA0000102C262704701468869C0F3C0007047E6
:102AB00070B504460D462046FFF7E2FE064629465D
:102AC0003046FEF793FD3046FEF7ECFD70BD70B565
:102AD00004462046FFF7D4FE05462846FEF71EFEB4
:102AE0002846FEF79DFD70BD826B0A4382637047E6
:102AF000826B8A4382637047024609B1106C70474B
:102B0000D06BFCE741647047826C0A438264704773
:102B1000826C8A43826470470146486800F00F0067
:102B20007047002141607047C0F8C81F70470146D8
:102B3000D1F8C80F7047D0F8A41041F40041C0F894
:102B4000A4107047D0F8A41021F40041C0F8A410DC
:102B50007047C0F8A410C0F8A82070470A4600BF0C
:102B6000836903F08803002BFAD1C16A21F00403C2
:102B700043F08203C362026000BF836903F08803ED
:102B8000002BFAD1C1627047E485000010B5F84807
:102B9000FEF780F840F60200FDF709FF40F602401C
:102BA000FDF705FF41F20200FDF701FF41F202408F
:102BB000FDF7FDFE3C214FF04020FDF7ADFEEC4857
:102BC000C01DFEF767F80821EA48FDF701FE042161
:102BD000E848FDF7FDFDE6481F30FEF75BF80121F0
:102BE000E548FDF7E6FD0221E348FDF7F1FD082188
:102BF0004FF04020FDF7ECFD10BD30B585B002F080
:102C00007EFC04464FF47A704443D9480F30FEF7F7
:102C100041F8DA48FDF7CBFED948FDF7C8FE302170
:102C2000D848FDF76CFDD848FEF734F8D748FFF7D1
:102C3000AAF8FEF7B0FA054622462946D348FFF720
:102C400027F90221D148FFF7C5F93720FEF72AFD01
:102C5000CE48FFF7E5F800213720FEF701FDFEF72B
:102C6000BBFC0020009001900A20029008200390F5
:102C700002236A460121C548FFF783FA002005B008
:102C800030BD70B586B006460C46154601960494D4
:102C900000200290059508200390002301AA0F212F
:102CA000BA48FFF76EFA06B070BD1CB5B848FDF71C
:102CB000F1FFFEF770FA04460820B64900231A46D1
:102CC000CDE900102146B448FEF74DFFB248FEF7AB
:102CD0007DFF1CBD1CB5AE48FDF7DCFFFEF75BFABF
:102CE00004460820AD4900231A46CDE900102146CC
:102CF000A948FEF738FFA848FEF768FF1CBD38B5A5
:102D000004462146A448FEF797FF6946A248FEF70D
:102D1000A5FF009838BD10B5A148FDF7BBFFFFF730
:102D200043FC044610BD70B504460D4616463246B7
:102D300029462046FFF760FC70BD70B504460D467D
:102D40001646324629462046FFF76FFC70BD10B587
:102D50009448FDF79FFF94499448FEF7B2FDFEF7B3
:102D60001AFA42F21071B0FBF1F42246FF218F48AB
:102D7000FEF726FE03212320FEF772FC01218B487B
:102D8000FEF7A5FE2320FEF78DFCFF218748FEF706
:102D90008AFD10BD10B58648FDF77CFF8549864841
:102DA000FEF78FFDFEF7F7F942F21071B0FBF1F478
:102DB00022464FF47F418048FEF702FE7F4A4FF4DF
:102DC0007F417D48FEF74EFEFEF706FC4FF4807112
:102DD0007948FEF77CFE7120FEF764FC4FF47F41DA
:102DE0007548FEF760FD10BD10B57148401CFDF739
:102DF00051FF70497248FEF764FDFEF7CCF94FF4BD
:102E00007A61B0FBF1F422464FF47F416C48FEF743
:102E1000D7FD6C4A4FF47F416948FEF723FEFEF769
:102E2000DBFB4FF480716648FEF751FE7320FEF71E
:102E300039FC4FF47F416248FEF735FD10BD10B5F7
:102E400004460CB1082000E0002002460821494851
:102E5000FDF741FC002010BD10B55B480068401C28
:102E60005949086008460068B0F57A7F0DDD0020FA
:102E7000086056480068FFF7E2FF5448006808B948
:102E8000012000E000205149086010BD10B55048F5
:102E9000006820B14E48007800F0010010BD042108
:102EA0003448FDF786FC04213248FDF70EFC10B1D2
:102EB0000120474908604648006840F080004449C6
:102EC000086004212B48FDF783FC4148007800F09E
:102ED0000100E3E710B504460CB1042000E0002037
:102EE000024604212348FDF7F6FB10BD70B50446E9
:102EF000FFF7CCFF60B10CB1642C06DB2046FFF776
:102F0000E9FF00203349086001E03248046070BDE9
:102F1000002030490860C4EB0420642190FBF1F5E7
:102F2000284600F073FE00BFF1E710B5294800689D
:102F300000B910BD28480068401C274908600846B1
:102F40000068642804DB002008600120FFF7C2FF4E
:102F5000214800681F490968884202D10020FFF714
:102F6000B9FF00BFE5E710B50446BCB3022037E067
:102F700001000020007000400050024008100400D2
:102F8000081404000040024000011000000004404A
:102F90001000001040420F000080004000127A0034
:102FA000005800F00100101022000004000003404F
:102FB000015C00F0002200040070034005310000B5
:102FC00000C004401331000014000020180000204D
:102FD0001C0000200C00002010000020FFE7002053
:102FE000024602213D48FDF776FB10BD10B50446B0
:102FF0000CB1082000E00020024608214FF04020DC
:10300000FDF769FB10BD10B501213448FDF75DFBEC
:1030100008B9012010BD0020FCE73149086000BF5D
:103020002F4909680029FBDC704701462D480068DC
:10303000884204DB00202B4A1060012070470020EA
:10304000FCE710B528480068401C27490860FFF7D6
:103050006CFF02F0B1FC23480068642804DA2148C0
:103060000068401C1F49086020480068401C1F4938
:1030700008600A2800DA10BD00201C490860FFF72C
:10308000EBFE00F039FF16480068002804DD144804
:103090000068401E1249086000BFECE71248006853
:1030A000704710B51248FDF7C9FFFFF76FFDFFF736
:1030B00032FEFFF7A2FD00F0C2FFFFF7F6FDFFF7BB
:1030C00046FEFFF767FEFFF78FFE00F0B7FDFFF744
:1030D00001FEFF20FFF70AFF002010BD0050024054
:1030E0000000002004000020080000202000002034
:1030F0008003C00110B501212048FEF7F6FCFFF760
:10310000A0FF10BD10B54FF480711D48FEF7EDFC17
:1031100010BD10B54FF480711A48FEF7E6FC10BDE3
:1031200030B587B004460D46CDF818D0012302AA69
:1031300029462046FFF7FFF86A460599029802F0F3
:10314000ACFA07B030BD10B500210F48FEF75CFFA8
:103150000446B4F5004F05D100210B48FEF7BCFF33
:10316000044609E0012C07D101210748FFF7D8FFE9
:1031700001210548FEF766FF10BD00000000034076
:103180000070034000C0044000000440002000E044
:10319000401C0A28FCDB7047002000E0401C41F284
:1031A00088318842FADB7047002000E0401C41F281
:1031B00088318842FADB704710B504460020FFF7DB
:1031C00015FF8020FFF79BFD2046FFF798FD0120AB
:1031D000FFF70CFF10BD10B504460020FFF706FFF7
:1031E0000020FFF78CFD2046FFF789FD0120FFF747
:1031F000FDFE10BD70B505460020FFF7F7FE40202C
:10320000FFF77DFD0020FFF77AFD04460120FFF760
:10321000EDFE204670BD10B504460020FFF7E6FE27
:103220000020FFF76CFD2012FFF769FD0120FFF77A
:10323000DDFE0020FFF7DAFE0020FFF760FD2046EC
:10324000FFF75DFD0120FFF7D1FE10BD10B5002096
:10325000FFF7CCFE4020FFF752FD0020FFF74FFDA7
:1032600004460120FFF7C2FE204610BD70B505469A
:103270000C460020FFF7BAFE8020FFF740FD2846ED
:10328000FFF73DFD0120FFF7B1FE0020FFF7AEFE86
:103290000020FFF734FD2046FFF731FD0120FFF746
:1032A000A5FE70BD70B504460020FFF79FFE80208C
:1032B000FFF725FD2046FFF722FD0120FFF796FED0
:1032C0000020FFF793FE4020FFF719FD0020FFF7D5
:1032D00016FD05460120FFF789FE284670BD10B592
:1032E0000020FFF783FEC020FFF709FD0020FFF755
:1032F00006FD04460120FFF779FE204610BD10B5FB
:103300000020FFF7CFFF10BD70B504460D462146E3
:103310004620FFF7ABFF21124720FFF7A7FF294602
:103320004820FFF7A3FF29124920FFF79FFF70BD38
:1033300070B504460D4621464A20FFF797FF21123B
:103340004B20FFF793FF29464C20FFF78FFF2912F0
:103350004D20FFF78BFF70BD70B504460D4621462A
:103360002A20FFF783FF21122B20FFF77FFF29463A
:103370002C20FFF77BFF29122D20FFF777FF70BD70
:1033800070B504460D4621468020FFF76FFF2112DD
:103390008120FFF76BFF29468220FFF767FF291284
:1033A0008320FFF763FF70BD2DE9F04104460D4611
:1033B00016461F46DDF8188021465820FFF756FFB5
:1033C00021125920FFF752FF29465A20FFF74EFFDE
:1033D000B8F1000F04D129125B20FFF747FF05E089
:1033E000802040EA25215B20FFF740FF39465C2022
:1033F000FFF73CFF39125D20FFF738FF31465E20B2
:10340000FFF734FF31125F20FFF730FFBDE8F08196
:1034100010B5044621465120FFF728FF10BD10B516
:103420000446C4F3C4216320FFF720FFC4F3451111
:103430006420FFF71BFF04F01F016520FFF716FF54
:1034400010BD10B50446C4F3C4216020FFF70EFF81
:10345000C4F345116120FFF709FF04F01F0162204A
:10346000FFF704FF10BD10B55020FFF7A5FE802028
:10347000FFF7B1FE10BD10B500BFFFF730FF00F041
:1034800040004028F9D010BD0020704710B500BFA3
:10349000FFF725FF00F080008028F9D010BD10B59F
:1034A0005220FFF7FFFE00F0F80421465220FFF7FC
:1034B000DDFE10BD10B55220FFF7F4FE00F0F8005D
:1034C000841D21465220FFF7D1FE10BD10B5042106
:1034D000F020FFF7CBFE04217120FFF7C7FEA321E8
:1034E0007020FFF7C3FE10BD10B5F120FFF7DAFE24
:1034F00000F0040010BD70B5F120FFF7D3FE00F01E
:103500000400C0B17420FFF7CDFE05467220FFF71E
:10351000C9FE0446A40005F003000444F748046013
:103520007320FFF7BFFE0446A400C5F381000444E6
:10353000F348046004E00020F0490860F0490860A6
:10354000EF48006838B1F120FFF736FE0420FFF79E
:1035500042FEFFF729FEE948006870BDE8480068B0
:1035600070472DE9F04105460E464FF0030800BFB5
:10357000F120FFF797FE00F0040000B37420FFF77E
:1035800091FE07467220FFF78DFE0446A40007F067
:103590000300044405B12C607320FFF783FE04464A
:1035A000A400C7F38100044406B134600421F12073
:1035B000FFF75CFEFFF7F8FD0120BDE8F081A8F100
:1035C0000100B0F1000800DDD2E70020F5E710B5FA
:1035D00080210120FFF74AFE10BD10B50021012017
:1035E000FFF744FE10BD70B505460E461446314641
:1035F0002846FFF789FE0220FFF7DEFD2046FFF791
:103600000AFE70BD70B504460D4629462046FFF7F8
:103610008FFE0220FFF7D0FDFFF718FE064630466A
:1036200070BD38B5044600200090B6480368B6481F
:103630000268B6480168B6480068FFF7B5FE0C207E
:10364000FFF7E6FE2046FFF7EAFEFFF70CFFFFF765
:1036500012FF38BD2DE9F84306460F4614461D46B5
:10366000DDF82080002023462A4639460090304667
:10367000FFF79AFE0C20FFF7CBFE4046FFF7CFFE88
:10368000FFF7F1FEFFF7F7FEBDE8F88370477047DC
:103690002DE9F04104460D4616461F4621463020CE
:1036A000FFF7E4FD21123120FFF7E0FD294632202B
:1036B000FFF7DCFD29123320FFF7D8FD3819A0F100
:1036C000010841463420FFF7D1FD4FEA282135207B
:1036D000FFF7CCFD7019A0F1010841463620FFF735
:1036E000C5FD4FEA28213720FFF7C0FD29462046B7
:1036F000FFF70AFE86480460844805608248066039
:1037000080480760BDE8F08110B57E4803687E48B8
:10371000002102680846FFF7BBFF10BD2DE9F04706
:103720008046894614461D46DDF820A000262B461B
:10373000224649464046FFF7ABFF0220FFF73CFD1B
:10374000574600BF03E001CFFFF765FD761C04FB81
:1037500005F0B042F7D8FFF7D7FFBDE8F0872DE9B5
:10376000F04704460F4615461E46DDE90889214606
:103770009120FFF77BFD21129220FFF777FD39465C
:103780009320FFF773FD39129420FFF76FFD294650
:103790009520FFF76BFD29129620FFF767FD314654
:1037A0009720FFF763FD31129820FFF75FFD404639
:1037B000FFF735FE80219020FFF758FDFFF766FEEA
:1037C000BDE8F0872DE9F05F04460F4615461E461A
:1037D000DDE90CABDDE90A8921469120FFF746FDC2
:1037E00021129220FFF742FD39469320FFF73EFD5C
:1037F00039129420FFF73AFD29469520FFF736FD50
:1038000029129620FFF732FD31469720FFF72EFD53
:1038100031129820FFF72AFD4146A920FFF726FD27
:103820004FEA2821AA20FFF721FD4946AB20FFF7E8
:103830001DFD4FEA2921AC20FFF718FD5046FFF788
:10384000EEFD0BF0800020B1A1219020FFF70EFDCE
:1038500003E081219020FFF709FDFFF717FEBDE887
:10386000F09F2DE9F04704460D4616461F46DDE958
:10387000088921469120FFF7F9FC21129220FFF7D9
:10388000F5FC29469320FFF7F1FC29129420FFF75D
:10389000EDFCE019411E9520FFF7E8FCE019401E01
:1038A00001129620FFF7E2FCA819411E9720FFF7AE
:1038B000DDFCA819401E01129820FFF7D7FC4046F6
:1038C000FFF7ADFD09F0800020B1B0219020FFF797
:1038D000CDFC03E090210846FFF7C8FCFFF7D6FDBA
:1038E000BDE8F0872DE9F04104460E4615461F4617
:1038F000DDF81880FF2D0DDDBDE8F08124000020EB
:103900002800002038000020340000203000002073
:103910002C00002021469920FFF7A8FC21129A20B4
:10392000FFF7A4FC31469B20FFF7A0FC31129C203E
:10393000FFF79CFC29469D20FFF798FC3846FFF7CF
:103940006EFD08F0800020B160219020FFF78EFC12
:1039500003E040219020FFF789FCFFF797FD00BFAF
:10396000CAE72DE9F04104460F4615461E46DDF82C
:1039700018802146A520FFF779FC2112A620FFF729
:1039800075FC3946A720FFF771FC3912A820FFF714
:103990006DFC2946A120FFF769FC2912A220FFF740
:1039A00065FC3146A320FFF761FC3112A420FFF72C
:1039B0005DFC4046FFF733FDFFF768FDBDE8F08191
:1039C0002DE9F05F0546894616461F46DDE90AAB3C
:1039D000DDF8308010242946A520FFF747FC291286
:1039E000A620FFF743FC4946A720FFF73FFC4FEA1C
:1039F0002921A820FFF73AFC3146A120FFF736FC29
:103A00003112A220FFF732FC3946A320FFF72EFC2B
:103A10003912A420FFF72AFCBBF1000F02D044F0BA
:103A2000800401E044F0C004B8F1010F02D144F079
:103A300001040DE0B8F1020F02D144F0020407E0E6
:103A4000B8F1030F02D104F0FC0401E044F00304D8
:103A50005046FFF7E4FC2146A020FFF707FCFFF7E4
:103A600015FDBDE8F09F2DE9F05F04460F461546B1
:103A70001E46DDE90C9BDDE90AA821469120FFF7EF
:103A8000F5FB21129220FFF7F1FB39469320FFF757
:103A9000EDFB39129420FFF7E9FB29469520FFF74B
:103AA000E5FB29129620FFF7E1FB31469720FFF74F
:103AB000DDFB31129820FFF7D9FB4146A120FFF72B
:103AC000D5FB4FEA2821A220FFF7D0FB4946A320CF
:103AD000FFF7CCFB4FEA2921A420FFF7C7FB504694
:103AE000FFF79DFCBBF1000F04D1A0210846FFF7B2
:103AF000BDFB03E0E021A020FFF7B8FBFFF7C6FC09
:103B0000BDE8F09F70B504460E4615461F2E00DD39
:103B10001F2631462920FFF7A9FB3F2D00DD3F2559
:103B2000022C00DD0024284664F39F1001462E205D
:103B3000FFF79CFB70BD70B504460D4604F0030210
:103B4000284662F39F0001462220FFF78FFB70BDDD
:103B500070B505460E46144631462846FFF7FCFB75
:103B600080214020FFF782FB00212F20FFF77EFB02
:103B700000212120FFF77AFB0220FFF71DFB0AE05E
:103B80002078FFF728FB00BFFFF7A9FB00F08000BB
:103B90008028F9D0641C20780028F1D10021402031
:103BA000FFF764FB70BD70B505460E4614463146FE
:103BB0002846FFF7D1FB80214020FFF757FB022169
:103BC0000620FFF753FB20212120FFF74FFB282180
:103BD0000520FFF74BFB81212F20FFF747FB022039
:103BE000FFF7EAFA0AE02078FFF7F5FA00BFFFF7DF
:103BF00076FB00F080008028F9D0641C2078002833
:103C0000F1D100214020FFF731FB70BD10B5044613
:103C100024B900218A20FFF729FB0EE0FF2C04D1F4
:103C200040218A20FFF722FB07E08A210846FFF7A0
:103C30001DFB21468B20FFF719FB10BD10B5FFF7C8
:103C40005EFB752800D010BD0020FFF78CF9FFF750
:103C5000A3FA0120FFF787F9FFF79EFA8820FFF704
:103C6000ABFAFFF793FA0A20FFF7B5FAFFF794FAD9
:103C70008920FFF7A1FAFFF789FA0220FFF7ABFAD4
:103C8000FFF78AFA08211020FFF7F0FA82210420BA
:103C9000FFF7ECFAFFF780FA3B211420FFF7E6FA72
:103CA00000211520FFF7E2FA01211620FFF7DEFAC6
:103CB00000211720FFF7DAFA05211820FFF7D6FABE
:103CC0000F211920FFF7D2FA01211A20FFF7CEFAAF
:103CD00002211B20FFF7CAFA00211C20FFF7C6FAB9
:103CE00007211D20FFF7C2FA00211E20FFF7BEFAB0
:103CF00009211F20FFF7BAFA0121C720FFF7B6FA02
:103D000080210120FFF7B2FA01214020FFF7AEFA2F
:103D100000214120FFF7AAFA16480368164800213F
:103D200002680846FFF7B4FC0020FFF77AFCFFF7B3
:103D3000CDFB00BF87E710B50020FFF772FC4FF600
:103D4000FF70FFF76CFB02210020FFF7F4FE0BA2CF
:103D50003C216420FFF7FCFE12A278216420FFF7CB
:103D6000F7FE00210846FFF7E6FE4FF47A70FFF7F2
:103D700054F910BD38000020340000205A68656AEC
:103D800069616E672048656E675169616E6720548E
:103D90006563686E6F6C6F677920636F2E2C6C742F
:103DA0006400000042792058756861696C6F6E6725
:103DB000000000000146854801600020704702466F
:103DC0001068322801DA3220106040F2CA331068DD
:103DD000984201DD1846106010683238C0EB0010C0
:103DE00040014FF4667390FBF3F01060086864289C
:103DF00001DA642008600868B0F56B7F02DD4FF4DB
:103E00006B7008600868643800EB001000014FF424
:103E1000527390FBF3F008600020704730B5034602
:103E200041F82230002011E051F820409C4200DC93
:103E30000BE007E000BF1C4651F8203041F820405D
:103E400000BF401C9042F5DD02E0401C9042EBDBDD
:103E500000BF30BDF0B597B006460F46002417E00E
:103E600001A902A8FFF77DFB0546002D02DC00201A
:103E700017B0F0BD0120FFF7D0F822460DA9029837
:103E8000FFF7CCFF224603A90198FFF7C7FF641C88
:103E90000A2CE5DBDDE91210401A1E2802DD4FF086
:103EA000FF30E5E7DDE90810401A1E2802DD4FF07B
:103EB000FF30DDE700200290019000240EE0601D3D
:103EC0000DA951F82000029908440290601D03A931
:103ED00051F82000019908440190641C022CEEDB8B
:103EE00002984010029001984010019002983060B2
:103EF000019838600120BBE735480068002804DDE0
:103F000033480068401E324908603248006820B1DA
:103F100031480068401C30490860704737B5144686
:103F200084B92C48006830B100222C4801682C4824
:103F3000006802F0C2FA002025490860254908609F
:103F4000401E3EBD01A96846FFF739FF20480068C2
:103F5000002801DD0020F4E7224800681C490860C1
:103F60001C48006868B90122DDE9000102F0A5FAE9
:103F70000020194908601C49009808601B490198F5
:103F8000086001201349086015490098086013492A
:103F9000019808600120D4E71CB5694601A8FFF725
:103FA00059FF0446002C00DA1CBD2246DDE9001052
:103FB000FFF7B4FF0548006828B12246034BDDE94E
:103FC00000101B68984700BFEEE700005C0000206F
:103FD0003C00002050000020400000204C00002049
:103FE0004800002044000020540000205800002019
:103FF00010B501213B48FEF77FFD044621463948B4
:10400000FEF780FD15E03748FEF71EFD36490870C3
:10401000084600783549364A127888543448007882
:10402000401C3349087008460078402801DB002016
:1040300008702C48FEF7FCFC0028E4D110BD10B538
:104040002C48FCF727FE2C48FCF724FE03214FF0F8
:104050004020FCF77FFC0120FCF7A9FC40F2014066
:10406000FCF7A5FCFDF797F8044668234FF41642C9
:1040700021461C48FEF749FCFDF7AEFA1520FDF776
:1040800011FB50211748FEF72FFD002010BD10B581
:10409000044621461348FEF7F4FC10BD01461448BF
:1040A0000078164A1278904201D1002070470F48DC
:1040B000124A1278805C087010480078401C0F4A41
:1040C000107010460078402801DB0020107001209D
:1040D000ECE770B504460D46E0B2FFF7D8FF204686
:1040E00070BD000000C00040620000206C0600208F
:1040F000610000200100001001000020600000208D
:1041000001F039FDFEF7CDFF01F012FA17200C493E
:10411000086013E00A480068152804D0162805D066
:10412000172809D105E000F0BFFA06E001F0BEF85B
:1041300003E000F02DF900E000BF00BFEAE7000057
:10414000C801002008B501F006FD80B14FF6FF70F0
:10415000FC4A0090D28902F10C01FA4A928902F1DC
:104160000F004FF61F03F8A202F01DF80FE04FF604
:10417000FF70F44A0090D28902F10C01F14A928951
:1041800002F10F004FF47843F1A202F00CF808BDE1
:1041900010B5F14AD18890880832FEF772FDEE4AD8
:1041A000D1889088083201F039FC10BD08B54FF66F
:1041B000FF7002F001F900201C234FF4F072194641
:1041C000009002F0CAF84CF218601D234FF4F07210
:1041D00019460090002002F0C0F84CF218601E232F
:1041E0001A0119460090002002F0B7F808BD10B57A
:1041F000044614B94FF0FF3010BD1C224FF47A7101
:104200002046FEF790FD60884FF2AF5188420FD0F4
:104210001C21204602F045FD4FF45C70A080022076
:10422000E08034202072092161726FF00100E3E721
:104230000020E1E7C9484079C849097900EB01202D
:10424000C7494860C548C078C449897800EB012057
:10425000C3490860C148C079C049897900EB012091
:10426000BF4988607047002003E00021BB4A115419
:10427000401C0828F9DB0021BA4A1160BA4A1160D3
:1042800070472DE9F04105460C4616461F46DDF8FD
:1042900018804020B0490872084645728472210A8D
:1042A000C1720673477380F80E804FEA1821C173FC
:1042B000FFF76EFFBDE8F08110B504460720A64960
:1042C00008720846447200218172C1720173417301
:1042D0008173C173FFF75CFF10BD70B5044648F2EF
:1042E000020502209C490872084644728572290A18
:1042F000C172002101734173012181730021C173D7
:10430000FFF746FF70BD70B5044648F20205022073
:1043100091490872084644728572290AC1720021C7
:10432000017341738173C173FFF732FF70BD70B5C4
:1043300005460C464FF47A760120874908720846F4
:1043400045728472210AC1720673310A41730021D9
:104350008173C173FFF71CFF70BD2DE9F041064664
:104360000F4614461D46DDF818807B490E7208463C
:1043700047728472210AC1720573290A417380F859
:104380000E804FEA1821C173FFF702FFBDE8F081EC
:10439000F0B585B0002002904FF4FA76012403278F
:1043A00000BF00210846FFF7C6FB4DF6DB6002F0B8
:1043B00003F84AF65550322364221421009008462F
:1043C00001F074FE4AF65550002368A223210090A4
:1043D0002D2001F0E8FE4AF65550322364221146A2
:1043E0000090142001F062FE4AF65550002361A2AD
:1043F000732100902D2001F0D6FE4FF6FF70192397
:10440000642211460090A02001F0A6FE4DF6DB606C
:1044100000235AA24B210090A52001F0C4FE0620E3
:104420004FF6FF7100233246CDE900106921A52027
:1044300001F0CEFE4AF6555032236422B42100909A
:10444000142001F033FE4AF6555000234FA2C32139
:1044500000902D2001F0A7FE4FF45C703E4988804B
:104460000820C8804FF47A7001F01EF884B11F2034
:1044700032236422B4210090142001F017FE1F2083
:10448000002342A2C32100902D2001F08CFE11E0F8
:104490004AF6555032236422B4210090142001F0D2
:1044A00005FE4AF65550002338A2C32100902D2066
:1044B00001F079FE0421364801F09EFFEAE003A9ED
:1044C00004A802F05EF80546002D00DCE2E0049846
:1044D00030B101285ED002287ED0032830D18EE092
:1044E000FD274FF4784032236422142100900846BF
:1044F00001F0DCFD4FF4784000231CA22321009042
:104500002D2001F050FE0020234632461B21009052
:104510003846FFF722FF3220FEF77FFD4AF655505E
:104520003223642214210090084601F0BFFD4AF6B0
:10453000555000230DA2232100902D2001F033FEC1
:10454000A6E000006C00002053746F702000000093
:104550005374617274000000F8070020C00100204D
:10456000AC060020B8010020BC0100207374617209
:104570007400000073746F70000000007374657045
:104580005F6D6F746F725F66726500004449520020
:104590005401002003274FF478403223642211464F
:1045A0000090142001F082FD4FF478400023AFF218
:1045B0003C02732100902D2001F0F5FD0020034600
:1045C0000246014600903846FFF7C7FE3220FEF74C
:1045D00024FD4AF6555000E045E03223642211469E
:1045E0000090142001F062FD4AF655500023AFF20E
:1045F0007C02732100902D2001F0D5FD48E00CB91C
:10460000012000E0002004468CB11F2032236422E8
:10461000B4210090142001F049FD1F200023AFF2C7
:104620009402C32100902D2001F0BDFD12E04AF656
:10463000555032236422B4210090142001F036FD3D
:104640004AF655500023AFF2BC02C32100902D2042
:1046500001F0A9FD0020234632461B210090384678
:10466000FFF77BFE14E00120082302AA142100902A
:10467000FA2001F0EDFA029E06204FF6FF710023AA
:104680003246CDE900106921A52001F0A1FD88E6A0
:1046900000BF00BFFD48006817283FF410AFFC487A
:1046A00001F0C5FE05B0F0BD00B5A9B0002028900E
:1046B0002790269025902490401E2390229005203C
:1046C000219000201B901A90F2A000681990AFF280
:1046D000641003C8CDE91701EFA003C8CDE91501A7
:1046E000EF4890E80E00C068CDE9122311911490B4
:1046F000EB4B1033D3E90020D3E90213CDE90F13BC
:10470000CDE90D200020099008904FF4FA60079041
:104710000A20069064200590002004904FF47A70DF
:10472000039000BF00210846FFF705FA4DF6DB6055
:1047300001F042FE4AF655503223642211460090A1
:10474000142001F0B3FC4AF65550002317AA732138
:1047500000902D2001F027FD4AF655501E233222ED
:1047600064210090880001F0A1FC4AF655501E23F8
:10477000322296210090D00001F098FC4AF6555064
:104780000023C8A29B2100904FF4CD7001F00BFDD7
:104790004AF655503223642214210090084601F055
:1047A00085FC4AF65550002315AA232100902D20A0
:1047B00001F0F9FC4FF6FF701923462264210090A6
:1047C000A02001F0C9FC4DF6DB600023B6A24B210E
:1047D0000090A52001F0E7FC05204FF6FF710023B3
:1047E000CDE900106921A520089A01F0F1FC4FF6EF
:1047F000FF701923462264210090FA2001F0ACFCDE
:104800004DF6DB600023ABA24B2100904FF4877084
:1048100001F0C9FC4DF6DB600023A7A269210090DE
:1048200040F2451001F0BFFC05204FF6FF71002358
:10483000CDE900106921FF20079A01F0C9FC002092
:10484000009049234FF4A07205210190912001F0BE
:10485000D9FC4DF6DB604FF4784398A20821009014
:10486000C82001F0A0FC4FF6FF7019234622322128
:104870000090962001F070FC4DF6DB60002395A2BD
:10488000192100909B2001F08EFC04204FF6FF714F
:104890000023CDE90010914837210268AF2001F0D4
:1048A00097FC4FF6FF701923462232210090E62034
:1048B00001F052FC4DF6DB60002389A21921009023
:1048C000EB2001F070FC04214FF6FF700023CDE9CE
:1048D00000013721EB20039A01F07AFC4FF6FF70BC
:1048E00019234622322100904FF49B7001F034FCD2
:1048F0004DF6DB6000237DA21921009040F23B10B1
:1049000001F051FC04214FF6FF700023CDE90001B6
:10491000372140F23B10069A01F05AFC0A21079811
:10492000B0FBF1F005904FF6FF70192346223221BB
:1049300000904FF4C37001F00FFC4DF6DB600023D4
:104940006CA21921009040F28B1001F02CFC042184
:104950004FF6FF700023CDE90001372140F28B10A4
:10496000059A01F035FC4DF6DB60002364A2DC21E2
:104970000090184601F017FC00214FF448721B9874
:104980001923CDE9002102904FF49672DC216420B6
:1049900001F05CFC4FF6FF7019234622B421009011
:1049A000142001F0D9FB4DF6DB60002358A2A021B2
:1049B0000090192001F0F7FB04204FF6FF7100234F
:1049C000CDE90010B9211920049A01F001FC4FF63D
:1049D000FF70192346228C2100904FF4967001F04D
:1049E000BBFB4DF6DB6000234CA291210090AA2076
:1049F00001F0D9FB05204FF6FF710023CDE900102F
:104A0000912140F23110099A01F0E2FB4DF6DB6092
:104A1000002329A29121009040F2771001F0C3FBFE
:104A20004FF6FF7019234622B42100904FF4967080
:104A300001F092FB4DF6DB6000233DA2B92100900E
:104A40005A2001F0B0FB05204FF6FF710023CDE99D
:104A50000010B92140F231101B9A01F0B9FB01207E
:104A60003A4988800820C8804FF47A7000F01CFD15
:104A70002498002871DD4AF65550002334A269219C
:104A800000904FF4CD7001F08EFB70E0C801002063
:104A90005401002025000000636C65617200000075
:104AA000248600004D5F5300737465705F6E756DF2
:104AB000000000006C656E00756D00004D6F746F36
:104AC0007220706172616D657465722073657474B3
:104AD000696E6700535445505F494400A8010020A7
:104AE000737465705F656C650000000073746570B9
:104AF0005F7800007365745F737465700000000078
:104B000050726F677265737320426172000000001B
:104B1000737465705F6261636B0000004D6963725E
:104B20006F6D6574657220446174613A0000000025
:104B3000204D6F746F72207472616E736D69737340
:104B4000696F6E2074696D65733A0000F807002084
:104B5000444F574E00000000FFE74AF6555000232F
:104B6000FEA26921009040F2951001F01CFB00208C
:104B70001C9009E00DA91C9811F810000290FFF795
:104B800086FA1C98401C1C901C980828F2DB0A200E
:104B9000FEF743FA00201C900CE01C98401C00EB30
:104BA00080004004010CEE4A1C9822F810101C985A
:104BB000401C1C9005991C988842EED30A21E948B4
:104BC00001F01AFC68E31DA91EA801F0DAFC1F9091
:104BD0001F98002800DC5FE31E980A286FD2DFE8E8
:104BE00000F005FE6EFDFCFBFAF9F8F700200890D6
:104BF0001B9005204FF6FF710023CDE90010B9216D
:104C000040F231101B9A01F0E3FA4FF4784032235E
:104C1000642211460090142001F048FA4FF47840C5
:104C2000002317AA732100902D2001F0BCFA002068
:104C30001C9009E00DA91C9811F810000290FFF7D4
:104C400026FA1C98401C1C901C980828F2DB0A20AD
:104C5000FEF7E3F900201C900CE000210AAA1C9842
:104C600011540AA91C9808440290FFF717FA1C98DF
:104C7000401C1C901C980928EFDB21E0012108460C
:104C8000FEF759FF1F20C302B7A25A210090282027
:104C900001F089FA1F20C302BAA2782100905A209D
:104CA00001F081FA1F20C302BBA296210090782058
:104CB00001F079FA4FF4FA60FEF7AFF932E510E24D
:104CC00007980028DAD00220009000224FF4FA71F1
:104CD000B548069B0068FFF7D4FA0520FEF79DF95A
:104CE0000020259000E1DCE0059800900222AE480B
:104CF000069B03990068FFF7C4FA0520FEF78DF9BB
:104D00000898401C0890A9488078049004204FF629
:104D1000FF710023CDE90010B9211920049A01F098
:104D200057FA05204FF6FF710023CDE900106921E5
:104D3000A520089A01F04CFA00201C9009E011A966
:104D40001C9811F810000290FFF7A1F91C98401C64
:104D50001C901C980828F2DB0520FEF75EF9002065
:104D60001C900CE000210AAA1C9811540AA91C9856
:104D700008440290FFF792F91C98401C1C901C9864
:104D80000928EFDB0A20FEF748F99DF82E109DF860
:104D90002D0001EB002009902698401C26902698B3
:104DA0000A2840DD099881B228AA279822F8101015
:104DB0002798401C27902798012832DD0020279053
:104DC000BDF8A000BDF8A21088422AD1012107E059
:104DD0005CE200E2E8E1D0E1B3E19AE182E104E1E2
:104DE0000846FEF7A8FE1F20C30271A25A210090B8
:104DF000282001F0D8F91F20C30273A27821009067
:104E00005A2001F0D0F90598009001226648069BCF
:104E100003990068FFF735FA4FF4FA60FEF7FDF8E2
:104E200080E4002026909DF82B0001280DD105205C
:104E30004FF6FF710023CDE90010099842429121FD
:104E400040F2311001F0C4F90BE005214FF6FF707C
:104E50000023CDE90001912140F23110099A01F0BF
:104E6000B7F90799099888420ED24FF44872099908
:104E700007981923CDE9002102904FF49672DC21A6
:104E8000642001F0E3F90CE04FF448710798CDE994
:104E9000001019234FF49672DC210290642001F077
:104EA000D5F92F49259831F81010099881423FF71C
:104EB0001BAF1B98401C1B900598009003223A489A
:104EC000069B03990068FFF7DCF905214FF6FF7098
:104ED0000023CDE90001B92140F231101B9A01F005
:104EE00077F92598401C2590059925988842FFF46C
:104EF000FAAE0598009001222B48069B03990068A2
:104F0000FFF7BFF904204FF6FF7100231A46CDE9E1
:104F10000010B921192001F05BF924488078049031
:104F200004204FF6FF710023CDE90010B9211920AC
:104F3000049A01F04DF900200990FFF794F94AF620
:104F400055503223642211460090142001F0AEF82F
:104F50004AF65550002317AA73213FE05550000030
:104F600054080020DC0000204552524F523A66752A
:104F70006C6C5F7374657020697320656D707479F3
:104F800021000000506C6561736520726573746167
:104F9000727420616E6420007365742066756C6C99
:104FA0005F73746570210000A8010020C00100201B
:104FB0004552524F523A5765206172652061742004
:104FC0007A65726F200000006F72204D6F746F72EF
:104FD00020697320737475636B21000000902D208D
:104FE00001F0E1F80020209054E100201B904FF4E4
:104FF00078403223642214210090084601F056F8CC
:105000004FF47840002315AA232100902D2001F0B1
:10501000CAF8F7480068FFF74FF900201C9009E034
:105020000DA91C9811F810000290FFF730F81C9899
:10503000401C1C901C980828F2DB0A20FDF7EDFFAD
:1050400000201C900CE000210AAA1C9811540AA907
:105050001C9808440290FFF721F81C98401C1C90F3
:105060001C980928EFDB0020099005204FF6FF71FE
:105070000023CDE900106921FF20079A01F0A8F86C
:105080000A214FF4487209981923CDE900200291B2
:105090004FF49672DC21642001F0D8F84FF4FA70D6
:1050A000FDF7BBFF4AF655503223642214210090CD
:1050B000084600F0FBFF4AF655500023AFF2286285
:1050C000232100902D2001F06EF805204FF6FF718E
:1050D0000023CDE90010B92140F231101B9A01F0F4
:1050E00077F8D7E0012008231AAA0A210090084681
:1050F00000F0AEFD1A98079005204FF6FF710023CF
:10510000CDE90010372140F24510079A01F060F810
:10511000D4E5012008231AAA0A210090084600F0CD
:1051200097FDB3491A98086004204FF6FF710023D9
:10513000CDE90010AE4837210268B42001F048F8EC
:10514000BCE5012008231AAA0A210090084600F0B5
:105150007FFD1A9803902498002802DA03984042B1
:10516000039004214FF6FF700023CDE900013721A1
:10517000EB20039A01F02CF8A0E5012008231AAADD
:105180000A210090084600F063FD1A980690042159
:105190004FF6FF700023CDE90001372140F23B10AC
:1051A000069A01F015F889E5012008231AAA0A21B8
:1051B0000090084600F04CFD1A98059004204FF628
:1051C000FF710023CDE90010372140F28B10059AC2
:1051D00000F0FEFF72E54FF6FF70422314223421E7
:1051E0000090E82001F0CCF82498C043C0B224908D
:1051F000249828B34AF655501E2332226421009089
:10520000880000F053FF4AF655500023AFF2B42255
:105210006921009040F2951000F0C5FF0398002826
:1052200002DA03984042039004214FF6FF700023F6
:10523000CDE900013721EB20039A00F0C9FF24E0FB
:105240004FF478401E23322264210090880000F041
:105250002DFF4FF478400023AFF20C7269210090CB
:105260004FF4CD7000F09FFF0398002802DD0398F3
:105270004042039004214FF6FF700023CDE9000166
:105280003721EB20039A00F0A3FF03E016215948D1
:10529000016000BF00BF00BF5648006815283FF4FA
:1052A00092AC554801F0C3F829B000BDFEB56425A5
:1052B00001260120514988800820C8804FF47A7067
:1052C00000F0F2F800210846FEF735FC4DF6DB60F1
:1052D00001F072F84AF655503223642211460090CC
:1052E000142000F0E3FE4AF65550002344A2732137
:1052F00000901E2000F057FF4AF655501E23322220
:10530000C8210090142000F0D1FE4AF65550002329
:105310003EA2CD2100901E2000F045FF4AF65550D8
:105320003223642211460090C82000F0BFFE4AF6E6
:1053300055500023AFF2E87273210090E62000F090
:1053400032FF2B480068FEF7C8FF0321314801F007
:1053500053F89AE001A902A801F013F90446002CC1
:1053600000DC92E0029820B1012855D002283DD1FE
:1053700085E000200346012200901D480168782046
:10538000FEF7EBFF6420FDF748FE4FF47840322330
:10539000642211460090142000F088FE4FF47840FB
:1053A000002317A2732100901E2000F0FCFE294666
:1053B0000F480068FEF7BBFF4FF47A70FDF72DFE33
:1053C0004AF655503223642211460090142000F012
:1053D0006DFE4AF65550002309A2732100901E204D
:1053E00000F0E1FE02480068FEF766FF4BE00000B7
:1053F000A8010020C8010020DC000020F8070020E0
:105400007A6875616E676C696E6700004261636BF4
:105410000000000084010020C6B14FF47840322320
:10542000642211460090C82000F040FE4FF47840FE
:105430000023AFF2D84273210090E62000F0B3FEC3
:1054400016480068FEF75FFF002617E04AF6555041
:105450003223642211460090C82000F027FE4AF64D
:1054600055500023AFF6181273210090E62000F08B
:105470009AFE0A480068FEF730FF012603E0152077
:105480000749086000BF00BF00BF05480068162834
:105490003FF460AF034800F0CAFFFEBDA801002042
:1054A000C80100208401002010B50446F8480460BB
:1054B0000068B0F57A7F02D8F548006818B94FF453
:1054C0007A70F349086004229021F148FDF735FC19
:1054D000002010BD10B504229021ED48FDF723FCFB
:1054E000EB480068B0F57A7F02D8E948006818B93F
:1054F0004FF47A70E6490860E548006810BD10B5C1
:10550000FFF7E8FF10BD10B5044608220021204631
:10551000FDF709FCDF492068884202D04FF0FF30D8
:1055200010BD902200212046FDF7FDFB0020F7E78B
:1055300010B5D948FFF7E7FF10BD00B5A5B001A829
:10554000FFF7E1FF9022D44901A801F0C3FB08B99D
:1055500025B000BDCF48D0490860012048609022A6
:105560000021CD48FDF7E9FB00BFF1E73220CB4930
:105570004860002088600860C860C94808614FF42E
:105580007A70C8494860002088600860C860C648D2
:10559000086170470146D1E901231A44CB68D01A4B
:1055A0004A68824201DC4A68801A704710B5044696
:1055B0002046FFF7EFFF002801DC012010BD00208E
:1055C000FCE710B504462046FFF7E4FF6168491E7A
:1055D000884201DB012010BD0020FCE770B50446C5
:1055E0000E462046FFF7E2FF08B1002070BD1EB155
:1055F000A068E0600120F9E7E5686D1C6068A842DA
:1056000001DC60682D1AE5600120EFE770B5044603
:105610000E462046FFF7CAFF08B1002070BDE068C3
:1056200085196068A84201DC60682D1A206900EBCA
:105630000510F3E72DE9F04704460E461746984655
:10564000DDF820902046FFF7B1FF10B10020BDE843
:10565000F087E56826B1206900EB0510006830602E
:1056600027B1206900EB0510007B3860B8F1000F0E
:105670000AD0206900EB0510027B206900EB0510C1
:10568000011D404601F0F4FA6D1C6068A84201DC7F
:1056900060682D1AE5600120D9E770B506460C4612
:1056A00015468248066082480460224629468148A1
:1056B00001F0DEFA70BD2DE9F04704460E461746AC
:1056C0009846DDF820902046FFF77BFF48B1B9F1FE
:1056D000000F02D10020BDE8F08700212046FFF72F
:1056E0007DFFA568206900EB05100660216901EBCC
:1056F00005110F73FDF7D2FC216901EB0511C8817B
:10570000216901EB0511081D3A46414601F0B0FA46
:105710006D1C6068A84201DC60682D1AA5602068D5
:10572000401C20600120D6E72DE9F04104460E46DA
:1057300017462046FFF745FF38B117B90020BDE8EE
:10574000F08100212046FFF749FFA568206900EBA2
:10575000051096E80E10A0E80E106D1C6068A842B7
:1057600001DC60682D1AA5602068401C20600120C3
:10577000E5E7F8B504460D4616464F48006808B1FF
:105780000020F8BD012033462A46214600904348B8
:10579000FFF791FFF5E70146082901DB002070477C
:1057A0003D48083050F82100F9E70246082A01DB9D
:1057B000002070470846384B083343F82210F8E7BA
:1057C00010B5002131E04A1C2CE03348083050F875
:1057D000220028B33048083050F8213050F8220019
:1057E000834204DD2C48083050F82100C0B92A4B10
:1057F000083353F8214053F822309C4205D100244D
:10580000254B083343F822400BE0234B083353F871
:10581000210053F8224043F8214043F8220000BF02
:1058200000BF521C082AD0DB491C0729CBDB002013
:10583000194B9862002109E01748083050F8210000
:1058400018B10120144B986202E0491C0829F3DBCF
:1058500000BF1148806A10BD02460F48806A08B92F
:105860000120704700210FE00B48083050F821005C
:1058700000B908E00848083050F82100904201D1F2
:105880000120EEE700BF491C0829EDDB0020E8E716
:10589000B401002044505446EC5100204413002031
:1058A00024100020D851002058130020B8010020F7
:1058B000BC010020C0010020AC01002002460829E4
:1058C00001DB00207047C84800EB421050F821006F
:1058D000F8E710B50346082901DB002010BD10468B
:1058E000C14C04EB431444F82120F7E70020BE4BE1
:1058F0002C3BC3F88C00002116E0002211E0BA48CE
:1059000000EB411050F8220050B1B7482C38D0F8C5
:105910008C0001238B401843B34B2C3BC3F88C0005
:10592000521C082AEBDB491C0329E6DBAE482C3865
:10593000D0F88C00704710B50346AB482C38D0F82F
:105940008C0008B9012010BD002122E0A6482C38A7
:10595000D0F88C0001248C40204000B918E00022CF
:1059600011E0A14800EB411050F8220000B909E015
:105970009D4800EB411050F822009C5CA04200D0F2
:1059800005E000BF521C082AEBDB0120DBE700BF6B
:10599000491C0329DADB0020D5E7002092492C3985
:1059A000896A09B140F001008F492C39D1F88C1077
:1059B00009B140F00200704710B500218B48FFF795
:1059C00025FE044604B910BD207B002800DC16E04B
:1059D0002068FFF741FF002805DC85480068401C6F
:1059E0008349086011E0201DFFF7A5FF002805DCB2
:1059F0007F480068401C7E49086006E000BF012225
:105A000021467C48FFF790FE00BF00217748FFF752
:105A1000E5FD00BFD7E77648006870477FB50546CB
:105A20000C4616460095E0B28DF80C002246314631
:105A300001A801F01DF9FDF731FB80B2ADF80E00B1
:105A4000012269466B48FFF76FFE7FBD674880689B
:105A50006649C86000200860664880686549C8607B
:105A6000002008606249086070476248C06870475B
:105A700010B56048FFF78EFD10BD38B505460C46E1
:105A800014B94FF0FF3038BD0020234602462946A6
:105A900000905848FFF7CEFD0020F4E75548006815
:105AA00070472DE9F04105460E4629465148FFF75B
:105AB000ADFD07461FB94FF0FF30BDE8F08100246F
:105AC00003E0381D005D3055641C082CF9DB012013
:105AD000F3E72DE9F04107460E4639464548FFF702
