:020000040800F2
:10700000301000209D71000895900008858F0008C1
:1070100091900008D575000899BA0008000000009A
:1070200000000000000000000000000015960008AD
:10703000358000080000000031910008A1B100086F
:10704000B7710008B7710008B7710008B771000880
:10705000B7710008B7710008B7710008B771000870
:10706000B7710008B7710008B7710008B771000860
:10707000B7710008B7710008B7710008B771000850
:10708000B7710008B7710008B7710008B771000840
:10709000D9750008E1750008B7710008B7710008DC
:1070A00089B20008A5B20008C1B20008B771000893
:1070B000FDB2000851B30008B7710008B7710008AD
:1070C000B7710008B7710008B7710008B771000800
:1070D000B771000875BA0008B7710008B7710008E9
:1070E000B7710008B7710008B771000829B200082D
:1070F00049B2000869B2000800000000000000006A
:107100000000000000000000B7710008B77100081F
:107110000000000000000000B7710008B77100080F
:10712000B7710008B7710008B7710008B77100089F
:10713000B7710008B7710008B7710008B77100088F
:10714000B77100080000000000000000000000000F
:10715000000000000000000000000000000000002F
:107160000000000000000000B7710008B7710008BF
:10717000B771000800000000DDB200080000000048
:1071800000000000B7710008DFF80CD000F018F81C
:107190000048004721C600083010002006488047FC
:1071A00006480047FEE7FEE7FEE7FEE7FEE7FEE7EC
:1071B000FEE7FEE7FEE7FEE7A9B1000889710008D7
:1071C000064C074D06E0E06840F0010394E8070034
:1071D00098471034AC42F6D3FFF7DAFF58C70008DF
:1071E00078C7000870B58C1810F8015B15F007031C
:1071F00001D110F8013B2A1106D110F8012B03E050
:1072000010F8016B01F8016B5B1EF9D12B0705D457
:107210000023521E0DD401F8013BFAE710F8013BA0
:10722000CB1A921C03E013F8015B01F8015B521EBC
:10723000F9D5A142D8D3002070BD000010B50024BC
:1072400014E00C4800EB0410037A601CC2B2094839
:1072500000EB04100179084800F06CF8074800EBD7
:107260004400044901EB0411C860641C052CE8D3F8
:1072700010BD000020000020002401402C0200204E
:1072800021B1826842F00102826003E0826822F04C
:1072900001028260704721B1826842F4807282608C
:1072A00003E0826822F480728260704710B5044661
:1072B0000121480201F08CFF00214FF4007001F021
:1072C00087FF10BD014600208A6802F004020AB15F
:1072D000012000E000207047014600208A6802F08B
:1072E00008020AB1012000E00020704730B50246D4
:1072F00000200023506820F480700C7840EA0420BD
:10730000506090680A4C2040D1E901542C434D78DC
:1073100044EA450420439060D06A20F470000C7B5E
:10732000641EE4B2234340EA0350D06230BD000043
:10733000FDF7F1FFF0B504460D4600200021092DB0
:1073400011DDE068A5F10A0606EB4607072606FAF6
:1073500007F18843A5F10A0606EB460603FA06F193
:107360000843E0600CE0206905EB4507072606FAB4
:1073700007F1884305EB450603FA06F1084320614F
:10738000072A0FDA606B561E06EB86071F2606FAE1
:1073900007F18843561E06EB860605FA06F10843F8
:1073A000606322E00D2A0FDA206BD61F06EB8607FA
:1073B0001F2606FA07F18843D61F06EB860605FA54
:1073C00006F10843206310E0E06AA2F10D0606EB27
:1073D00086071F2606FA07F18843A2F10D0606EB81
:1073E000860605FA06F10843E062F0BD816841F0C7
:1073F000080181607047816841F004018160704735
:10740000002101704170416081600121017370476A
:1074100030B10749096841F40001054A116005E0EF
:107420000349096821F40001014A11607047000016
:107430000824014000B591B04FF4804001F07AFE7D
:107440000121480401F084FE0C200B9003208DF8EC
:10745000300000208DF833000BA94FF0904001F070
:1074600040FC0121084601F073FE374800F008FD9A
:107470003648009036480190002002900520ADF873
:107480000C000020049080200590400006908000B1
:107490000790202008900002099000200A90694679
:1074A000294800F0A9FD0121274800F0DDFC012159
:1074B000480201F07DFE25484C38FFF7F7FE012118
:1074C00022484C38FFF7E7FE0DA8FFF799FF01208F
:1074D0008DF834008DF835004FF460200E900020B8
:1074E0000F9005208DF840000DA918484C38FFF783
:1074F000FDFEFFF7A3FE0120FFF78AFF012002F047
:107500008BF8012111484C38FFF7BAFE0F484C3870
:10751000FFF76CFF00BF0D484C38FFF7DDFE002879
:10752000F9D10A484C38FFF766FF00BF07484C38CE
:10753000FFF7C8FE0028F9D1012104484C38FFF7B5
:107540009FFE11B000BD0000080002404C24014025
:107550002C02002000B50648006840B105480168CB
:107560000348006804F0B8FA00200149086000BD33
:10757000F4010020F801002010B51348006800B1A4
:1075800010BD1248006800B1FAE711490F4804F035
:10759000FFFA04465CB10E4801680C48006801F02F
:1075A0006CFD0B4801680948006804F095FA002456
:1075B00044B10021204604F0ABFA18B9002120465E
:1075C00004F010FB00BFDBE700020020F401002004
:1075D000F801002000BFFEE710B504F0E5FF10BD84
:1075E0007047000010B58AB004460121480401F03C
:1075F000AFFD09220B21D00601F0BBFB09220C21B3
:10760000D00601F0B6FB4FF4C050089002208DF870
:10761000240003208DF8250000208DF8260001208D
:107620008DF8270008A94FF0904001F05AFB142074
:107630008DF81C0000208DF81D008DF81E00012023
:107640008DF81F0007A801F027FD0121480601F071
:107650008FFD254800F04CF804A800F0EAF900205E
:107660008DF816008DF817008DF818008DF81900A8
:107670008DF81A008DF81B008DF812008DF813009C
:1076800007208DF8140002208DF815000320ADF8B6
:10769000100004A9144800F0CAF800208DF80A0070
:1076A00001208DF80B008DF80C004FF6FF7000EAFA
:1076B0004410ADF800000020ADF80200ADF8040061
:1076C000ADF80600ADF8080001208DF80D00684601
:1076D00000F020F801220221034800F09FF800206A
:1076E000024908600AB010BD00640040700000202C
:1076F00010B504460648844208D10121480601F02D
:1077000047FD00214FF0007001F042FD10BD000068
:107710000064004010B50021837A012202FA03F1CF
:107720003D4A126842F001023B4B1A603A4A1C3251
:1077300012688A43384B1C331A60027BCAB9364A36
:107740000C3212688A43344B0C331A604288C38867
:1077500042EA0343304A4032847A42F834300288A5
:10776000838842EA03432C4A4032847A02EBC40203
:107770005360027B012A19D1274A0C3212680A434E
:10778000254B0C331A604288038842EA0343224A9D
:107790004032847A42F83430C288838842EA034314
:1077A0001D4A4032847A02EBC4025360C27A3AB96D
:1077B000194A121D12688A43174B1B1D1A6006E0F6
:1077C000154A121D12680A43134B1B1D1A600289C9
:1077D00032B9114A143212688A430F4B14331A60BB
:1077E0000289012A06D10C4A143212680A430A4B54
:1077F00014331A60427B012A06D1074A1C321268F0
:107800000A43054B1C331A60034A126822F0010236
:10781000014B1A6010BD0000006600401AB14369B8
:107820000B43436102E043698B434361704730B5CA
:10783000024600200023146824F002041460146837
:1078400044F00104146000E05B1C546804F001047F
:107850001CB94FF6FF74A342F6D1546804F001043A
:107860000CB900206CE08C79012C04D1146844F030
:107870008004146003E0146824F080041460CC7960
:10788000012C04D1146844F04004146003E014682F
:1078900024F0400414600C7A012C04D1146844F0E4
:1078A0002004146003E0146824F0200414604C7A6F
:1078B000012C04D1146844F01004146003E014682F
:1078C00024F0100414608C7A012C04D1146844F064
:1078D0000804146003E0146824F008041460CC7AEF
:1078E000012C04D1146844F00404146003E014680B
:1078F00024F0040414608C78A407CD7844EA05646D
:107900000D7944EA05444D7944EA05540D886D1E0D
:107910002C43D461146824F001041460002300E0B7
:107920005B1C546804F001041CB14FF6FF74A342C1
:10793000F6D1546804F001040CB1002000E00120ED
:1079400030BD10B500F5D87303EB01131B6803F0CD
:1079500004031372137A53B900F5D87303EB0113C0
:107960001B6840F2FF7404EA5353136009E000F50A
:10797000D87303EB01131B686FF0604404EAD30370
:10798000536000F5D87303EB01131B6803F0020387
:10799000537200F5D87303EB01135B6803F00F0318
:1079A000937200F5D87303EB01135B681B0AD37461
:1079B00000F5D87303EB01139B68D37200F5D873FD
:1079C00003EB01139B681C0A147300F5D87303EBD7
:1079D00001139B681C0C547300F5D87303EB01135F
:1079E0009B681B0E937300F5D87303EB0113DB68E0
:1079F000D37300F5D87303EB0113DB681C0A14740E
:107A000000F5D87303EB0113DB681C0C547400F50C
:107A1000D87303EB0113DB681B0E937421B9C368A1
:107A200043F02003C36003E0036943F020030361D4
:107A300010BD00218171C171017241728172C172E8
:107A40008170C17003210171022141710121018006
:107A5000704710B502460020936803F08063B3F1CD
:107A6000806F00D110E0936803F00063B3F1006F02
:107A700001D1012008E0936803F08053B3F1805FE7
:107A800001D1022000E00420042874D002F5C07364
:107A900003EB00131B6803F0010402F5C07303EB52
:107AA00000131C600B7A7BB94B7A0C8843EA445371
:107AB00002F5C07404EB00142468234302F5C0747B
:107AC00004EB0014236010E00B7A4C6843EAC40313
:107AD0004C7A234302F5C07404EB0014246823435A
:107AE00002F5C07404EB001423608B7A03F00F03DB
:107AF0008B7202F5C07303EB00135B6823F00F0475
:107B000002F5C07303EB00135C6002F5C07303EB76
:107B100000135B688C7A234302F5C07404EB0014F5
:107B200063608B7B1C064B7B44EA03440B7B44EA7B
:107B30000323CC7A234302F5C07404EB0014A36042
:107B40008B7C1C064B7C44EA03440B7C44EA0323F5
:107B5000CC7B234302F5C07404EB0014E36002F510
:107B6000C07303EB00131B6843F0010402F5C073FC
:107B700003EB00131C6010BD2DE9F04701F01CFA67
:107B8000044604B9D9E06588A788B4F8068020883F
:107B9000402877D010DC092875D006DC02281AD0DE
:107BA00003281BD007286FD1AEE01E284BD0302809
:107BB0006BD03A28F7D1ADE0FD2853D006DC73280E
:107BC0000FD0742817D07528EDD129E0FE286FD08A
:107BD000FF28E8D141E004F0FCF8ACE004F0F4F850
:107BE000A9E001F0A1F900B1A5E0E288A1886088D0
:107BF00000F050FF9FE001F097F900B19BE0A088F2
:107C0000002806DD608802F02DFC824601F02EFA85
:107C100005E0608802F038FC824601F027FA8AE02D
:107C200001F082F900B186E0E088002804DDA18837
:107C3000608802F037FF05E0227902F003016088D6
:107C400002F043FF77E001F06FF900B973E0A94655
:107C50003946284600F074FC6DE03946284600F0AD
:107C600061FC68E00F2D4CD2DFE805F00810151913
:107C70001E23272B2F33373B3F434700384600F066
:107C8000D9FC3FE04CE048E054E04CE04146384647
:107C900000F0E8FD36E0384600F02CFD32E04146C9
:107CA000384600F0B5FE2DE0384600F0C5FD29E06D
:107CB0003CE0384600F0B4FD24E0384600F066FDB4
:107CC00020E0384602F080FB1CE0384602F092FBD0
:107CD00018E0384600F0D4FE14E0384600F088FD85
:107CE00010E0384600F0C2FE0CE0384602F038FBE7
:107CF00008E0384602F04EFB04E0384601F000FD93
:107D000000E000BF00BF16E0002600E0761C042E55
:107D1000FCD310E003F0B0FE0DE000F0ADFC0AE093
:107D200000F050FD07E000F015FD04E0E8B200F0BF
:107D3000B5FC00BF00BF00BF00BFFFF70BFCBDE8F4
:107D4000F08710B52AB1036801248C4023430360F7
:107D500004E0036801248C40A343036010BD0000CD
:107D600000B587B00121480401F0F2F903208DF835
:107D7000080000208DF80B001020019001A94FF0A1
:107D8000904000F0AEFF0121480701F0F1F93C20DE
:107D90000390002004904FF400700590022006909C
:107DA00003AA0021044800F009F80122002102483A
:107DB000FFF7C7FF07B000BD0074004070B5002397
:107DC0000024036840F6FE758D40AB43D2E90056AF
:107DD000354396683543D66845EA060404FA01F54A
:107DE0002B43036070BD18B500230093009001F190
:107DF0000803009C23440093009B1A6018BD0000F8
:107E000070B50446C4EB043040F6E44190FBF1F554
:107E1000AAB200210448FFF7E6FF01220021024830
:107E200000F004F870BD00000074004030B532B1BD
:107E300043680D090124AC402343436005E04368D7
:107E40000D090124AC40A343436030BD00F08051D4
:107E500011B10349086001E0024948607047000021
:107E6000040402400000024021B1026842F0010215
:107E7000026004E002684FF6FE731A400260704729
:107E800001684FF6FE7211400160002101604160FF
:107E90008160C1604B49884208D14A490839496824
:107EA00041F00F01474A083A51608AE045491431D0
:107EB000884208D143490839496841F0F001414AF4
:107EC000083A51607DE03F492831884208D13D4958
:107ED0000839496841F470613A4A083A516070E0E3
:107EE00038493C31884208D136490839496841F45B
:107EF0007041344A083A516063E032495031884257
:107F000008D130490839496841F470212D4A083AAE
:107F1000516056E02B496431884208D1294908391B
:107F2000496841F47001274A083A516049E02549FF
:107F30007831884208D123490839496841F0706195
:107F4000204A083A51603CE01F49884206D1011F8F
:107F5000096841F00F01021F116032E01A49143123
:107F6000884208D11849091F096841F0F001164AF2
:107F7000121F116025E014492831884208D11249A6
:107F8000091F096841F470610F4A121F116018E05F
:107F90000D493C31884208D10B49091F096841F459
:107FA0007041094A121F11600BE0074950318842A5
:107FB00007D10549091F096841F47021024A121FBF
:107FC000116070470800024008040240014600208A
:107FD000002201F0805313B1054B1A6801E0054BF4
:107FE0001A6802EA01030BB1012000E0002070478B
:107FF000000402400000024010B50022026847F66B
:10800000F0739A430C6A8B6823430C6923434C69D1
:1080100023438C692343CC6923434C6A23438C6AF2
:1080200023431A4302608B8943600B6883604B686B
:10803000C36010BD7047000001B504490098086096
:1080400000BF024800680028FBD108BD00000020E6
:108050000346062106221248018812480288ABB165
:10806000012B1BD13AB94EF6EE60814201D10020BE
:1080700070470120FCE739B94EF6EE60824201D12B
:108080000120F5E70020F3E7AB20F1E709B9002074
:10809000EEE70AB90120EBE7AB20E9E70020E7E7CC
:1080A000006000080068000810B504240B4800F0C8
:1080B00073FD0446042C01D0204610BD0021074862
:1080C00000F0BCFD0446042C01D02046F5E704482E
:1080D00000F062FD04462046EFE700000060000863
:1080E000006800082DE9F05F4FF0060B062600251A
:1080F000A846A9464FF0FF3A002705E0781D7949C8
:1081000021F81700781C87B2642FF7DB7648B0F8A7
:1081100000B0764806885FEA0B0076D0A0F56E4086
:10812000EE3858B3A0F58850113800286ED146B902
:108130006D4800F031FD0446042C1ED02046BDE8F9
:10814000F09F4EF6EE60864210D1674800F024FDA5
:108150000446042C01D02046F1E70021634800F0DA
:108160006DFD0446042C08D02046E8E7FFF79CFF8D
:108170000446042C01D02046E1E7B0E086BB002590
:1081800023E05948C088574931F81510884201D179
:108190000FFA85FA554516D0524931F81500544961
:1081A00000F022F98146B9F1010F0CD04D4931F8A8
:1081B00015004F49098800F049F98046B8F1040FCD
:1081C00001D04046BBE7681C85B2642DD9DB002195
:1081D000454800F033FD0446042C02D02046AEE7AB
:1081E00007E0424800F0D8FC0446042C1FD020468B
:1081F000A5E74FF6FF70864212D13C4800F0CCFC58
:108200000446042C03D0204699E711E05FE00021EA
:10821000354800F013FD0446042C08D020468EE7B4
:10822000FFF742FF0446042C01D0204687E756E0C2
:1082300036B9FFF739FF0446042C47D020467EE7C5
:108240004FF6FF70864207D1284800F0A5FC04468F
:10825000042C3BD0204672E7002524E02348801DF3
:108260000088204931F81510884201D10FFA85FAAB
:10827000554516D01B4931F815001D4900F0B4F8DA
:108280008146B9F1010F0CD0164931F81500184993
:10829000098800F0DBF88046B8F1040F01D04046B1
:1082A0004DE7681C85B2642DD8DB00210F4800F033
:1082B000C5FC0446042C01D0204640E70A4800F0E3
:1082C0006BFC0446042C01D0204638E707E0FFF79A
:1082D000EBFE0446042C01D0204630E700BF00BF6F
:1082E00004202CE7640B00200060000800680008F0
:1082F000040200202DE9F84F074689460425DFF8DF
:10830000D0A0344800904FF00008002400264FF021
:10831000000B0020FFF79CFE8046B8F1010F04D14E
:10832000DFF8B4A02D4800900AE0B8F1000F04D1A6
:10833000DFF8A8A02848009002E0AB20BDE8F88F45
:108340004EF6EE61504600F079FC0546042D01D052
:108350002846F3E74946384600F078F80646042EEA
:1083600001D03046EAE700241CE01D4830F8140034
:10837000B84215D01A4931F814001A4900F034F8FF
:108380008346BBF1010F0BD0154931F81400154994
:10839000098800F05BF80646042E01D03046CDE790
:1083A000601C84B2642CE0DB009800F0F5FB05460D
:1083B000042D01D02846C1E70021504600F03EFCC4
:1083C0000546042D01D02846B8E72846B6E7000048
:1083D000FF030108000001080060000800680008B1
:1083E000640B0020040200202DE9F04706460F46EA
:1083F000002445F255584FF00109124DAA460020BD
:10840000FFF726FE0446AB2C01D1BDE8F0870E48ED
:1084100000EBC42A601C0C49891E01EBC0250AE050
:10842000B5F80080B04505D135F8020C38804FF022
:10843000040904E02D1F0AF102008542F0D800BFB4
:108440004846E2E700000108006000082DE9F04717
:108450000646884604270025154CDFF85890012071
:10846000FFF7F6FD0546AB2D01D1BDE8F0871248B8
:1084700000EBC524681C1049891E01EBC02913E0DC
:108480002068401C78B94146204600F0D7FB0746DB
:10849000042F01D03846E8E73146A01C00F0CEFB9F
:1084A00007463846E1E7241D4C45E9D38020DCE748
:1084B00000000108FF070108006000082DE9F041F5
:1084C00005460F461646A819642802DDAF20BDE810
:1084D000F08100240DE037F814102A19074B33F807
:1084E000120000F00DF8042802D04FF0FF30EEE744
:1084F000641CB442EFDB0020E9E70000640B0020BD
:1085000070B505460E46002431462846FFF79EFF0B
:108510000446802C04D131462846FFF7EBFE044682
:10852000204670BD70B504460D46082C01DB304670
:1085300070BD2946204602F0E9FC00BFF8E70000C4
:108540002DE9F047804689464446182C01DA282C4C
:1085500066DA183C33480088B0EB241F60D104F081
:108560000F046610304807881FFA89F020B10120F7
:10857000A040384387B202E00120A04087432A4848
:10858000008887424CD028480780700047FA00F0E6
:1085900000F0030434B1012C07D0022C0FD0032CBF
:1085A00019D116E04FF4C87516E0032E04DD1F48FC
:1085B0000068C0F5487501E01C4805680CE0032E12
:1085C00002DD1A48056803E018480068C0F54875E0
:1085D00002E0002500E000BF00BF06EBC60000EB94
:1085E0004610134901EB8000C06F01280CD13046C2
:1085F00001F092FD06EBC60000EB46100C4901EBC2
:108600008000C0F884500BE000F08EFC08B101201F
:1086100000E000208246524629B2304602F062FB5A
:10862000BDE8F087040000200A00002014000020AC
:10863000740200201FB504460020009001900290B3
:108640000390E1B20A480088103081420FD10948F6
:108650000088009006480088103000020190002039
:108660000290039002226946012003F0EDFA1FBD3B
:10867000040000200A0000201FB500200090019097
:108680000290039004480088009001226946104639
:1086900003F0DAFA1FBD00000A0000207FB505468E
:1086A00000200090019002900390012D04D0022D33
:1086B00005D0032D0AD105E00C48046807E00C48FA
:1086C000046804E003F070FD044600E07FBD00BFD5
:1086D000A0B200904FF6FF7000EA14400190022211
:1086E0006946012003F0B0FA00BFEFE70C0000205C
:1086F000100000207FB504460020009001900290F9
:108700000390E1B211480088103081421BD1C4F3BC
:1087100007250F2D00DD7FBD681000EBC00101EBC8
:1087200040100B4901EB8000D0F8980000900748FA
:108730000088103045EA002001900222694601209D
:1087400003F082FA00BF00BFE5E70000040000204C
:10875000740200201FB50020009001900290039049
:10876000084800884FF4847141EA003006490968DE
:1087700040EA0110009001226946104603F064FAB5
:108780001FBD000004000020B40000201FB50446F7
:1087900000200090019002900390E1B20848008808
:1087A000103081420BD1064800884FF4847141EAB1
:1087B0000030009001226946104603F045FA1FBDC3
:1087C000040000201FB5002000900190029003904B
:1087D00000F0AAFB18B148F63000009002E048F61D
:1087E0004000009001226946104603F02DFA1FBD9B
:1087F0001FB5044600200090019002900390E1B262
:10880000064800881030814207D103F0D9FC00905F
:1088100001226946104603F017FA1FBD040000202C
:1088200070B50546002404E0204601F075FC601C8C
:1088300084B2082CF8DB70BD70B50446E1B208487C
:1088400000881030814208D1C4F307250F2D00DDC8
:1088500070BD681001F060FC00BF00BFF8E70000C9
:10886000040000202DE9F04105460E46E9B26448B7
:108870000088103081427DD162490E800024B9E029
:10888000610060480088084100F0030737B1012FFC
:108890001ED0022F56D0032F19D18FE04FF4C8708D
:1088A00003F02CFF00B204EBC40101EB4411564A63
:1088B00022F821004FF4C87003F020FF00B204EB4F
:1088C000C40101EB4411504A02EB8101488085E06C
:1088D000032C1DDD4D490968C1F5487003F00EFFFA
:1088E00000B204EBC40101EB4411474A22F8210015
:1088F00046490968C1F5487003F000FF00B204EB77
:10890000C40101EB4411404A02EB8101488018E0A8
:108910003E48006803F0F2FE00B204EBC40101EB34
:108920004411394A22F821003848006803F0E6FE75
:1089300000B204EBC40101EB4411334A02EB8101A4
:1089400048804BE0032C1BDD3048006803F0D6FE66
:1089500000B204EBC40101EB44112B4A22F82100C0
:108960002A48006803F0CAFE00B204EBC40101EB20
:10897000441100E042E0244A02EB810148801CE0FF
:1089800022490968C1F5487003F0B8FE00B204EB53
:10899000C40101EB44111C4A22F821001B4909685B
:1089A000C1F5487003F0AAFE00B204EBC40101EB6C
:1089B0004411154A02EB810148800FE0002004EBCE
:1089C000C40101EB4411104A22F8210004EBC40158
:1089D00001EB441102EB8101488000BF00BF002081
:1089E00004EBC40101EB4411074A02EB8101C867A3
:1089F000601C84B2082CFFF643AF00BFBDE8F081D5
:108A0000040000200A00002074020020140000204E
:108A100010B5C3B20B4A1288103293420FD1C0F383
:108A200007220F2A00DD10BD531003EBC30404EB33
:108A30004313054C04EB8303C3F8981000BF00BF39
:108A4000F1E7000004000020740200207FB5054615
:108A50000C46002000900190029003900095019434
:108A600002226946012003F0EFF87FBD70B504468D
:108A7000E0000A21B0FBF1F52846FFF7C1F970BD0F
:108A8000002804DDB0F5C87F01DA014908607047AD
:108A9000140000202DE9F05F8346884691464FF090
:108AA000000ABBF1040F01D3BDE8F09F584600F067
:108AB00047FA04462746082F00D3F5E709F00306D6
:108AC000344840F8246050F824004FEA800A09F442
:108AD000004060BB08F003062E4840F8246050F8C0
:108AE00024004FEA800A08F0030070B1012804D086
:108AF000022805D0032810D105E06FF0C7050DE06E
:108B00004FF4E6750AE0002508E00320214941F80A
:108B10002400384601F000FBC6E700BF00BF4AF062
:108B2000030A52462946384601F0FCFF30E00FFAAE
:108B300088F500F0FFF990B9142D04DC02201549E6
:108B400041F8240018E0142D04DB0120114941F8FC
:108B5000240011E000200F4941F824000CE015F139
:108B6000320F01DA012604E0322D01DD022600E099
:108B70000326084840F82460064850F824004FEACD
:108B8000800A4AF0030A52462946384601F0CAFFD5
:108B900000BF89E7B407002030B5044604254FF430
:108BA000302000F08BF80546042D16D10C480069E2
:108BB00040F002000A49086108464461006940F03B
:108BC000400008614FF4302000F078F80546044872
:108BD000006920F0020002490861284630BD00000B
:108BE0000020024004200B49C96801F0010109B1CD
:108BF00001200EE00749C96801F0100109B1022007
:108C000007E00449C96801F0040109B1032000E04C
:108C1000042070470020024030B10749096841F044
:108C20001001054A116005E00349096821F01001AF
:108C3000014A1160704700000020024070B50446F0
:108C40000D4604264FF4302000F038F80646042E76
:108C500011D10A48006940F00100084908612580E7
:108C60004FF4302000F02AF806460448006920F04E
:108C7000010002490861304670BD0000002002403A
:108C800001460020034A106820F0030008431060EA
:108C900070470000002002400548006900F0800095
:108CA00020B104480249486003484860704700000A
:108CB0000020024023016745AB89EFCD00B5024695
:108CC0000423FFF78FFF034603E0FFF78BFF034604
:108CD000521E012B01D1002AF7D102B905231846F3
:108CE00000BDF0B50A4600210023002400BF3DE08E
:108CF000012505FA01F3156805EA03049C4234D105
:108D00001579012D02D01579022D16D185684F00F5
:108D10000326BE40B543856055794E00B540866850
:108D200035438560868801258D40AE4386808688E0
:108D300095798D40ADB22E43868005684F0003269D
:108D4000BE40B543056015794E00B5400668354311
:108D50000560C5684F000326BE40B543C560D579A0
:108D60004E00B540C6683543C560491C1029BFD3C5
:108D7000F0BDF0B5002300244D07ED0E02FA05F317
:108D8000CE1000F1200555F826504E07F70E0F269D
:108D9000BE40B543CF1000F1200646F82750CE1054
:108DA00000F1200555F8265045EA0304CE1000F1E5
:108DB000200545F82640F0BD0146088A70470AB1F3
:108DC000816100E0018570471CB54FF4602444F4D4
:108DD000E0040121204600F0BBF9022400940020A9
:108DE0008DF804008DF8060003208DF805000020A2
:108DF0008DF8070069464FF09040FFF772FF0F248F
:108E000044F4707444F46044009400208DF804002D
:108E10008DF8060003208DF8050000208DF807006E
:108E200069463C48FFF75DFF48F2F11400940120C9
:108E30008DF8040000208DF8060003208DF8050051
:108E400000208DF8070069464FF09040FFF749FF7A
:108E50000F2444F0F00444F44344009401208DF8BE
:108E6000040000208DF8060003208DF80500002086
:108E70008DF8070069462848FFF733FF41F6304474
:108E8000009401208DF8040000208DF806000320D6
:108E90008DF8050000208DF8070069461D48FFF792
:108EA00020FF4FF48270009001208DF80400002014
:108EB0008DF8060003208DF8050000208DF80700CE
:108EC00069461648FFF70DFF4FF4407000900120EF
:108ED0008DF8040000208DF8060003208DF80500B1
:108EE00000208DF8070069460D48FFF7FAFEC02004
:108EF000009001208DF8040000208DF8060003206A
:108F00008DF8050001208DF8070069460548FFF738
:108F1000E8FE1CBD0008004800040048000C0048A2
:108F20000010004800140048014800887047000005
:108F3000060000200148008870470000080000205B
:108F40000146082901D308207047024850F8210043
:108F5000FAE70000A401002002460021082A01D3FC
:108F600008207047002107E0054850F82100904292
:108F700001D10846F5E7491C0829F5DB0820F0E790
:108F8000A401002000BFFEE70449086850300449EE
:108F90000968401A502800DB50387047E80100206B
:108FA000E40100200020024908600249086070477F
:108FB000E8010020E401002000B5FFF7E5FF0028EC
:108FC00011DD0A4801680068401C084A106010461C
:108FD0000068502803D310460068503810600448D9
:108FE00000EBC10000BD0020FCE70000E401002010
:108FF000F40700202DE9F04104460D4616461F46B1
:10900000FFF7C2FF4F2807DB0021BA2002F0EAFD7C
:109010004FF0FF30BDE8F08112481349096820F88D
:1090200031401149096800EBC10045800D480E49E7
:10903000096800EBC10086800A480B49096800EB0B
:10904000C100C78008480068401C074908600846FE
:109050000068502803D30846006850380860002094
:10906000D8E70000F4070020E801002001B5012244
:109070006946104602F0E8FD08BD7CB505460C4681
:109080000095019402226946002002F0DDFD7CBDBE
:1090900000BFFEE77047000070B5002100230F22DB
:1090A000C47804B3154C246804F4E064C4F5E064A7
:1090B000210AC1F10403CA40447804FA03F1847818
:1090C0001440214309010E4C0678A155047804F0A0
:1090D0001F050124AC4005786D11AD0005F1E025B8
:1090E000C5F8004109E0047804F01F050124AC40F4
:1090F000044D0678761145F8264070BD0CED00E071
:1091000000E400E080E100E002490143024A11600E
:10911000704700000000FA050CED00E0024A0A402A
:109120000243024B1A60704780FFFF1F08ED00E00A
:10913000704700000549496821F44041034A5160E5
:109140001146496801435160704700000010024019
:1091500029B1064A52690243044B5A6104E0034AAA
:1091600052698243014B5A6170470000001002406F
:1091700029B1064AD2690243044BDA6104E0034A8A
:10918000D2698243014BDA6170470000001002404F
:1091900029B1064A12690243044B1A6104E0034AEA
:1091A00012698243014B1A617047000000100240AF
:1091B00029B1064A92690243044B9A6104E0034ACA
:1091C00092698243014B9A6170470000001002408F
:1091D00029B1064AD2680243044BDA6004E0034A2C
:1091E000D2688243014BDA607047000000100240F1
:1091F00010B500F031F8012000F098F900F0D8F92E
:109200000446012C26D11020FFF706FD0220FFF7AF
:1092100037FD002000F07EF9002000F09BF9A0024D
:1092200000F08CF94FF4E011200400F0A5F90120C2
:1092300000F09CF900BF192000F046F90028FAD090
:10924000022000F0A9F900BF00F05CF90221B1EBA7
:10925000A00FF9D110BD00001448006840F00100D3
:10926000124908600846406800F47F0048600846DC
:1092700000680F4908400D4908600846006820F45E
:10928000802008600846406820F4FE0048600846D8
:10929000C06A20F00F00C8620846006B054908400C
:1092A00002490863002088607047000000100240F7
:1092B000FFFFF6FE8C0FFF0F70B500210023002486
:1092C000002500227A4E766806F00C0121B10429AF
:1092D00005D0082921D105E0764E066020E0754EC4
:1092E00006601DE0724E766806F47013704E766864
:1092F00006F48034022606EB93431CB96E4E5E439F
:10930000066009E06A4EF66A06F00F06751C694EA3
:10931000B6FBF5F65E43066002E0664E066000BFEF
:1093200000BF634E766806F0F0010909634E725C77
:109330000668D64046605E4E766806F4E061090A2B
:109340005E4E725C4668D6408660594E766806F47A
:109350006051C90A594E725C4668D640C660544E88
:10936000766806F44041890B554E725CC668B6FBC0
:10937000F2F606614E4E766806F07841C1F3C3619D
:10938000504E725C0668B6FBF2F64661484E366B8C
:1093900006F04006402E03D048F21206866102E035
:1093A0004FF400468661424E366B06F01006102ED2
:1093B00002D0404EC66101E00668C6613C4E366B85
:1093C00006F02006202E02D03A4E066201E0066822
:1093D0000662374E366B06F0030616B9C66846625B
:1093E00019E0334E366B06F00306012E02D10668F3
:1093F000466210E02E4E366B06F00306022E02D1B6
:10940000B603466207E02A4E366B06F00306032ECB
:1094100001D1284E4662264E366B06F4403616B908
:10942000866886621DE0224E366B06F44036B6F53D
:10943000803F02D10668866213E01D4E366B06F44B
:109440004036B6F5003F03D14FF40046866208E08F
:10945000174E366B06F44036B6F5403F01D1154E37
:109460008662134E366B06F4402616B98668C662CD
:109470001DE00F4E366B06F44026B6F5802F02D164
:109480000668C66213E00A4E366B06F44026B6F54F
:10949000002F03D14FF40046C66208E0044E366B3D
:1094A00006F44026B6F5402F01D1024EC66270BDCB
:1094B0000010024000127A0000093D000602002060
:1094C000160200201A02002010B5014600220023D7
:1094D00000204A1112B90A4C236806E0012A02D181
:1094E000074C236A01E0064C636A01F01F02012465
:1094F00094401C400CB1012000E0002010BD000091
:10950000001002400248406800F00C007047000064
:109510000010024001460020034A506820F0F0008D
:109520000843506070470000001002400021024ACA
:10953000917011468870704700100240014600206B
:10954000034A506820F4E060084350607047000010
:109550000010024001460020034A506820F4605089
:1095600040EAC1005060704700100240014908669F
:109570007047000000004242064A526822F474120A
:10958000044B5A601A46526840EA01031A43014BE1
:109590005A6070470010024001460020034A50689C
:1095A00020F00300084350607047000000100240A4
:1095B00038B5002000900024002500BF1120FFF7DF
:1095C00083FF05460098401C00900098B0F5A06FFE
:1095D00001D0002DF2D01120FFF776FF08B1012451
:1095E00000E00024204638BD00BFBFF34F8F07487E
:1095F000006800F4E06006490843001D0349086064
:10960000BFF34F8F00BF00BFFEE700000CED00E08E
:109610000000FA057047000030B10749096841F0C1
:109620008071054A116005E00349096821F08071E5
:10963000014A116070470000000001400CB5002095
:10964000019000902C48006840F480302A4908605E
:1096500000BF2948006800F4003000900198401CC9
:109660000190009818B90198B0F5A06FF1D1224887
:10967000006800F4003010B10120009001E00020EB
:1096800000900098012836D112201C4908601A4821
:109690004068194948600846406848600846406884
:1096A00040F4806048600846406820F47C104860C0
:1096B0000846406840F4E81048600846006840F0FA
:1096C0008070086000BF0C48006800F0007000283F
:1096D000F9D00948406820F003000749486008466F
:1096E000406840F00200486000BF0348406800F056
:1096F0000C000828F9D10CBD0010024000200240E7
:109700000146014801607047C000002010B50446C2
:1097100034B1012C12D0022C1DD0032C36D128E0FC
:10972000012211464FF09040FFF749FB00224FF411
:1097300080714FF09040FFF742FB27E00122114675
:109740004FF09040FFF73BFB012211024FF0904099
:10975000FFF735FB1AE0002201214FF09040FFF7A0
:109760002EFB00224FF480714FF09040FFF727FB53
:109770000CE0002201214FF09040FFF720FB012276
:1097800011024FF09040FFF71AFB00BF00BF10BD61
:1097900070B50546082D01D3002070BD05EBC5004E
:1097A00000EB45100A4901EB8006B6F90040002C99
:1097B00008DA604204B2204602F0A6FF04B260421A
:1097C00004B203E0204602F09FFF04B22046E4E723
:1097D0007402002070B501F027FCFFF7A5FB18B15B
:1097E00002208949086002E00220874908601420AD
:1097F00086490860082086490860FF20854908607E
:10980000FFF792FB40B1FFF795FB28B10420804998
:1098100008600F207F49086000258BE005EBC5003C
:1098200000EB45107C4901EB80040020E062012040
:10983000A061284602F0DEFE00282FD000206065DF
:109840002065E064E0652080E566744850F82500F6
:1098500020670DB1022D0ED1FFF766FB10B101207C
:10986000A06116E0FFF766FB10B90020A06110E0D0
:109870000120A0610DE0FFF757FB10B10120A061AE
:1098800007E0FFF757FB10B90020A06101E00120BD
:10989000A061FFF74FFB08B900206067FFF744FBAA
:1098A00048B1284602F0F4FB10B10020208019E0F6
:1098B0006420208016E0FFF73DFB48B9284602F0FF
:1098C000E7FB10B1002020800CE06420208009E03C
:1098D000D4E91B0102F0F8FB10B10020208001E068
:1098E00064202080243434F8240C24F8220C002036
:1098F0006065E0650120A065002020662067A06704
:10990000E067243CFFF710FB30B11420C4F8980046
:109910004FF46170A06005E01420C4F898004FF483
:109920004870A0600020E061206120626064606097
:10993000E0636D1C082DFFF471AF45F255503849B6
:10994000086000203749086037490860FFF7ECFAE3
:1099500098B12D48016840F23C600841B438334961
:109960000860294801684FF447700841B43830490D
:1099700008605A202F49086008E085202B490860BC
:1099800032202B49086064202A49086000202A49B7
:10999000086004202949086007202949086032200E
:1099A000284908603C20284908604FF6FF70274985
:1099B000086000202649086026490860002504E068
:1099C0003220254941F825006D1C082DF8D30220CE
:1099D00022490860FFF7A8FA18B10820204908605A
:1099E00002E008201E490860002507E000201D490C
:1099F00041F825001C4941F825006D1C18480068F5
:109A00008542F3D370BD0000B4000020C0000020E8
:109A1000A4000020A800002074020020C40100203F
:109A2000B000002080000020B8000020840000204A
:109A3000880000208C00002090000020CC00002036
:109A4000D0000020D4000020D8000020AC0000206E
:109A5000C4000020BC00002094070020E00000208B
:109A6000DC000020B4070020D40700202DE9FC5FB3
:109A700005460026B046082D01D3BDE8FC9F05EB46
:109A8000C50000EB4510FB4901EB8004E06A08B11A
:109A9000606828B90020E062284602F0B3FAC7E205
:109AA000E06B20B10021284602F09EFAB9E2A06ADC
:109AB00050B90120A0620121284602F00DFA0021D0
:109AC000284602F091FAACE2EB48006801900020D1
:109AD000A0620021284602F0FFF9FFF72BFA20B917
:109AE000284602F0D5FA064604E0D4E91B0102F04C
:109AF000EBFA0646606A20B12088401C00B2208044
:109B000003E02088401E00B220806068401E606034
:109B1000206B03287CD005DC58B1012879D00228BD
:109B200078D1C4E1042876D0072809D04728F7D196
:109B300098E0E06A022802D10020606078E2F0E15B
:109B400060680A2802D8CD48006860613EB3D4F846
:109B50008000002822D0D4F8940098B964273846B1
:109B600002F0C4FD07466760606A18B1784200B22F
:109B7000208001E038B220805A2002F0B7FD381A68
:109B8000A06700BFA16F6068884202D24FF006084C
:109B900022E2D4F89400401CC4F8940061E0D4F8A8
:109BA0008000002856D0D4F89400D8B12034606FDB
:109BB000E0672846E16FFEF749FF00206067142741
:109BC000384602F093FD074644F81C7C0020A0654F
:109BD0006068203C18B1784200B2208001E038B2C1
:109BE000208000BF6068A8BBD4E92610401A00F1AD
:109BF0001407384602F07AFD074667600020A06728
:109C000028466168FEF722FF606A28B9012004E057
:109C100061E13BE084E18BE000206062984850F80D
:109C20002500E063606A38B1784200B2208028469F
:109C3000A16902F05FF80AE038B22080A06908B993
:109C4000012000E000200146284602F053F847209A
:109C5000206300BFA16F6068884202D24FF0040801
:109C6000BAE15EE1D4F8800078B176B12434D4E969
:109C70001D10401A54F8201C401AE0670020E060D4
:109C8000E16F243C2846FEF7E1FE4AE160680A28BD
:109C900002D87A4800686061606808B900202063D3
:109CA0007EB3D4F88000C8B1D4F8940080B9D4F859
:109CB0009800071D384602F019FD07466760606A84
:109CC00018B1784200B2208001E038B2208000BF95
:109CD000D4F89400401CC4F8940028E06948076850
:109CE000FFF722F910B1D4F898004708384602F07F
:109CF000FDFC07466760606A20B1784200B22080B0
:109D000002E004E038B22080002020630FE0D4F8A5
:109D1000800028B1D4F8940010B14FF006085BE140
:109D2000A16F6068884202D24FF0040854E1F8E065
:109D300060680A2802D8514800686061606858B9B4
:109D400056B9E06D00B147E1E06D401CE0654FF4AD
:109D5000617002F0CBFC6060002E73D04FF0000BFE
:109D6000464800686061E06D20B12846E16DFEF76D
:109D70006DFE03E028466168FEF768FE606A40B940
:109D8000D4F89870384602F0B1FC074638B220800B
:109D90000CE0D4E92610401AD4F8A010471A38462F
:109DA00002F0A4FC0746784200B22080E06D70B15A
:109DB000E06D384434490968884202D24FF0000807
:109DC0001CE04FF00708E06D00EB070B16E0616840
:109DD000C81B2D490968884203DB4FF008088346F9
:109DE0000BE0294909684942814204DB4FF0090828
:109DF000C0F1000B01E04FF0000800BFB8F1000F08
:109E000017D0FFF791F830B1082D02D205F1D50037
:109E100007E0002005E0082D02D205F1A40000E0D3
:109E200000204146009001F0DDFE59462846FEF72D
:109E30000DFE676028466168FEF708FE002020637B
:109E400034E0FFE7E06D10B1E06D401CE0650E49C5
:109E5000E06D0968884229D34FF00A08B8F1000F75
:109E600024D0FFF761F898B1082D0FD205F1D50085
:109E700014E0000074020020D400002084000020C0
:109E800094070020CC000020C0000020002005E046
:109E9000082D02D205F1A40000E00020074641464B
:109EA00001F0A0FE2846E16DFEF7D0FD39E056B97D
:109EB0001427384602F01AFC07466760002020800D
:109EC0000320206306E0A16F6068884202D24FF051
:109ED000050881E025E0606808BBC827384602F025
:109EE00005FC074667608548006860610020E06007
:109EF00060636062282002F0F9FB381AA06780488E
:109F000050F82500E063A06908B9012000E00020B6
:109F10000146284601F0EEFE0720206300BF00E066
:109F200000BF00BF6068B0B37649E06851F8209088
:109F3000606B20B1012817D0022823D11CE0E06813
:109F4000401CE060A16BE068884205D3A06BE06034
:109F5000606B401C606306E0A16B6068884202D2BF
:109F6000606B401C60630EE0A16B6068884202D2A7
:109F7000606B401C606306E0E06810B1E068401E62
:109F8000E06000E000BF00BF6069814449462846A8
:109F900002F02AF844E0FFE75B4800685B49096883
:109FA00000EB010A504602F0A1FB82461EB1B4F953
:109FB0000000504504DC76B9B4F9000000280ADC42
:109FC00014202062206A0F3020624FF000082088A1
:109FD00060800020E06100BF0020E062284602F0BF
:109FE00011F80021284601F0FBFEB8F1000F16D051
:109FF000FEF79AFF30B1082D02D205F1D50007E037
:10A00000002005E0082D02D205F1A40000E00020A8
:10A010000746414601F0E6FD00202080608007E011
:10A0200000BF3B4850F82510284601F055FE00BF00
:10A030006068E8BB206BE8B1206B022802D0206B7F
:10A04000012816D1FEF770FF30B1082D02D205F1BC
:10A05000D50007E0002005E0082D02D205F1A4009C
:10A0600000E000200746032101F0BCFD0020208015
:10A07000608002E5B4F90200B4F90010884214D0FF
:10A08000FEF752FF08B1012000E000200746B4F9B6
:10A0900002103A46284600F025FE1D4850F82510CB
:10A0A000284601F019FE0A20E063D4F8800000E0A1
:10A0B00022E008B3D4F88400B0B1FEF735FF08B150
:10A0C000012000E000200746B4F8840001B23A46BF
:10A0D000284600F007FE0E4850F82510284601F0EB
:10A0E000FBFD0A20E06307E069000320884009497E
:10A0F000098808430749088000BFBEE484000020A7
:10A1000094070020E4000020CC000020D0000020B4
:10A110004C0200200A0000202DE9F0410546082DE0
:10A1200001D3BDE8F0810120A840764909680840C4
:10A1300000B9F6E705EBC50000EB4510724901EBED
:10A140008004284601F05EFF0020E067FEF7ECFE89
:10A1500018B10120C4F8800002E00020C4F880009B
:10A160000020A0626063E0606080E0612061A06820
:10A1700060600020C4F894001820A06300202066CE
:10A180006066A0666148006861490968884203D238
:10A190005F4800685D4908605C48006860610121B3
:10A1A000284601F01DFE284601F072FF0646FEF724
:10A1B000BBFE88B9FEF7BEFE70B1D4E91B0101F009
:10A1C00083FF0646D4E91B0101F007FC8046D4E971
:10A1D0001B0101F035FC0746C6B12846A16901F014
:10A1E00089FD012060620220206300202080FEF7AC
:10A1F0009BFE28B14FF44D7002F078FAA06759E049
:10A200004FF4167002F072FAA06753E0FEF78CFE6E
:10A2100068B1A06908B9012000E000200146284685
:10A2200001F068FD002060620720206332E0FEF745
:10A2300081FE10B3B8F1000F0BD0A06908B901205E
:10A2400000E000200146284601F054FD0020606235
:10A250001EE037B12846A16901F04CFD0120606283
:10A2600016E0A06908B9012000E000200146284658
:10A2700001F040FD002060620AE0A06908B90120F9
:10A2800000E000200146284601F034FD0020606215
:10A2900001202063208900B22080FEF745FE20B116
:10A2A000642002F023FAA06704E04FF4C87002F0C3
:10A2B0001DFAA067002004E004F1880141F8206045
:10A2C000401C0328F8DB322060640120E06200209B
:10A2D0002062E063E064A0652065FEF72BFE08B90C
:10A2E000002060670020E065284602F083F920B175
:10A2F00003202946074A42F82100284601F07AFE49
:10A3000000BF0EE7A8000020740200208400002097
:10A3100088000020B407002070B506460C46082EC1
:10A3200000D370BD06EBC60000EB46100B4901EBF5
:10A330008005002C08DA604204B2204602F0D6F90B
:10A3400004B2604204B203E0204602F0CFF904B246
:10A350000020E8672C806C8000BFE2E774020020D8
:10A3600070B50446FEF7E0FD10B13225642601E029
:10A3700013255A2604EB460002F0C6F9A0EB46046A
:10A38000AC4202D80248056001E00148046070BD9B
:10A390008400002070B50446FEF7C6FD10B100250C
:10A3A000642601E000255A2604EB460002F0ACF9D1
:10A3B000A0EB4604AC4202D20248056001E001482D
:10A3C000046070BD8800002010B54FF0FF32431CC0
:10A3D0005908064B1B68994201D9044B196802FAC7
:10A3E00001F3DB43024C236010BD0000A4000020F9
:10A3F000A800002070B50546154E002405E0012098
:10A40000A040A84200D102E0641C102CF7D300BF8A
:10A41000102C00D170BD0F480460FEF785FD88B197
:10A420000C48016840F28F100841B4380A490860AE
:10A4300008480168C7200841B438084908605A2014
:10A440000749086003480068FFF760F900BFE1E7CB
:10A4500074020020B4000020840000208800002046
:10A460008C00002070B5044604F00300FEF768FD80
:10A470000546284602F0BEF808B9002070BD2846FF
:10A48000FFF786F9FAE700002DE9F04706460024B9
:10A49000A04600BF06F00300FEF752FD814609EB1F
:10A4A000C90000EB4910174901EB8007484602F04C
:10A4B000A1F810B90020BDE8F087F86E01F0BAFEEF
:10A4C00008B9012000E000200446FEF733FDB8B1D2
:10A4D000386F01F0AFFE08B9012000E0002080468F
:10A4E000444503D1012C01D1032507E0444504D0A4
:10A4F0000CB1022502E0012500E0002528B2DAE7D0
:10A5000020B2D8E7740200202DE9F0470546002666
:10A51000B146B246284602F06DF808B9BDE8F087AA
:10A52000082D00D3FAE705EBC50000EB4510F8490C
:10A5300001EB8004E06A08B1606828B90020E0629D
:10A54000284601F05FFD76E2E06B20B11F2128462E
:10A5500001F04AFD6BE2A06A50B90120A06201211E
:10A56000284601F0B9FC1F21284601F03DFD5EE2BE
:10A570000020A0620021284601F0AEFCFEF7DAFCC4
:10A5800060B9284601F084FD0646284601F00CFA21
:10A590008146284601F03BFA82460EE0D4E91B01D1
:10A5A00001F092FD0646D4E91B0101F016FA81463E
:10A5B000D4E91B0101F044FA8246E06C401CE064DF
:10A5C000E06D401CE065A168E06C884202D2206D1D
:10A5D000022802D300206060DCE1606A20B120889C
:10A5E000401C00B2208003E02088401E00B2208082
:10A5F0006068401E6060206B002876D0206B0428C5
:10A6000074D006DC01280BD0022870D003286FD14B
:10A6100095E1212879D022286CD02328F7D1A3E016
:10A62000FEF788FC90BB66B1206A401C20620020C7
:10A630002065206A0A2867D30520606021202063F6
:10A6400062E0E06DB0F5C87F5ED9A0686060002070
:10A65000E0606063E065206D401C2065606A08B9B9
:10A66000012000E000206062AA4850F82500E06365
:10A67000606A08B1A06904E0A06908B9012000E09F
:10A6800000200146284601F035FB3DE0FFE736B1EA
:10A69000206A401C206200202065606634E0206A49
:10A6A00020B114206060212020632DE0E06DB0F522
:10A6B000C87F29D90120606600202066A0686060FC
:10A6C0000020E0606063E065206D401C2065606AEA
:10A6D00008B9012000E0002060628E4850F8250093
:10A6E000E063606A38B1A0690AE04CE173E019E107
:10A6F00047E10AE060E0A06908B9012000E000201D
:10A700000146284601F0F6FA3CE1606858BBFEF7C6
:10A7100011FC18B9206A401D606004E01421206A11
:10A7200001EB500060600020E0606063E065206D38
:10A73000401C2065606A08B9012000E000206062CA
:10A74000744850F82500E063606A08B1A06904E02D
:10A75000A06908B9012000E000200146284601F068
:10A76000C9FA222020630DE1606820BB0121206A24
:10A7700001EB500060600020E0606063E065206DE8
:10A78000401C2065606A08B9012000E0002060627A
:10A79000604850F82500E063606A08B1A06904E0F1
:10A7A000A06908B9012000E000200146284601F018
:10A7B000A1FA22202063E5E0606858B9FEF7BAFBF1
:10A7C00018B900202080206304E01EB10020208002
:10A7D00020632062D6E0FEF7ADFBA8BBAEB3606F8E
:10A7E000B04224D1E06DB0F5C87F1FD9A068606089
:10A7F0000020E0606063E065206D401C2065606AB9
:10A8000008B9012000E000206062424850F82500AD
:10A81000E063606A08B1A06904E0A06908B901209A
:10A8200000E000200146284601F064FA79E0206A41
:10A83000401C206200202065206A0A2871D3052070
:10A840006060212020636CE035E0FFE7606FB0427C
:10A8500024D1E06DB0F5C87F63D9A06860600020A6
:10A86000E0606063E065206D401C2065606A08B9A7
:10A87000012000E000206062264850F82500E063D7
:10A88000606A08B1A06904E0A06908B9012000E08D
:10A8900000200146284601F02DFA42E0206A401CC3
:10A8A000206200202065206A0A283AD305206060D3
:10A8B0002120206335E02EB1206A401C2062002058
:10A8C00020652EE0206A20B10120606021202063F5
:10A8D00027E0E06DB0F5C87F23D9A0686060002054
:10A8E000E0606063E065206D401C2065606A08B927
:10A8F000012000E000206062064850F82500E06377
:10A90000606A08B1A06908E0A06928B9012004E0E4
:10A91000740200209407002000200146284601F020
:10A92000E9F92FE056B94FF01408404601F0DEFE79
:10A930008046C4F804800320206300BF22E06068E2
:10A94000F0B94FF0C808404601F0D0FE8046C4F888
:10A9500004805148006860610020E06060636062CC
:10A960004E4850F82500E063A06908B9012000E0D6
:10A9700000200146284601F0BDF90120206300BFF8
:10A9800000E000BF05E0E06A022802D1002060601C
:10A9900051E000BF6068D0B34149E06851F82070D1
:10A9A000606B20B1012817D0022823D11CE0E06899
:10A9B000401CE060A16BE068884205D3A06BE060BA
:10A9C000606B401C606306E0A16B6068884202D245
:10A9D000606B401C60630EE0A16B6068884202D22D
:10A9E000606B401C606306E0E06810B1E068401EE8
:10A9F000E06000E000BF00BF60690744384601F036
:10AA000083FE07463946284601F0EEFA0EE0FFE7DE
:10AA10000020E062E064206501206065284601F0C6
:10AA2000F1FA0021284601F0DBF904E000BF2846D6
:10AA300001F052F900BF606860BB206B50B3206B1F
:10AA4000022805D0206B012802D0206B222820D1BB
:10AA5000FEF76AFA58B12846FEF77EFA082804D2B3
:10AA60002846FEF779FAD5300CE000200AE02846A7
:10AA7000FEF772FA082804D22846FEF76DFAA430D1
:10AA800000E000208046102101F0ACF8002020807A
:10AA9000608043E500BF41E584000020940700206A
:10AAA0004801002070B504460D4604F00300FEF78F
:10AAB00047FA0646304601F09DFD00B970BD2946B3
:10AAC0003046FFF729FC00BFF8E72DE9F0410546C5
:10AAD0000E46002705F00300FEF732FA0746384617
:10AAE00001F088FD08B9BDE8F08106F0030070B1FF
:10AAF000012804D0022805D003280AD105E06FF010
:10AB0000C70407E04FF4E67404E0002402E00024E8
:10AB100000E0E8E700BF21B23846FFF7FDFB00BFC9
:10AB2000E1E700002DE9F04707460D46904638461C
:10AB300001F060FD08B9BDE8F0870120B840624926
:10AB40000968084000B9F6E707EBC70000EB4710BB
:10AB50005E4901EB8004FEF7EDF920B9384601F0BB
:10AB600097FA064604E0D4E91B0101F0ADFA064667
:10AB700008F0010090B15648006802280ED0002D60
:10AB800008DA684205B2284601F0B0FD05B2684215
:10AB900005B203E0284601F0A9FD05B295B9FEF71C
:10ABA000C9F918B93846FFF7B7FAC4E7E06F28B912
:10ABB0000EB1208810B92EB9208818B93846FFF791
:10ABC000ABFAB8E7E06A40B1B4F90200A84203D09A
:10ABD00065800220E062AEE7ADE765800020A062FC
:10ABE00060632063E0616065E06520666066A06682
:10ABF000FEF7A0F908B900206067364800683649BA
:10AC0000096800EB0109484601F070FD8146B4F97E
:10AC10000000A84202D1012060658CE7FEF78AF9A6
:10AC200048B98DB9208878B1002020626667042079
:10AC30002063658008E0208800B92EB925B900207E
:10AC400020620420206365802448006860612448F5
:10AC50000068E0600121384601F0C2F8B4F9000054
:10AC6000A8420FDDA06908B9012000E000200146DC
:10AC7000384601F03FF8B4F90000401B6060002046
:10AC8000606209E03846A16901F034F8B4F90000C7
:10AC9000281A60600120606260682E2802D31620A6
:10ACA000A06302E060684008A063384601F0AAF99A
:10ACB000322060640120E062384601F09BF90020F8
:10ACC000E06300BF37E70000A80000207402002006
:10ACD000B4000020CC000020D0000020880000201C
:10ACE000900000202DE9F04707460D469046C246E9
:10ACF000384601F07FFC08B9BDE8F0870120B84074
:10AD00007B490968084000B9F6E707EBC70000EB8C
:10AD10004710784901EB8004384601F0B9F906463E
:10AD20007548006802280ED0002D08DA684205B286
:10AD3000284601F0DBFC05B2684205B203E0284674
:10AD400001F0D4FC05B2ADB9E06F68B92EB1B4F929
:10AD500000006A490968884206DC5EB9B4F900005F
:10AD600066490968884205DA0020E0673846FFF73F
:10AD7000D3F9C1E7E06A40B1B4F90200A84203D0B8
:10AD800065800220E062B7E7B6E70020C4F88000E3
:10AD90006580A06260632063E0616065E065A06734
:10ADA000C4F89400C4F88400544800685449096801
:10ADB00000EB0109484601F099FC81460020206221
:10ADC000B4F90000A84202D10120606594E7208810
:10ADD00000B96EB965B900202062FEF7ABF800B982
:10ADE000666716B10020206301E0042020636580BF
:10ADF00044480068606144480068E060384601F0FB
:10AE000001F90121384600F0EBFFB4F90000A84237
:10AE10000FDDA06908B9012000E000200146384696
:10AE200000F068FFB4F90000401B60600020606221
:10AE300009E03846A16900F05DFFB4F90000281A66
:10AE4000606001206062BAF1000F3DD04FF4C8701D
:10AE500001F04CFC6168884236D24FF4487001F032
:10AE600045FC616888420AD24FF4487001F03EFC0C
:10AE70006168B1FBF0F200FB121060600CE04FF46F
:10AE8000487001F033FC6168401A6060606A08B97C
:10AE9000012000E000206062606A40B1A088281AAA
:10AEA00000B220803846A16900F024FF0CE0A088A1
:10AEB000284400B22080A06908B9012000E00020E9
:10AEC0000146384600F016FF6068322802D3182089
:10AED000A06302E060684008A06332206064012043
:10AEE000E0620020E063384601F084F800BF03E729
:10AEF000A800002074020020B4000020CC00002034
:10AF0000D0000020880000209000002070B5064688
:10AF10000D46304601F06EFB00B970BD0120B04017
:10AF20003C490968084000B9F7E706EBC60000EBAA
:10AF30004610394901EB80043848006802280ED0D9
:10AF4000002D08DA684205B2284601F0CFFB05B2B1
:10AF5000684205B203E0284601F0C8FB05B2E06A8A
:10AF600040B1B4F90200A84203D065800220E0623B
:10AF7000D3E7D2E70020C4F880006580A062606358
:10AF80002063E0616065E065A067C4F89400C4F8E0
:10AF90008400206222480068606122480068E06006
:10AFA000304601F02FF80121304600F019FFB4F9C6
:10AFB0000000A8420FDDA06908B9012000E00020D0
:10AFC0000146304600F096FEB4F90000401B606078
:10AFD0000020606209E03046A16900F08BFEB4F900
:10AFE0000000281A6060012060626068322802D385
:10AFF0001820A06302E060684008A063322060640B
:10B000000120E0620020E063304600F0F3FF00BF63
:10B0100083E70000A800002074020020B400002094
:10B02000880000209000002010B5FDF77DFF60B182
:10B03000002407E0154840F824400820144941F84E
:10B040002400641C082CF5DB1FE000200F49086079
:10B0500001204860042088600520C8600220086143
:10B0600003204861062088610720C8610220084942
:10B0700008600320486008208860C86006200861D6
:10B080000720486108208861C86110BDA401002024
:10B09000C40100202DE9F0410027002573E005EBF5
:10B0A000C50000EB45103B4901EB8004E06B30B17B
:10B0B000E06B401EE063E06B08B90A206064FDF7B6
:10B0C00033FF00285DD0206A00285AD0206A401E35
:10B0D0002062206A0F2800D954E02F4800682F49C9
:10B0E00009684618304601F001FB0646B4F9000035
:10B0F000B0420EDD284600F0CBFF8046B8F1000FCD
:10B1000004D0E069401CE0610B2701E00020E06111
:10B1100012E0B4F9000000280EDC284600F0B8FF69
:10B120008046B8F1000F04D1E069401CE0611627A9
:10B1300001E00020E06100BFE0690A2821D907B3DF
:10B1400000202062E061FDF7EFFE58B12846FDF7D0
:10B1500003FF082804D22846FDF7FEFED5300CE098
:10B1600000200AE02846FDF7F7FE082804D228460A
:10B17000FDF7F2FEA43000E000208046394600F0E2
:10B1800031FD00BF6D1C082D89DB01F0B1F8BDE871
:10B19000F081000074020020CC000020D0000020CC
:10B1A00010B500F0D9FB10BD10B51B48006840F485
:10B1B0007000194908601948006840F001001749FB
:10B1C00008600846406800F47F0048600846006850
:10B1D00013490840114908600846006820F480209F
:10B1E00008600846406820F4FE0048600846C06ACF
:10B1F00020F00F00C8620846006B0A490840074962
:10B20000086300208860FEF719FA4FF000600249D9
:10B210008039086010BD000088ED00E00010024099
:10B22000FFFFF6FE8C0FFF0F10B50421054800F05C
:10B230003FFA30B10421034800F028FA042001F05D
:10B2400043FA10BD0018004010B50221054800F077
:10B250002FFA30B10221034800F018FA032001F060
:10B2600033FA10BD001C004010B50221054800F063
:10B270001FFA30B10221034800F008FA002001F063
:10B2800023FA10BD0020004010B50421044800F04E
:10B290000FFA18B10421024800F0F8F910BD0000BF
:10B2A0000040014010B50221044800F001FA18B135
:10B2B0000221024800F0EAF910BD000000440140FC
:10B2C00010B50221044800F0F3F918B10221024838
:10B2D00000F0DCF910BD00000048014010B5042169
:10B2E000054800F0E5F930B10421034800F0CEF93B
:10B2F000052001F0E9F910BD005C014010B5022104
:10B30000480700F0D5F918B10221480700F0BEF94E
:10B310000421080700F0CCF930B10421080700F03F
:10B32000B5F9062001F0D0F90821C80600F0C0F9EF
:10B3300018B10821C80600F0A9F91021880600F00C
:10B34000B7F918B11021880600F0A0F910BD00006F
:10B3500010B50221164800F0ABF930B102211448B3
:10B3600000F094F9012001F0AFF90421104800F039
:10B370009FF930B104210E4800F088F9022001F055
:10B38000A3F908210A4800F093F918B108210848E8
:10B3900000F07CF91021064800F08AF930B1102144
:10B3A000034800F073F9072001F08EF910BD00008A
:10B3B0000004004030B58DB001A8FDF77DFF4FF4CB
:10B3C0007A720298B0FBF2F1481EB0F1807F00D390
:10B3D0001BE0481E4FF0E022506150170F2200285A
:10B3E00007DA13071D0E0B4B00F00F04241F1D5529
:10B3F00003E013071C0E084B1C5400BF00204FF045
:10B40000E02290610720106100BF00F03BF80DB012
:10B4100030BD000018ED00E000E400E070B5054626
:10B420000C46284600F041F904442146284600F025
:10B4300040FA01220221284600F04BF970BD70B598
:10B4400005460C46284600F030F9044421462846BB
:10B4500000F031FA01220421284600F03AF970BDCB
:10B4600070B505460C46284600F01FF904442146F5
:10B47000284600F022FA01221021284600F029F97E
:10B4800070BD000000B589B001210846FDF770FECF
:10B4900001214020FDF76CFE01218020FDF768FEB0
:10B4A00001210802FDF764FE01210220FDF760FE84
:10B4B0000121C804FDF77CFE1C208DF8200002202D
:10B4C0008DF8210001208DF8230008A8FDF7E4FD88
:10B4D0002B208DF8200008A8FDF7DEFD2C208DF82C
:10B4E000200008A8FDF7D8FD2D208DF8200008A821
:10B4F000FDF7D2FD1D208DF8200008A8FDF7CCFD3A
:10B500004E208DF8200008A8FDF7C6FD4FF6FF700D
:10B5100006904720ADF814000020ADF81C00ADF8EF
:10B52000160032205349088005A9400700F0C8F9E9
:10B5300005A9514800F0C4F905A9504800F0C0F928
:10B5400005A94F4800F0BCF905A94E4800F0B8F92C
:10B5500005A94D4800F0B4F90020ADF80000012025
:10B56000ADF80200962002900220ADF80C0069466A
:10B57000424800F0B7F80021404800F0F5F869466D
:10B580003F4800F0AFF800213D4800F0EDF8694673
:10B590003C4800F0A7F800213A4800F0E5F8694679
:10B5A000384800F0EAF80021364800F00FF9694603
:10B5B000344800F018F90021324800F03BF96946A0
:10B5C000304800F040F900212E4800F065F9694646
:10B5D0004FF0804000F086F800214FF0804000F0EE
:10B5E000C3F869464FF0804000F0C7F800214FF0E3
:10B5F000804000F0EBF869464FF0804000F0F3F82F
:10B6000000214FF0804000F015F969464FF080406E
:10B6100000F019F900214FF0804000F03DF9694633
:10B62000154800F0AAF80021134800F0CFF8694649
:10B63000154800F0A2F80021134800F0C7F80121D6
:10B64000880700F026F801210B4800F022F80121BC
:10B650000A4800F01EF80121094800F01AF80121FB
:10B66000084800F016F80121074800F012F809B068
:10B6700000BD00007C00002000180040001C0040BD
:10B680000020004000040040005C0140CA430282E8
:10B69000704721B1028842F00102028004E0028872
:10B6A0004FF6FE731A40028070470146486A7047A1
:10B6B00030B50246002000230024158A05EA010364
:10B6C000958905EA010413B10CB1012000E00020C6
:10B6D00030BD1AB183890B43838102E083898B4398
:10B6E0008381704770B5002400220023058C4FF63B
:10B6F000FE7635400584028C8388048B4FF68F7567
:10B700002C40B51E2C400D882C43751E2A408D8977
:10B710002A434D882A43114DA84205D0104DA84216
:10B7200002D0104DA84213D14FF6F7752A40CD89AB
:10B730002A434FF6FB752A408D882A434FF6FF6552
:10B740002B404FF6FF552B400D8A2B434D8A2B4340
:10B75000838004838D684563028470BD004001408E
:10B7600000440140004801400A460021018B4FF689
:10B77000F773194011430183704770B5002200230D
:10B780000024058C4FF6EF7635400584038C8488C1
:10B79000028B48F6FF752A404FF6FF452A400D8878
:10B7A0004FF6FF7606EA05252A434FF6DF752B4054
:10B7B0008D8906EA05152B434D8806EA05152B43AE
:10B7C000848002838D688563038470BD0A460021EE
:10B7D000018B4FF2FF7319404FF6FF7303EA022308
:10B7E00019430183704770B5002200230024058CA3
:10B7F0004FF6FF6635400584038C8488828B4FF6B4
:10B800008F752A404FF6FC752A400D882A434FF663
:10B81000FF552B408D894FF6FF7606EA05252B4311
:10B820004D8806EA05252B43848082838D68C56395
:10B83000038470BD0A460021818B4FF6F7731940CF
:10B8400011438183704770B5002200230024058CCA
:10B850004EF6FF7635400584038C8488828B48F64B
:10B86000FF752A404FF6FF452A400D884FF6FF76B8
:10B8700006EA05252A434DF6FF752B408D8906EA19
:10B8800005352B434D8806EA05352B43848082839A
:10B890008D680564038470BD0A460021818B4FF2D8
:10B8A000FF7319404FF6FF7303EA022319438183A4
:10B8B00070474163704781637047016470470000BF
:10B8C00000220288B0F1804F0BD0194B984208D06B
:10B8D000184B984205D0184B984202D0174B98420B
:10B8E00004D14FF68F731A404B881A43144B984279
:10B8F0000AD0144B984207D0134B984204D04FF60D
:10B90000FF431A400B891A4302804B68C3620B88BD
:10B9100003850E4B984205D00D4B984202D00D4B3B
:10B92000984201D18B7A03860123838270470000FD
:10B930000004004000080040000C0040005C014092
:10B940000010004000140040009C004000400140F6
:10B95000004401400048014010B54FF4FA740F480C
:10B96000006820B10D480068401E0C4908600C4872
:10B970000068002802DD4FF4FA7401E04FF47A7495
:10B9800008480068401C07490860A04203DD002009
:10B99000086000F099FCFFF77DFB10BD000000205F
:10B9A000700000201C00002010B50446FDF7C2FA0C
:10B9B00038B9204600F03EFC08B9012010BD002037
:10B9C000FCE7204600F036FC28B9201D00F032FCD0
:10B9D00008B10120F2E70020F0E770B505460C46FB
:10B9E000FDF7A8FA38B9284600F024FC08B9012070
:10B9F00070BD0020FCE7284600F01CFC28B920465A
:10BA000000F018FC08B10120F2E70020F0E710B5C3
:10BA10000446FDF78FFA38B9204600F00BFC08B158
:10BA2000012010BD0020FCE7204600F003FC28B1F7
:10BA3000201D00F0FFFB08B90120F2E70020F0E72D
:10BA400070B505460C46FDF775FA38B9284600F082
:10BA5000F1FB08B1012070BD0020FCE7284600F092
:10BA6000E9FB28B1204600F0E5FB08B90120F2E728
:10BA70000020F0E77047000008B506480090022259
:10BA800069460020FCF71AFD0A20FCF7D5FAFDF7FD
:10BA9000ABFD000000AA50A000BFFEE702E008C80E
:10BAA000121F08C1002AFAD170477047002001E038
:10BAB00001C1121F002AFBD1704700000449096828
:10BAC0001E31044A1268881A1E2800DB1E3870478F
:10BAD000F0010020EC01002010B502460B460021C9
:10BAE0000FE00A4850F83100904209D1074800EBB6
:10BAF000C1004068984203D10020044C44F8310052
:10BB0000491C1E29EDDB002010BD0000740A002036
:10BB1000F0B504460D46FFF7D1FF07460D48036810
:10BB20000026036811E01E2B00DB1E3B0A4850F87C
:10BB30003300A04207D1084800EBC3004068A84288
:10BB400001D10120F0BD761C5B1CBE42EBDB002066
:10BB5000F8E70000EC010020740A002000200749EB
:10BB6000086007490860074908604FF4FA70064901
:10BB7000086000200549086070470000EC010020C3
:10BB8000F0010020F4010020FC0100200002002050
:10BB900030B504460D460020206000BFFFF78EFF41
:10BBA00008B9002030BD0D480D49096800EBC103FC
:10BBB000186820605868286009480068401C0849D7
:10BBC0000860084600681E2803D3084600681E382F
:10BBD0000860186800B9E1E70120E3E7740A002073
:10BBE000EC01002030B503460C4613480068834240
:10BBF00005D112480068844201D1002030BDFFF712
:10BC00005DFF1D2802D14FF0FF30F7E70C480D49CA
:10BC1000096800EBC1052B606C600A480068401C95
:10BC200008490860084600681E2803D308460068D3
:10BC30001E3808600120E1E7F4010020F80100202F
:10BC4000740A0020F00100202DE9F04186B005467D
:10BC50000E46144614B906B0BDE8F08100208DF8F8
:10BC60000D006006000E8DF80E0000208DF80C000F
:10BC7000FDF75AF960B115B1012D08D103E04FF479
:10BC8000EE60019003E040F27270019000BF0CE0A2
:10BC900015B1012D08D103E04FF4E660019003E0F7
:10BCA00040F23270019000BF00BF0DF10F0700BFDE
:10BCB00036F8041B27F8021B601E0400F8D100BFF1
:10BCC00001A90448FBF7C5FE8046042800D1F7E728
:10BCD00000BFC0E70064004070B506460C4625462C
:10BCE0000348006805442946304600F03DF970BD20
:10BCF0008C00002070B505460C46082D59D2DFE8AF
:10BD000005F0040E18232E39434D0CB9012000E034
:10BD10000020024620212848FDF751F849E00CB9DF
:10BD2000012000E00020024602212448FDF747F8E8
:10BD30003FE00CB9012000E0002002464FF4807182
:10BD40001F48FDF73CF834E00CB9012000E000206A
:10BD500002464FF480411948FDF731F829E00CB94B
:10BD6000012000E0002002464FF480611248FDF7F8
:10BD700026F81EE00CB9012000E000200246042154
:10BD80001048FDF71CF814E00CB9012000E0002079
:10BD9000024620210948FDF712F80AE00CB90120FB
:10BDA00000E0002002464FF480710448FDF707F8D8
:10BDB00000BF00BF70BD000000080048000400483C
:10BDC00000100048000C004810B5002000F086FA72
:10BDD00010BD10B500F06CF8012000F07FFA10BD26
:10BDE00070B505460C46082D59D2DFE805F0040E63
:10BDF00018232E39434D0CB9012000E000200246E3
:10BE000001212848FCF7DBFF49E00CB9012000E0E4
:10BE10000020024604212348FCF7D1FF3FE00CB983
:10BE2000012000E0002002464FF400711E48FCF79C
:10BE3000C6FF34E00CB9012000E0002002464FF4B8
:10BE400000411848FCF7BBFF29E00CB9012000E0D5
:10BE5000002002464FF480511448FCF7B0FF1EE06A
:10BE60000CB9012000E00020024610210D48FCF72B
:10BE7000A6FF14E00CB9012000E00020024640219A
:10BE80000848FCF79CFF0AE00CB9012000E0002004
:10BE900002464FF400710348FCF791FF00BF00BF5A
:10BEA00070BD000000040048001000480008004871
:10BEB00010B500240CE000212046FFF791FF00217F
:10BEC0002046FFF717FF0021204600F005F8641C0C
:10BED000082CF0DB10BD000070B505460C46082D9F
:10BEE0003BD2DFE805F0040B12191F272E34E2B213
:10BEF00020214FF09040FCF762FF2EE0E2B240219B
:10BF00004FF09040FCF75BFF27E0E2B280214FF05A
:10BF10009040FCF754FF20E0E2B210211048FCF7FB
:10BF20004EFF1AE0E2B24FF400414FF09040FCF7B0
:10BF300046FF12E0E2B24FF400610948FCF73FFF10
:10BF40000BE0E2B208210748FCF739FF05E0E2B256
:10BF500080210448FCF733FF00BF00BF70BD000024
:10BF6000000800480004004870B504460D46082C3F
:10BF70002ED2DFE804F004090E13181D22282946EA
:10BF80001448FFF74BFA23E029461348FFF746FA17
:10BF90001EE029461048FFF752FA19E029460F48DB
:10BFA000FFF73CFA14E029460D48FFF748FA0FE086
:10BFB00029460C48FFF743FA0AE029464FF0804033
:10BFC000FFF73DFA04E029460348FFF749FA00BFAE
:10BFD00000BF70BD0020004000040040001C004075
:10BFE00000180040005C0140014A42F820107047F0
:10BFF0004C02002010B504460A212046FFF7B4FF8A
:10C0000010BD000010B50446082C35D2DFE804F05E
:10C01000040A10161C22282E002202211748FFF7BE
:10C0200058FB29E0002202211548FFF752FB23E0CC
:10C03000002204211248FFF74CFB1DE000220221E0
:10C040001048FFF746FB17E0002204210E48FFF7D7
:10C0500040FB11E0002204210C48FFF73AFB0BE003
:10C06000002204210807FFF734FB05E0002210211D
:10C070000348FFF72EFB00BF00BF10BD00200040AB
:10C0800000040040001C004000180040005C01401B
:10C0900010B50446FCF748FF18B1204600F0CAF876
:10C0A00010BDFCF747FF58B1204600F0C3F828B197
:10C0B000201D00F0BFF808B10120F1E70020EFE7F4
:10C0C000204600F0B7F8EBE770B505460C46FCF7E4
:10C0D0002BFF18B1284600F0ADF870BDFCF72AFF21
:10C0E00058B1284600F0A6F828B1204600F0A2F882
:10C0F00008B10120F1E70020EFE7284600F09AF8A8
:10C10000EBE700002DE9F04100260220FBF75EFF7F
:10C1100008B9BDE8F0810220FBF798FE002439E061
:10C120001E4800EB0410C068078804B97F0040F681
:10C13000E440784340F6FF71B0FBF1F5032C12D1D7
:10C14000174805600068B0F5017F00D2DE2614486C
:10C150000068B0F5816F00D9DF2626B10021304696
:10C16000FFF740FD0026042C13D10E48056000683F
:10C17000B0F51D7F00D2E0260A48006840F2164163
:10C18000884200D9E12626B100213046FFF72AFD7A
:10C190000026641C052CC3D300BFBAE72000002092
:10C1A0000C0000201000002010B500240348FCF70C
:10C1B00003FEC043C0F38314204610BD00080048AE
:10C1C00070B50025002405E0204600F033F8A040BB
:10C1D0000543641C082CF7DB284670BD70B50025AC
:10C1E000002407E0204600F025F810B10120A0400F
:10C1F0000543641C082CF5DB284670BD10B54FF4D0
:10C20000E0414FF00060FCF789FFFCF7F1FF4FF4CD
:10C210004070FCF779FFFCF7D7FDFFF7CBF800F093
:10C220004DFAFBF707F9FBF79BFDFCF735FDFBF734
:10C2300059FF10BD70B504460025082C3FD2DFE839
:10C2400004F0040C131A21282F364FF09040FCF70D
:10C25000B3FD012121EA500531E01A48FCF7ACFD9D
:10C26000012121EAD0052AE01648FCF7A5FD0121AD
:10C2700021EA900523E01348FCF79EFD012121EA05
:10C2800050051CE00F48FCF797FD012121EA5035CD
:10C2900015E00C48FCF790FD012121EA90350EE0F5
:10C2A0000848FCF789FD012121EAD03507E005485F
:10C2B000FCF782FD00F0010080F0010500BF00BF27
:10C2C000284670BD000800480348008880F480704C
:10C2D0000149088070470000140C004810B504465E
:10C2E000E2B240210148FCF76AFD10BD001400488D
:10C2F00070B500244DE104EBC40000EB4410A749E5
:10C3000001EB80004068002877D104EBC40000EB0B
:10C31000441001EB8000C06A0028F5D104EBC40092
:10C3200000EB441001EB8000406D002865D09C4874
:10C3300050F8240000F00300012804D0022863D044
:10C3400003287DD1C2E0FCF7F5FD40B92046FFF798
:10C350002BFB08B9012000E00020054615E004EBA6
:10C36000C40202EB44128D4B03EB8202116F04EB0B
:10C37000C40202EB441203EB8202D06EFFF72DFBE6
:10C3800008B9012000E000200546BDB3854850F8FB
:10C390002400401C834941F82400084650F824003A
:10C3A000022830DDFCF7C0FD58B12046FCF7D4FD73
:10C3B000082804D22046FCF7CFFDD5300CE0002041
:10C3C0000AE02046FCF7C8FD082804D22046FCF706
:10C3D000C3FDA43000E0002006460121FFF702FC67
:10C3E0000020704941F8240004EBC40101EB441122
:10C3F0006A4A02EB8101486505E0C9E0FFE70020D9
:10C40000684941F82400C2E0FCF794FD40B9204699
:10C41000FFF7FDFA08B9012000E00020054617E00B
:10C4200004EBC40202EB44125C4B03EB8202116F7B
:10C4300004EBC40202EB441203EB8202D06E00E074
:10C44000A4E0FFF7FDFA08B9012000E0002005464E
:10C45000B5B3544850F82400401C524941F8240018
:10C46000084650F8240002282FDDFCF75DFD58B186
:10C470002046FCF771FD082804D22046FCF76CFD2D
:10C48000D5300CE000200AE02046FCF765FD0828C6
:10C4900004D22046FCF760FDA43000E000200646F0
:10C4A0001421FFF79FFB00203E4941F8240004EBD4
:10C4B000C40101EB4411394A02EB8101486504E0F3
:10C4C000FFE70020374941F8240060E0FCF732FD27
:10C4D00040B92046FFF7DCFD08B9012000E000204C
:10C4E000054615E004EBC40202EB44122B4B03EBB0
:10C4F0008202116F04EBC40202EB441203EB8202CE
:10C50000D06EFFF7E1FD08B9012000E000200546EC
:10C51000B5B3244850F82400401C224941F82400B7
:10C52000084650F8240002282FDDFCF7FDFC58B126
:10C530002046FCF711FD082804D22046FCF70CFD2C
:10C54000D5300CE000200AE02046FCF705FD082865
:10C5500004D22046FCF700FDA43000E0002006468F
:10C560000321FFF73FFB00200E4941F8240004EBB4
:10C57000C40101EB4411094A02EB8101486504E062
:10C58000FFE70020074941F8240000E000BF00BF9A
:10C59000641C082CFFF6AFAE70BD000074020020D2
:10C5A000B4070020D407002070B50F4DA5F10B0291
:10C5B00000210E48FBF7C5F90D480068401C0C49E6
:10C5C0000860A5F10B00847A03E0002106480155BC
:10C5D000641C082CF9DBAB886A88034E0B3E317B68
:10C5E000F07AFCF707FD70BD4302002000640040B4
:10C5F0007000002010B50446FCF796FC38B1002C02
:10C6000003DB082C01DA012010BD0020FCE7002C20
:10C6100003DB082C01DA0120F6E70020F4E7000034
:10C62000FFF7ECFDFFF7C0FD2049088008460088B1
:10C63000C0101F4908801D480088C0F380001D49B4
:10C6400008801A48008800F0070018490880FCF7A5
:10C650006BFC10B14FF45C7001E04FF44C70054678
:10C66000FAF7C0FFFDF7B6F813480068FDF74EF87B
:10C67000FCF75AFC20B14FF49660FBF7C1FB03E0D6
:10C680004FF47070FBF7BCFBC820FBF7D5FC0CE047
:10C69000FBF772FAFFF7A2FD604010B1FFF79EFDB5
:10C6A0000446FAF769FFFFF72DFDF1E704000020CB
:10C6B0000600002008000020B400002010B5FFF79D
:10C6C0004DFAFCF76FFC10BD10B50446082C00DBDA
:10C6D00010BDFCF729FC18B12046FDF7C7F902E0B0
:10C6E0002046FDF711FF00BFF2E70000024909688C
:10C6F0008840801070470000B400002010B5044648
:10C700002046FFF7F3FF10BD800002490968084189
:10C7100070470000B40000204443313200000000A4
:10C720004443323400000000696E7465726E616CBF
:10C73000207265666572656E6365000054656D7094
:10C74000657261747572652073656E736F72000037
:10C75000426174746572790078C700080000002097
:10C760002C020000E471000824C800082C020020FC
:10C77000040E0000ACBA0008A183FFFFB2C813503A
:10C78000C733081272071A2810321172051A3C10AA
:10C790009A10101A20109A02101A18109A031051A9
:10C7A00012A012501228022814023F0832AA32A501
:10C7B000329E3296328C328232733266325732492E
:10C7C000324132393231322A3225321F321A321591
:10C7D00029F8320D5A0B9429D429DC0A1501643248
:10C7E000803271326232535A46600A2D2F5C415AB0
:10C7F000020C29145A042032067207291C29240924
:10C80000162001222D010203040428090607080945
:10C810000204060804200D0A0C0E1014181C202413
:04C82000282C300090
:0400000508007189F5
:00000001FF
