:020000040800F2
:107000002813002029B40008157A0008177A000810
:10701000197A00081B7A00081D7A00080000000099
:107020000000000000000000000000001F7A0008BF
:10703000217A000800000000237A0008257A000861
:1070400043B4000843B4000843B4000843B4000844
:1070500043B4000843B4000843B4000843B4000834
:1070600043B4000843B4000843B4000843B4000824
:1070700043B4000843B4000843B4000843B4000814
:1070800043B4000843B4000843B4000843B4000804
:10709000297A00082D7A000843B4000843B4000898
:1070A000137B0008B17B0008CF7B000843B40008C5
:1070B000957A0008317A000843B4000843B4000808
:1070C00043B4000843B4000843B4000843B40008C4
:1070D00043B400082F7A000843B4000843B4000802
:1070E00043B4000843B4000843B40008EF7A000832
:1070F000557B0008797B00080000000000000000BC
:10710000000000000000000043B4000843B4000881
:10711000000000000000000043B4000843B4000871
:1071200043B4000843B4000843B4000843B4000863
:1071300043B4000843B4000843B4000843B4000853
:1071400043B4000800000000000000000000000040
:10715000000000000000000000000000000000002F
:10716000000000000000000043B4000843B4000821
:1071700043B4000800000000317B0008000000005C
:107180000000000043B40008DFF80CD006F082FADB
:107190000048004795790008281300200020704718
:1071A000082801DA02F07DB970472DE9F041A0F11D
:1071B00018050F460646102D6CD201F031FDB0EBDC
:1071C000251F67D1FF4805F00F0255080188B0F868
:1071D00000C0A6F118063F0406F00F0E3F0C4FF05A
:1071E000010606FA0EF302D00B4399B200E0994370
:1071F000038899424ED001806B00D94011F0030101
:1072000006D0012925D0022926D003292DD12BE033
:107210002CFA03FC0CF00301012904D002290BD045
:107220004FF4C87421E0032D01DDC46902E0C16997
:10723000C1F54874521C07E0032D03DDC169C1F597
:10724000487400E0C469521E018896400E430680CF
:107250000BE0032D04DC01E0032D01DDC46904E033
:10726000C069C0F5487400E00024C5EBC500C0EB60
:107270008511D54800EB8106D6F8A800012804D076
:1072800001F040FB40B1012207E0284602F088F9F6
:10729000C6F8B040BDE8F081002221B2284602F0D5
:1072A000BCFAF7E71FB50020019002900390C54893
:1072B0000088012200906946104600F0D3FF1FBDF0
:1072C0007FB500240546009401940294039401F0D4
:1072D000A7FCE9B2103088420ED1BA48008800906D
:1072E00001F09EFC10300002CDE901040222694643
:1072F0000120039400F0B6FF7FBD2DE9F0470C4656
:10730000054601F08DFCE9B2103088425BD1AD48F2
:1073100004800024AC4D8146A046B9F8000061000D
:107320004E46C84010F0030006D0012811D00228B4
:1073300030D003283BD130E04FF4C876304601F01E
:10734000D7FFC4EBC401C1EB841725F827003046F2
:107350001AE0032C0ED9F069C0F5487001F0C8FF9F
:10736000C4EBC401C1EB841725F82700F069C0F510
:10737000487009E0F06901F0BBFFC4EBC401C1EB48
:10738000841725F82700F06901F0B2FF05EB8701AB
:1073900048800CE0032CEDD8DDE7C4EBC400C0EB63
:1073A000841025F8208005EB8000A0F80280C4EB53
:1073B000C401C1EB841105EB8101641CA4B2C1F8C6
:1073C000A880082CA9D3BDE8F0871FB5002104468A
:1073D000009101910291039101F022FCE1B2103081
:1073E000884219D1C4F307240F2C15D86008C0EBCC
:1073F000C001C1EB8010744901EB8000D0F8C400DB
:10740000009001F00DFC103044EA002001900222AF
:107410006946012000F026FF1FBD70B50D460446E9
:1074200001F0FEFBE1B2103088420DD1C4F3072019
:107430000F2809D84008C0EBC001C1EB8010624999
:1074400001EB8000C0F8C45070BD10B5044601F0D7
:10745000E7FBE1B21030884208D1C4F307200F28BF
:1074600004D8BDE81040400802F09AB810BD10B52D
:107470000024204602F094F8641CA4B2082CF8D32F
:1074800010BD7FB50446002000900190029003904B
:1074900001F0CCFB054601F0C3FBE1B2103088429D
:1074A00010D101F0BDFB01030DB1022000E001206D
:1074B00041EA002040F03500012200906946104664
:1074C00000F0D0FE7FBD411EB1F5C77F01D83D4918
:1074D000C86170471FB50020009001900290039092
:1074E00003F05FFD38B140F6FD20009001F0F4F9A3
:1074F0000222019003E001F0EFF9012200906946B9
:10750000012000F0AFFE1FBD1FB50022CDE9000134
:107510000292039202226946012000F0A3FE1FBDE1
:107520001FB58DE80F0004226946012000F09AFE85
:107530001FBD30B40023234C44F65105FE2812D061
:10754000FF2827D1AA4225D131B1606920B1206935
:1075500010B10120A0616361A0690B4602B2FF2156
:1075600030BC6C20DCE7606990B1AA4212D109B14D
:10757000012000E000202061206918B14FF47A70EA
:10758000606100E0636160690B4602B2FE21E7E7DB
:107590006361236130BC70471FB5002100910191E8
:1075A00002910C4603910749012818D002281BD0EC
:1075B000032813D101F018F981B2000CCDE90010B5
:1075C000A0B203E000000020A00300200290200CE5
:1075D000039004226946012000F044FE1FBD486864
:1075E0004968C1EB4114E7E788688968D7225143AD
:1075F0000F22B1FBF2F4DFE71FB5002000900190ED
:107600000290039001F012FB044601F009FB010314
:107610000CB1022000E0012041EA002040F03500DA
:10762000012200906946104600F01CFE1FBD1FB5E8
:107630000020009001900290039001F063F910B1D6
:1076400048F6300001E048F640000122009069460B
:10765000104600F007FE1FBD70B503F0FCFC0400EF
:1076600077D02088E54D732831D014DC1E2867D0F0
:1076700008DC022822D0032824D007286AD0092851
:1076800024D13AE130286AD03A2869D0402868D01D
:107690006C28F5D13DE1FB2864D006DC742820D0AD
:1076A00075282ED07628EBD13DE0FC285BD0FD2854
:1076B00051D0FE2858D0FF28E2D132E101F0A7FADC
:1076C000012002E001F0AAFA0020E86032E101F0B6
:1076D00019F90028FAD1E288A188608803F01CFB20
:1076E00028E101F00FF90028F0D1A0880028608877
:1076F00002D003F001FB01E003F0B9FA03F0C3FC90
:1077000018E101F0FFF80028E0D1E08820B1A1885D
:10771000608803F0DFFA0DE1207900F00301608852
:1077200003F084FA06E101F0EDF80028CED101F073
:10773000E6F80028CAD0608800B101202862F9E08C
:1077400001F0E0F80028C1D06088A188FFF72DFD86
:10775000F0E0F3E0C9E060881C28B7D205E0D2E091
:10776000C8E0CDE0E4E0E1E0D0E0DFE800F00E12B8
:10777000171B20272D313D4145494D52575B5F6412
:10778000686F73797E85898F9499A088FFF798FD3B
:10779000D0E0E188A088FFF7B0FDCBE0A088FFF73C
:1077A00014FEC7E0E188A088FFF737FEC2E0A0889A
:1077B000FFF74BFE05E0FFF7B3FEBBE0A088FFF745
:1077C00056FEA86940B9B5E0A088FFF75AFEB1E0BF
:1077D000A08801F0F2FCF4E7B4F90420B4F9021037
:1077E000B4F900000023E6E7A08801F040FDA1E025
:1077F000A088FFF768FE9DE0A088FFF76BFE99E088
:10780000A08803F0A5FB95E0E188A08801F0A7FD22
:1078100090E0E188A08801F0C2FD8BE0A08801F033
:1078200069FD87E0A08801F068FD83E0A179A08868
:1078300001F0D0FC7EE0A08801F0B2FE7AE023895E
:10784000E188A088002202F010F973E0A08801F01E
:107850004CFB6FE0B4F90610A08801F0FFFD69E071
:10786000E188A08803F086FB64E0A088E188020A32
:10787000C0B201F04AFD5DE0A08801F0D7FC59E0FC
:10788000A088010AC0B201F0C9FC53E0E188A088D9
:1078900001F0C2FC4EE0E188A08801F0BEFC49E0A6
:1078A000012001F013F84FF4FA61012001F0F7FD17
:1078B0005349A0880860534991FBF0F05249401E9B
:1078C0000860524DA2790221284604F04BFF0122A4
:1078D0001146284604F046FFB4F90630B4F90420F6
:1078E000B4F90210B4F9000065E70020401C042838
:1078F000FCD31FE000F038FF1CE0FFF7D3FC19E0D9
:10790000FFF795FE16E0FFF777FE13E0A078FFF78C
:1079100043FEB4F90620B4F90410A078FFF709FE7D
:1079200008E0A1886088FFF73BFC55E760888EE798
:1079300001F0C2FABDE8704001F07EBA70BD10B52A
:1079400001F0F0F9BDE8104003F03ABB7047704712
:1079500001B52A480099C162C16A0029FCD108BD5D
:1079600000B5C820FFF7F4FF24494FF4FA604861DE
:1079700000BD10B500F080FF204CA16A884202D003
:1079800000F07AFFA062BDE8104000F083BA7047B3
:1079900001F05EBA01F04DF901F06BF901F084F9E4
:1079A00001F0A1F901F0A8F9FFF7DAFFFFF754FEA3
:1079B00001F04EFAFFF7DDFFF8E7104A10B5D16A83
:1079C0004FF4FA7011B1D16A491ED162516911B1F7
:1079D0005169491E51610E490968002901DC4FF4C3
:1079E0007A70516A491C5162814203DD0020506265
:1079F00000F059FFBDE8104003F000BA000000207D
:107A0000DC00002020A107002C04004000040048F6
:107A1000980000207047FEE7FEE7FEE7FEE77047AC
:107A200070477047FFF7C9BF00F07CBC70477047D4
:107A300010B56E4C0221204605F069FD28B10221E7
:107A4000204605F070FD02F05CF80421204605F0A8
:107A50005EFD30B10421204605F065FD022002F0F4
:107A600066FF0821204605F052FD18B10821204686
:107A700005F059FD1021204605F049FD002808D0E9
:107A80001021204605F04FFDBDE81040062002F011
:107A90004EBF10BD10B502214C07204605F037FD42
:107AA00018B10221204605F03EFD0421204605F0D4
:107AB0002EFD30B10421204605F035FD072002F0EF
:107AC00036FF0821204605F022FD18B10821204686
:107AD00005F029FD1021204605F019FD002805D0EC
:107AE0002046BDE81040102105F01DBD10BD10B5A9
:107AF0003F4C0421204605F00AFD002808D004214F
:107B0000204605F010FDBDE81040052002F00FBF33
:107B100010BD10B5374C0421204605F0F8FC0028B4
:107B200005D02046BDE81040042105F0FCBC10BD86
:107B300010B5314C0421204605F0E9FC002808D09E
:107B40000421204605F0EFFCBDE81040042002F0BF
:107B5000EEBE10BD10B5294C0221204605F0D7FC21
:107B6000002808D00221204605F0DDFCBDE81040C9
:107B7000032002F0DCBE10BD10B5214C02212046CE
:107B800005F0C5FC002812D00221204605F0CBFCF0
:107B90001A4C204605F09FFC81B21A4801801A4811
:107BA000008801442046BDE8104005F0C4BA10BD6D
:107BB00010B5164C0221204605F0A9FC002805D07E
:107BC0002046BDE81040022105F0ADBC10BD10B547
:107BD0000F4C0221204605F09AFC002805D02046D3
:107BE000BDE81040022105F09EBC10BD000400401D
:107BF0000018004000400140005C0140001C0040B3
:107C000000200040300000209C0000200044014083
:107C100000480140504810B5016841F4700101600E
:107C20004E48016841F001010160416801F47F01A3
:107C3000416001684A4A11400160016821F48021D5
:107C40000160416821F4FE014160C16A21F00F0129
:107C5000C162016B434A114001630021816000F061
:107C600034F83D494FF000608039086010BD30B5F0
:107C70003A4B58683C4A3D4910F00C0003D00428A8
:107C800001D0082801D00A6015E058685C6800F44B
:107C900070104FF0020514F4803F05EB904007D0C0
:107CA000DC6A04F00F04641CB2FBF4F24243EAE71E
:107CB0002F4A5043086058682C4AC0F30310121D25
:107CC000105C0A68C2400A6030BD0CB5002223482F
:107CD00000920192016841F4803101604FF4A06389
:107CE000016801F4003101910099491C009101994A
:107CF00011B900999942F3D10168890329D501216D
:107D00001C4A019112211160416841604168416043
:107D1000416841F480614160416821F47C11416017
:107D2000416841F4E8114160016841F080710160EF
:107D300001688901FCD5416821F003014160416877
:107D400041F0020141604168C1F381010229FAD189
:107D50000CBD01920CBD000088ED00E00010024057
:107D6000FFFFF6FE8C0FFF0F00127A003400002098
:107D700000093D00002002402DE9F04192B04FF48F
:107D8000804004F018FE0121480404F022FF0C207A
:107D90000F9003208DF8400000248DF843400FA978
:107DA0004FF0904004F076FC0121084604F011FFEA
:107DB0005C4D284604F0E8F85C4E5B48CDE90006CF
:107DC0008020CDE904404000069002948000052701
:107DD0000790ADF80C70202008900002CDE909044E
:107DE0006946284604F03DF90121284604F063F96C
:107DF0000121480204F0F6FE4B4D4C3D284603F0AD
:107E000025FB0121284603F0EFFB0BA803F047FBFD
:107E100001208DF82C008DF82D004FF46020CDE965
:107E20000C048DF838700BA9284603F01BFB404F5B
:107E3000A84607EB0415601CC2B22B7A297940468C
:107E400003F063FB06EB4400641CE860052CF0D3F0
:107E5000012003F04FFB012004F047FF01214446BD
:107E6000404603F024FB204603F030FB204603F09D
:107E70005FFC0028FAD1204603F023FB204603F0E4
:107E800050FC0028FAD10121204603F010FB12B06B
:107E9000BDE8F0812DE9F0470024022004F023F929
:107EA00000282FD0022004F02CF9DFF88480214E26
:107EB000214F002540F6FF7908EB0510C0680088C7
:107EC00005B9400040F6E4414843B0FBF9F0032D0A
:107ED00002D0042D18D012E030603068B0F5816F08
:107EE00000D2DE24306840F20A51884201D9DF24F2
:107EF00000E024B10021204600F027FF00246D1C83
:107F0000052DD9D3BDE8F08738603868B0F51D7FFE
:107F100000D2E024386840F216418842E9D9E124D1
:107F2000E8E70000080002404C24014068020020FD
:107F30004800002004000020080000202DE9FC413A
:107F40004FF4FC00012104F044FE00248DF80440AD
:107F500002208DF80640032500908DF805504FF063
:107F600090478DF807406946384604F093FB8DF83A
:107F700004404EF2CF308DF80640DFF8E8810090E3
:107F80008DF805508DF807406946404604F082FBA5
:107F900001268DF8046048F2F1108DF8064000903B
:107FA0008DF805508DF807406946384604F072FB9D
:107FB0008DF804604CF2FF308DF8064000908DF88B
:107FC00005508DF807406946674804F063FB8DF85B
:107FD000046041F630408DF8064000908DF8055061
:107FE0008DF807406946404604F054FB8DF8046064
:107FF0004FF482708DF8064000908DF805508DF892
:1080000007406946594804F045FB8DF80460280292
:108010008DF8064000908DF805508DF807406946B0
:10802000534804F037FB8DF804608DF806408DF856
:1080300005508DF8076040204E4E0090694630464E
:1080400004F028FB8DF8044080208DF80640009055
:108050008DF805508DF807406946304604F01AFB4C
:10806000BDE8FC8170B54FF090444FF4807588B145
:10807000012811D0022811D0032816D10022012195
:10808000204604F06FFB012229462046BDE87040DF
:1080900004F068BB012202E00122F0E70022012186
:1080A000204604F05FFB0022EEE770BD70B50C4681
:1080B000054600F024FC0028284603D000F09CFB75
:1080C00020B109E000F098FB20B105E0204600F067
:1080D00093FB08B1012070BD002070BD10B50446AF
:1080E00000F00DFC0028204603D000F085FB20B1F5
:1080F00009E000F081FB20B105E0201D00F07CFBD1
:1081000008B1012010BD002010BD70B50C46054619
:1081100000F0F5FB0028284608D000F06DFB18B1F0
:10812000204600F069FB28B1002070BD00F064FB20
:108130000028FAD0012070BD10B5044600F0DFFB26
:108140000028204608D000F057FB18B1201D00F091
:1081500053FB28B1002010BD00F04EFB0028FAD0E0
:10816000012010BD0008004800040048000C004831
:1081700000100048001400482DE9F0438146012119
:108180008BB0480404F025FD4FF0904809220B21E4
:10819000404604F0EEFA09220C21404604F0E9FAC8
:1081A00002268DF8206003274FF4C0508DF821700F
:1081B000002407908DF8224001258DF8235007A94F
:1081C000404604F067FA14208DF824008DF825400D
:1081D0008DF826408DF8275009A804F0EAFA01210D
:1081E000480604F008FDDFF87C81404603F0AEFA53
:1081F000684603F090FB8DF806408DF80740072095
:108200008DF802408DF804008DF8034002948DF83B
:108210000560ADF800706946404603F0A7FA4FF6D6
:10822000FF7101EA49108DF81640ADF80C008DF889
:1082300017508DF81850ADF81040ADF80E40ADF85D
:108240001240ADF814408DF8195003A803F002FB5A
:1082500001220221404603F02CFD434804600BB08C
:10826000BDE8F083F0B585B014000D46064657D042
:1082700000208DF8090061008DF80A108DF80800C3
:1082800000F040FB88B116B1012E35D106E000F0B8
:10829000C7FC00EB400000F5EE602CE000F0C0FCF5
:1082A00000EB400000F2727025E002F07AFE01005F
:1082B00040F232774FF4C0600BD05EB900F0B0FCF2
:1082C00028B100F0ADFC00EB400707F232670097E1
:1082D00012E026B1012EF1D0022E0DD10BE000F0FC
:1082E0009FFC30B100F09CFC00EB400000F5C66044
:1082F00001E04FF4E66000900DF10B0035F8041B2F
:1083000020F8021B641EF9D1164E4FF47A756946A7
:10831000304603F05AFB042802D1641CAC42F6D963
:1083200005B0F0BD38B5114C0021A4F10B020D4889
:1083300003F0DCFB0C480168491C0160A4F10B054B
:108340000021A87A02E02A18401CD1720828FADB22
:10835000E0880090A3886288297BE87A02F03EFEDC
:1083600038BD000000640040980000207F0200201B
:108370002DE9F04F012189B0084604F03CFC0121B1
:10838000402004F038FC0121802004F034FC01215D
:10839000080204F030FC0121022004F02CFC012131
:1083A000C80404F01FFC1C208DF8200002258DF865
:1083B000215001268DF8236008A804F0FAF92B203B
:1083C0008DF8200008A804F0F4F92C208DF8200086
:1083D00008A804F0EEF92D208DF8200008A804F07C
:1083E000E8F91D208DF8200008A804F0E2F94E20DD
:1083F0008DF8200008A804F0DCF940F2CF70069058
:108400004720ADF8140000246F07ADF81C40ADF80C
:10841000164005A9384604F027FDDFF8048205A9B7
:10842000404604F021FDDFF8FC9105A9484604F020
:108430001BFDDFF8F4A105A9504604F015FDDFF897
:10844000ECB105A9584604F00FFD05A9784804F0E1
:108450000BFD9620ADF800400290ADF80260ADF83B
:108460000C506946484604F0ACFD0021484604F033
:10847000AFFE6946504604F0A4FD0021504604F0CA
:10848000A7FE6946584604F09CFD0021584604F0BA
:108490009FFE6946584604F0C3FD0021584604F08B
:1084A0009DFE6946584604F0DBFD0021584604F065
:1084B0009FFE6946584604F0F1FD0021584604F03D
:1084C0009DFE6946384604F07CFD0021384604F0E4
:1084D0007FFE6946384604F0A3FD0021384604F0CB
:1084E0007DFE6946384604F0BBFD0021384604F0A5
:1084F0007FFE6946384604F0D1FD0021384604F07D
:108500007DFE6946404604F08BFD0021404604F0A4
:1085100065FE6946464804F083FD0021444804F0A6
:108520005DFE0121384604F01BFD0121404604F0A8
:1085300017FD0121484604F013FD0121504604F0C7
:108540000FFD0121584604F00BFD0121384804F0CD
:1085500007FD09B0BDE8F08F00B58DB0684604F0A6
:1085600070FA01984FF47A71B0FBF1F0B0F1807FAE
:108570000DD220F07F414FF0E020491E41612D4A8D
:10858000F02182F8141D0021816107210161FFF7AC
:10859000EFFE0DB000BD70B50D46044604F0AEFC14
:1085A000411989B2204604F0C6FD2046BDE870405E
:1085B0000122022104F097BF70B50D46044604F075
:1085C0009DFC411989B2204604F0B7FD2046BDE864
:1085D00070400122042104F086BF70B50D460446A8
:1085E00004F08CFC411989B2204604F0A8FD204615
:1085F000BDE870400122082104F075BF70B50D463A
:10860000044604F07BFC411989B2204604F0B4FD15
:108610002046BDE870400122102104F064BF000034
:1086200000180040001C00400020004000040040F2
:10863000005C01400FE000E010B5012186B0480465
:1086400004F0C7FA03208DF81400302000240490B1
:108650008DF8174004A94FF0904004F01BF8012159
:10866000480704F0C8FA3C20CDE900044FF400703C
:1086700002900220354C03906A460021204603F008
:10868000F8FB6A461021204603F0F3FB012200218B
:10869000204603F005FC01221021204603F000FCD7
:1086A00006B010BD10B5012186B0480404F091FA5F
:1086B00003208DF814001020002404908DF817403A
:1086C00004A94FF0904003F0E5FF0121480704F0B2
:1086D00092FA3C20CDE900044FF400700290022091
:1086E0001A4C03906A460021204603F0C2FB012287
:1086F0000021204603F0D4FBD2E7C0EB003040F667
:10870000E44190FBF1F010B5104C82B200212046FC
:1087100003F0ECFB20460122BDE81040002103F0ED
:10872000C8BBC0EB003040F6E44190FBF1F010B55F
:10873000064C82B20021204603F0DEFB20460122D7
:10874000BDE81040102103F0B4BB000000740040ED
:10875000BFF34F8FF7480168F74A01F4E061114316
:108760000160BFF34F8FFEE708B5F4480090022286
:108770006946002002F0DAFD0A20FFF7E9F8FFF76A
:10878000E7FF10B504F068F8012004F085F804F064
:108790009CF8012826D1102003F0ECFC022003F005
:1087A000D7FC002004F0F1F8002004F0FCF84FF4AE
:1087B000806004F0F1F84FF4E0114FF4803004F0E1
:1087C000BEF8012004F0C5F8192004F06AF800286A
:1087D000FAD0022004F0CDF8022404F0D1F8B4EB72
:1087E000900FFAD110BD704710B5D54803F0ABFF1C
:1087F000C043C0F3831010BD70B505460020D04EB5
:108800000446641C082D0ED2DFE805F00407121898
:108810001E242A304FF0904011E0304603F093FFC1
:1088200040F3C000401C002801D1032CE9D370BDE7
:10883000304603F088FF40F38000F3E7304603F052
:1088400082FF40F34000EDE7304603F07CFF40F349
:108850004030E7E7304603F076FF40F38030E1E751
:10886000304603F070FF40F3C030DBE7304603F0E2
:108870006AFF40F30000D5E770B500252C460126BD
:108880002046FFF7B9FF10B106FA04F00543641C57
:10889000082CF5DB284670BD10B5A94803F053FF3E
:1088A000C0F3831010BDA748018881F48071018056
:1088B0007047A54964200A8842F080020A80401E61
:1088C000FDD1088820F0800008807047C2B29E4821
:1088D0004021143803F046BF70B5002634462046C8
:1088E000FFF78AFF40B10025A5403543641C2E46A2
:1088F000082CF4DB284670BD0125F5E77CE793489A
:108900008088704791484088002800D00120704737
:1089100010B50C4601468E48006840B9FFF7F2FFDB
:1089200028B98A48808810B18A48006818B1BDE823
:108930001040084660E70846FFF75EFF28B1204672
:10894000FFF75AFF08B1012010BD002010BD10B57F
:1089500004467F48006840B9FFF7D4FF28B97B4838
:10896000808810B17B48006818B12046BDE81040EF
:1089700042E72046FFF740FF28B1201DFFF73CFFEC
:1089800008B1012010BD002010BD024630B472486D
:108990004FF40073082A3BD2DFE802F0040A1017F4
:1089A0001E262C3211B1002201212CE00122FBE70E
:1089B00011B10022042126E00122FBE719B10022B7
:1089C000194666481FE00122FAE719B100224FF468
:1089D000004118E00122FAE721B100224FF4805152
:1089E000574810E00122F9E711B1002210210AE0F6
:1089F0000122FBE711B10022402104E00122FBE744
:108A000021B10022194630BC03F0ACBE0122F9E7C7
:108A100030BC704730B40246494B4F484FF4807425
:108A2000082AF5D2DFE802F0040A10171E262E34B9
:108A300011B10022202119E00122FBE711B100222F
:108A4000022128E00122FBE719B100222146434818
:108A500021E00122FAE719B100224FF480411AE027
:108A60000122FAE721B100224FF48061184612E09A
:108A70000122F9E721B100223248042114380AE02A
:108A80000122F9E711B10022202104E00122FBE7D5
:108A900021B10022214630BC03F064BE0122F9E777
:108AA000B6E72A488068704730B40246244B2A4C07
:108AB0004FF09040082AABD2DFE802F0040E111408
:108AC000171B2023214A9268002ACAB202D04FF411
:108AD000807119E0202117E0CAB2402114E0CAB227
:108AE000802111E0CAB2102106E0CAB24FF4004161
:108AF0000AE0CAB24FF40061184605E0CAB2082184
:108B000001E0CAB28021204630BC03F02BBE7FE7D3
:108B100002461348082A33D2DFE802F004052E0784
:108B2000092A302C0F48FFF736BD0F48FBE70F48E6
:108B300022E000000CED00E00400FA0500AA50A0BD
:108B400000080048140C004814140048A00000203D
:108B500018000020200000200004004800100048F9
:108B60000004004000200040001C0040005C014068
:108B7000624801E04FF08040FFF71EBDFFF73EBDA9
:108B800070475F4A42F8201070476421C0E75D4A91
:108B90001268114489B2BBE701465B48082923D219
:108BA000DFE801F004080B0E12161E1A0022022143
:108BB000564817E00022022114E00022042111E0AF
:108BC0000022022152480DE000220421514809E010
:108BD00000220421494805E000220421080701E0A1
:108BE0000022102104F07FBC704710B50024002142
:108BF0002046FFF7CAFE00212046FFF70BFF0021A9
:108C00002046FFF751FF641C082CF0DB10BD10B5A7
:108C1000FFF7EBFFBDE81040012057E6002055E6C6
:108C20003D48008870473C48408870473A48C068D3
:108C3000704710B54FF4E0414FF0006003F0E8FDDD
:108C4000FFF79FFD4FF4407003F0AEFD3249002066
:108C5000C86032480268012A0AD14268022A07D154
:108C60008268032A04D1C068062801D10120C860A7
:108C700010BD10B5FFF762F9294803F064FD40F319
:108C8000C010401C0ED00020234CA060FFF7ACFDAC
:108C900080B2C1086180C0F38001A18000F00300B0
:108CA000208010BD0120EFE710B5FFF755FCFFF75E
:108CB00063F8FFF727FE10B14FF45C7001E04FF44A
:108CC0004C70154C21880844FFF756FAA06810B183
:108CD000FFF7B2FC01E0FFF7E5FC03F056FABDE850
:108CE000104002F060BA10B500F01CF802F068F90C
:108CF000BDE8104000F068B902F004B90018004067
:108D000088020020E800002000040040002000400D
:108D1000001C0040005C0140A0000020003000204A
:108D200000140048614800210160416081604FF4F7
:108D3000FA720261416170475C4841680068081A34
:108D40001E301E2800DB1E38704730B5574B0546D5
:108D50000C469868854204D1D868844201D100202D
:108D600030BDFFF7E9FF1D2810D05148596800EBCE
:108D7000C102C2E900545868401C586058681E2857
:108D800002D358681E385860012030BD4FF0FF30C4
:108D900030BD70B5044600200D46454E434B206063
:108DA000FFF7CAFF002813D0186806EBC00210684E
:108DB0002060506828601868401C186018681E28D9
:108DC00002D318681E38186010680028E8D0012007
:108DD00070BD70B50D460646FFF7AEFF33490A6811
:108DE0000A680023324C0FE01E2A00DB1E3A54F8BA
:108DF0003210B14206D104EBC2014968A94201D147
:108E0000012070BD521C5B1C8342EDDB002070BD55
:108E100030B50022264B144653F83250854206D115
:108E200003EBC2056D688D4201D143F83240521CFC
:108E30001E2AF1DB002030BD10B51C4CA0680028B4
:108E400005D0E168A068FFF7E3FF0020A06010BD37
:108E5000184810B50068002816D0144C6069002826
:108E600012D1A06800280FD104F10C01081FFFF7F0
:108E700090FF002808D0E168A06802F01DF9E168C1
:108E8000A068BDE81040C3E710BD0848016900298B
:108E900006D00169491E01610169002900D14161C3
:108EA00070470021C02002F007B90000B000002088
:108EB000B00200200C00002010B50020FE4B01463F
:108EC000C1EBC102C2EB811203EB8202926C02B1D0
:108ED00001228A401043491C0829F1DB00231A466D
:108EE0001946FEF71DFB002010BD10B504460828EA
:108EF0001EDAC4EBC400F049C0EB841031F9200045
:108F0000EE49496B02290AD0002805DA404200B236
:108F100002F049F8404201E002F045F800B2214673
:108F20000246BDE81040002341F2FD30FEF7F8BADA
:108F300010BD10B5FFF7E6FCE14B0821002803F156
:108F400020024FF0000007D043F8200042F8201024
:108F5000401C0828F8DB10BD186001205860022072
:108F600098600320D860042018610520586106200D
:108F700098610720D861116051609160D1601161E2
:108F800051619161D16110BD082801D3082070475B
:108F9000CB4951F82000704701460020082907D22C
:108FA000C74A52F820308B4203D0401C0828F8DB17
:108FB0000820704710B50446FFF7A4FC082C01D226
:108FC000012010BD002010BD2DE9F05FFFF7B1FFBB
:108FD000DFF8E8A20221CAF834101424CAF840408D
:108FE0004FF0080BCAF804B0FF21CAF82810FFF7A9
:108FF00089FC40B1FFF783FC28B10421CAF80410B2
:109000000721CAF8281000254FF064080127A1465F
:109010002E46C5EBC500C0EB8511A74800EB8104C7
:109020002763A664FFF76EFC2846C4F8D060FFF7FC
:10903000C1FF10B3C4F88060E667A667C4F8886013
:109040009F482680C4F89850203084F8DA6050F8A1
:109050002500C4F89C00FFF755FC10B9FFF74FFC42
:1090600038B1276305F001002063FFF748FC10B119
:1090700003E02663F6E7C4F8A060FFF743FC28B1DD
:109080002846FFF764FC68B1268011E0FFF737FC43
:109090000028F5D0D4E92601FFF73AFC28B1268054
:1090A000676605E0A4F8008002E0A4F80080666628
:1090B00034F8500B24F84E0C6665C4E91676266623
:1090C0002667A667E667503CFFF71CFCC4F8C4900F
:1090D00010B14FF4617001E04FF44870A061666315
:1090E0002662A663E6632666E92066606D1CA665B7
:1090F000A062082D8DD345F255505446CAF8300071
:10910000CAF81C60CAF83860FFF7FCFB6B4B603391
:1091100003F108023221D0B1656B40F23C60E840B7
:10912000B4381860656B4FF44770E840B43810608D
:10913000656B4FF47A60E840B4385860636B40F276
:109140003450D840B43850605A20206207E040F2D2
:1091500036201860A6251560586055602162666249
:109160000420A0640720E06421653C2060654FF680
:10917000FF70E0626664E663524A002042F8201005
:10918000401C0828FAD30220E065FFF7BBFBC4F8B7
:1091900058B04C4A0020203202F1200101F1200396
:1091A00006E042F8206041F8206043F82060401C4F
:1091B000A56DA842F5D3BDE8F09F4049401C4FF093
:1091C000FF324B684008984200D948688240D0433B
:1091D00088627047394A10B553685B1E984201D9BE
:1091E0005068401EC0EBC003334CC3EB801304EB4C
:1091F00083030124002901D04FF0010104FA00F497
:10920000C3F8D010906A03D044EA0004946210BD01
:1092100020EA0400906210BD70477047082804D807
:10922000082902D8264A42F82010704770B5234D0D
:10923000214B2863002216460124A96804FA02F093
:10924000084210D11046FFF79FFE296B04FA00F088
:109250000842C2EBC200C0EB821003EB800001D0D9
:10926000066300E00463521C082AE6D370BD10B503
:109270000021012303FA01F2824202D0491C102985
:10928000F8D3102933D00D4C6163FFF73BFB28B3B3
:10929000616B40F28F10C84004F16002B438106076
:1092A000606BC721C14002F10800B4390160636BF3
:1092B0004FF47A71D94007E0A0030020C8000020D5
:1092C000F8010020C00A0020B4395160626B40F2FE
:1092D0004D11D140B43941605A202062FFF7E1FBC3
:1092E000002804D1606BBDE81040FEF7BBBE10BD86
:1092F00001F059BEFE4908647047FD494880704737
:109300000020401C0828FCDB704770B514460E4650
:109310000546FFF7F7FA90B113235A20711EB1F5F5
:109320007A7F1BD2F34903EB400291FBF6F18A42AC
:1093300001D2A1EB40034DB124B1012003E0012390
:109340003220EBE70020EA49683105E00CB101204A
:1093500000E00020E649603141F8203070BD2DE981
:10936000F041074609B1012600E00026FFF7CAFADE
:1093700078B113255A2407EB440001F019FEDC49AB
:10938000A0EB44006031A84206D841F82650BDE861
:10939000F08101253224EEE741F82600F7E770B5A9
:1093A000064609B1012500E00025FFF7ABFA08B138
:1093B0005A2400E0322406EB440001F0F9FDCC49C8
:1093C000A0EB4400683141F8250070BD10B50828B5
:1093D00001D3002010BDC0EBC001C1EB8010C64915
:1093E00031F92000002805DA404200B201F0E0FD2A
:1093F000404201E001F0DCFD00B210BD082801D3BD
:1094000000207047C0EBC001C1EB8010BA4901EBEE
:10941000800040687047082801D300207047C0EBE7
:10942000C001C1EB8010B44901EB8000806C704733
:1094300030B50023AE4C1A460125A16805FA02F0AA
:10944000084206D11046FFF7E6FF10B14FF6FF7352
:1094500002E0521C082AF0D3184630BD10B5082887
:109460001CD2C0EBC002C2EB8010A34A002902EB61
:10947000800405DA484200B201F095FD404202E066
:10948000084601F090FD012184F8D81084F8D91025
:10949000002100B2C4F8A8102080608010BDFFF742
:1094A00037BB2DE9F0470D468046FFF783FD0028C6
:1094B00026D08F49012707FA08F08A6A10421FD088
:1094C000C8EBC802C2EB88108B4A894602EB8004C5
:1094D000486B02280BD0002D05DA684200B201F07B
:1094E00062FD404202E0284601F05DFD05B2A06C3D
:1094F00040B1B4F90200A84202D065800220A06405
:10950000BDE8F0870026C4F8AC6065806664266517
:10951000E6646663C4F88060C4F88860C4F8A46038
:10952000C4F8C060C4F8B060A663E663D4F8D000A5
:1095300000B101206E49683151F820006062D9F80D
:109540002400E0614046FFF727FB01214046FFF77A
:109550001CFAB4F90000A84203DD401B26646060D9
:1095600002E0281A27646060206C08B1216B02E0D9
:10957000206B40B100214046FFF74CFA606832286A
:1095800003D3182002E00121F5E740086065A764D5
:109590003220A66520664046BDE8F047FFF7F5BAE1
:1095A0002DE9F05F054608287DD251494FF00108AA
:1095B00008FA05F0896A084275D0C5EBC500C0EB12
:1095C00085114D4800EB81042846FFF7E5FA002796
:1095D000C4F8A870FFF796F910B1C4F8AC8001E0A8
:1095E000C4F8AC7067642765E761678067632762CA
:1095F00084F8D87084F8D970A069C4F8C07060602D
:10960000C4F88C70C4F890701820C4F89470606529
:1096100084F8DA7084F8DC70A4F8E070E767E76338
:10962000334AD4F8D0006032002802D04FF0010154
:1096300001E04FF0000152F8216002D04FF001012B
:1096400001E04FF000012A4B03F1680353F82110A9
:109650008E4210D2002802D04FF0010101E04FF0FD
:10966000000153F8213002D04FF0010101E04FF02A
:10967000000142F8213008B14FF0010052F82000FB
:1096800060624FF001012846FFF77FF92846FFF797
:109690005EF906466066300000D0FF2084F8700056
:1096A000FFF730F900E0B7E0DFF850B0C0B9FFF7DE
:1096B00026F9A8B1D4E92601FFF72AF90646DBF816
:1096C000000018B14FF0000A504608E0F4E9260106
:1096D000FEF7ECFC824674E82601FEF716FD814693
:1096E00046B30348B4F90010806C81420CDD07E0FA
:1096F000C8000020A0860100A00300202000002058
:10970000C8202764E06404E00220C4F84080E064DC
:109710002780FFF7F7F850B14FF44D7001F043FC8C
:10972000C4F8A400D4F8D01091B340082EE04FF450
:10973000167029E0FFF7E6F858B12764D4F8D00096
:1097400020B1C4F84C80C4F8D47014E00720E06461
:1097500011E0FFF7D4F840B1B9F1000F05D1BAF12B
:10976000000F02D0C4F8408000E02764E763C4F82B
:109770004C80C4F88870208B2080FFF7C3F808B1B4
:10978000642001E04FF4C87001F00DFCC4F8A4009F
:10979000206C08B1216B02E0206BD8B10021284673
:1097A000FFF738F9002004EB8001401CC1F8B460D9
:1097B0000328F8DBA763E763A765A767C4F884708D
:1097C000C4F848803220E76746462066FFF797F8DE
:1097D00010B103E00121E2E7C4F8A0702846C4F804
:1097E0008870FFF7E7FB90B1DBF80010F84811B183
:1097F00040F8256002E0032140F82510052140F8DB
:10980000251050F82500F249203141F8250028465E
:10981000BDE8F05FFFF7B9B9CDE42DE9F84F0D468B
:1098200080460092FFF7C6FB002837D0E94E4FF084
:10983000010909FA08FBB16A1BEA010F2ED0C8EB37
:10984000C801C1EB8810E44901EB80044046FFF7F2
:109850007EF80746706BB24602280BD0002D05DA61
:10986000684200B201F09FFB404202E0284601F04E
:109870009AFB05B2002645B9D4F8A80028B14046A5
:10988000C4F8A860BDE8F84F8AE6A06C40B1B4F90E
:109890000200A84202D065800220A064BDE8F88FD3
:1098A000C4F8AC60658066642665E66444F8346F8D
:1098B000E66466652667C4F88C60E667C4F8A06055
:1098C000DAF84810DAF84C00084401F06CFB6660E6
:1098D000A66034F9340DA84217D1C4F880909AF8E4
:1098E0000010504621FA08F1C907D7D0027822EAC1
:1098F0000B020270B4F9003001B03A464146BDE8AF
:10990000F04F41F2FD2001F0C5BB10B90FB19DB180
:1099100033E095BBFEF7F3FF08B9C4F8A0700FB1B0
:10992000E66408E00420E064D4F8D00018B1C4F87C
:109930004C90C4F8D4606580B4F90010DAF848009F
:10994000814208DD27B1A4F8E060C820E06403E0AC
:10995000C4F84C9000E0E664FEF7D1FF08B9C4F803
:10996000A0709B4841466580052240F8212050F8B0
:10997000281000F1200242F82810D4F8D00000B1DD
:1099800001209449683151F820006062DAF824001F
:10999000E0614046FFF700F901214046FEF7F5FF80
:1099A000B4F90000A84204DD401B26646060304624
:1099B00004E0281A60604846C4F8409008B1216B62
:1099C00002E0206BF8B100214046FFF723F8009831
:1099D00088B34FF4C87001F0E6FA6168884231D26A
:1099E0004FF44877384601F0DEFA6168884238461D
:1099F0000BD201F0D8FA6168B1FBF0F200FB121053
:109A00006060206C0AE00121DEE701F0CCFA6168B9
:109A1000401A6060206C30B1002020640028A088CB
:109A200003D0281A02E00120F7E728442080206CA8
:109A300010B1216B03E005E0206B40B100214046EE
:109A4000FEF7E8FF6068322803D3182002E0012106
:109A5000F5E740086065C4F848903220A6652066A6
:109A60004046BDE8F84FFFF790B82DE9F0411D469C
:109A700016460F460446FFF79DFA00281ED05549AA
:109A80000120A0408A6A104218D0514A05F00F0305
:109A900042F8243052F824204D4B203343F8242040
:109AA000EA040A7802D51043087001E082430A7084
:109AB000324639462046BDE8F041AEE667E470B56F
:109AC0000024444D012606FA04F0A968084202D198
:109AD0002046FFF765FD641C082CF4D370BD10B55B
:109AE00000242046FFF75CFDA41C082CF9D310BD10
:109AF00010B501242046FFF753FDA41C082CF9D310
:109B000010BD10B5334C2069401C20616069C0F560
:109B10008030A061E06848B1002240214FF09040C1
:109B2000E26002F01FFE0020206110BD0122F4E778
:109B30002DE9F04790460D460746FFF73BFA00280F
:109B400056D0DFF890A04FF0010909FA07F0DAF8D3
:109B5000281008424CD0C7EBC7001F49C0EB871044
:109B600001EB8004FEF7CBFE98B1D4E92601FEF7A5
:109B7000CFFE06465FEAC87013D0DAF83400022838
:109B80000FD0002D09DA684200B201F00CFA404211
:109B900006E03846FEF7DBFEEBE7284601F003FA65
:109BA00005B2E5B9FEF7ABFE0028D4F8A80001D055
:109BB000F8B909E0E8B9B4F9000016B1142818DAC8
:109BC0000DE0002815DD0AE020883EB188B906E0E6
:109BD000E00A0020C8000020A003002048B1A06CCB
:109BE00058B1B4F90200A84202D065800220A064F6
:109BF00086E43846BDE8F047D2E465800020606422
:109C00002065E0646063C4F88000C4F88800C4F88C
:109C10008C00C4F890006666C4F894000EB1FF2171
:109C200000E0002184F87010E063A0638046E062E9
:109C3000FEF765FE08B9C4F8A080DAF84810DAF833
:109C40004C00084401F0AFF9B4F90000A8420CD16F
:109C500094F8D80030B194F8D90018B1D4F8D000F5
:109C60000028C5D1C4F880904AE4FEF748FE0421DC
:109C700010B1208800BB1EE084F8DB8084F8DC8013
:109C80002288A4F8DE2012B24046002A02DD002D10
:109C900002DD17E0002D01DD84F8DB9095B9228804
:109CA00082B1C4F8A060E164A0636080D4F8D00001
:109CB00068B1E9200FE02EB925B9C4F83880E16415
:109CC000A4F80280D4F8D00008B1012000E0002000
:109CD000FE4951F820006062DAF82400E0610121B9
:109CE0003846FEF752FEB4F90000A84203DD401BDF
:109CF0006060404602E0281A60604846206408B16F
:109D0000216B02E0206B40B100213846FEF782FE55
:109D100060682E2803D3162002E00121F5E74008F1
:109D200060653846FEF738FF3220C4F84890206658
:109D3000E74850F82700E649203141F82700384627
:109D4000FEF723FFC4F8588052E72DE9F05F05467F
:109D50000026FFF72FF900287BD0082D79D2C5EB1C
:109D6000C500DC49C0EB851001EB8004DFF85CB373
:109D7000A06C4FF001090027ABF1680B28B16068B7
:109D800018B1A06D30B100216EE22846A764FEF73D
:109D900003FF85E2606C38B3002128466764FEF754
:109DA00083FEFEF7ACFD30B3F4E92601FEF7B0FD0B
:109DB0000646D4E90001FEF779F974E82601FEF7BA
:109DC000A4F9A06F4FF0140A401CA067D4F88800D3
:109DD000401CC4F88800A169A06F884202D2E06FDD
:109DE000022813D367604AE201212846C4F8449050
:109DF000FEF75AFEC7E72846FEF7A9FD06462846A5
:109E0000FEF76CF92846FEF797F9DAE7206C002890
:109E1000208801D0401C00E0401E20806068401E69
:109E2000606094F870004006000E84F87000002E08
:109E300002D04FF0010101E04FF0000140EA0100C3
:109E400084F870000CD1A06E20B100F10100A06672
:109E500004E055E2606E08B1C4F86890E7660AE075
:109E6000E06E18B100F10100E06603E0606E08B931
:109E7000C4F86C90A766FEF745FD00280BD1E06C96
:109E800008B1042807D194F87010206C01F01F016C
:109E900010B1102902D082E00F2939D194F8DB10DB
:109EA000B1B3B4F9001030B11B2901DD1B3906E054
:109EB000C1F11B0107E0102904DAC1F1100141F4DE
:109EC000005102E0103941F44051884694F8D8100E
:109ED00079B394F8D91061B3D4F8D01049B3DBF852
:109EE00040105A464900C8F30B038B421EDB116C2D
:109EF000E1B1D8B9FEF706FD0028284609D0FFF7E2
:109F00004BF808280ED22846FFF746F8D5300AE06D
:109F100045E0FFF741F8082804D22846FFF73CF84F
:109F2000A43000E000204146FEF70FFF84F8D9700E
:109F300025E0FFE7DBF84030C8F30B0259469A42B0
:109F40001DDB096CD9B1E0B9FEF7DCFC002828461E
:109F500008D0FFF721F808280DD22846FFF71CF893
:109F6000D53009E0FFF718F8082804D22846FFF793
:109F700013F8A43000E000204146FEF7E6FE206C16
:109F800008B11B2000E010202080B4F902108842A4
:109F900001DB401A00E0081A606084F8DB70DFF82B
:109FA0003081E06CC821A8F1200821287AD00DDC8E
:109FB000032870D005DCB8B1012830D0022838D190
:109FC000EBE0042835D00E2833D112E024287BD0D2
:109FD00004DC222879D023282BD18BE0C8287BD021
:109FE000B0F5C87F25D1AAE0A06C022821D1676016
:109FF00059E11EB1A06960600220E2E060680028BB
:10A0000031D1A069E7612765C4F888706060E06FAE
:10A01000401CE067206CE0B300202064E9E0FEF71C
:10A020006EFC38B1E06BCEB1E767401CC4F89070AD
:10A03000E063EDE05EB1E06BC4F804A0401CE767AC
:10A04000E0630A280FD30A20606022200AE0D4F8D7
:10A050008800B0F5167F3FF6C5AED9E020B12120CB
:10A06000C4F804A0E064D5E0D4F88800B0F5C87F57
:10A0700051D9C4E92379A069E7612765C4F88870DC
:10A080006060E06F401CE067206C48B100202064F5
:10A0900002E052E006E099E058F82500A065ADE046
:10A0A0000120F4E76068B8BBFEF729FCC0B1E16BA2
:10A0B0000AEB5100E7612765C4F888706060E06FC3
:10A0C000401CE067206C08E02AE01BE03001002023
:10A0D000E00A0020A003002047E088B1002002E051
:10A0E000E06B1430E6E7206458F82500A0652220D4
:10A0F000E06483E0606878B9E16B09EB5100D9E76F
:10A100000120F0E7606838B9FEF7F9FB28B116B115
:10A110002780E764E7637BE034E02780E76477E04B
:10A12000606878BBFEF7EBFB20B1E16B0AEB5100F6
:10A13000606066E7E06B1430FAE701206DE7B4F881
:10A14000E000401C80B2A4F8E00066B1B4285FD9FA
:10A150006160A4F8E070206CA8B300202064E06F78
:10A16000401CE0674AE004200EE0B4F8E000401C28
:10A1700080B2A4F8E000002EE8D1E767206C10B1AF
:10A18000022001E046E00120E064A4F8E070E7630B
:10A19000C4F88870A06960603AE036B1B4F8E000B5
:10A1A000401C80B2A4F8E000D0E7E06F20B1A069C5
:10A1B000C4F84C9060602BE0142000F0F4FE606066
:10A1C0000320E06424E0FFE70120C7E7606808BBE4
:10A1D000C82000F0E8FE6060D4F8D00000B1012093
:10A1E000F84951F82000E76127652764C4F88870B2
:10A1F000606258F82500C4F84C90A065206C08B146
:10A20000216B02E0206B88B100212846FEF702FC9A
:10A21000606898B3EB49E069743151F82020216DF2
:10A2200031B1012911D0022919D115E00121ECE742
:10A23000401CE061616D884201D3E16102E0606829
:10A2400088420CD2C4F8509009E0616D6068884281
:10A2500005D20220206502E008B1401EE061606A7C
:10A26000104400F0A5FE01462846FEF78AFCD648B9
:10A2700050F825102846FEF78AFC11E0FFE7A06C95
:10A28000022801D1E06CE8B3A764A767C4F838A03E
:10A290002846E767FEF780FC00212846FEF775FB9D
:10A2A000606800282CD1E06C68B3022803D0012834
:10A2B00001D0222824D1FEF725FB0028284608D00B
:10A2C000FEF76AFE08280DD22846FEF765FED53057
:10A2D00009E0FEF761FE082804D22846FEF75CFE7E
:10A2E000A43000E00020E16C102242EA0121FEF7D8
:10A2F0002CFD2780678094F8DA00401C84F8DA008F
:10A30000BDE8F09F03E0FFE7A06C02281DD1A76421
:10A31000B4F90200B4F90010884216D0D4F850A065
:10A32000D4F81C80A767B4F9021000222846FFF772
:10A33000FFFBA548C4F850A0C4F81C8050F82510B5
:10A340002846FEF724FC0A20A0659BF8001058461A
:10A35000E940C907D4D0027809FA05F18A430270AE
:10A36000B4F9003032462946BDE8F05F41F2FD20E5
:10A3700000F090BE2DE9F84F0746002005460090FA
:10A38000082F72D2C7EBC7009049C0EB871001EBD2
:10A390008004C82060600A20A064A16D07F1D50B7D
:10A3A00007F1A40A4FF0000909B1002118E2606C1E
:10A3B000B0B184486038006D00213846C4F844903C
:10A3C000FEF772FBFEF79BFA88B1D4E92601FEF78F
:10A3D0009FFA8046206C002820880CD0401C0BE09F
:10A3E0000120014660643846FEF75EFBDDE7384633
:10A3F000FEF7ADFAEDE7401E20806168714E491E00
:10A400006160E06C032877D005DC58B1012874D076
:10A4100002283CD173E1042870D0072808D04728CF
:10A42000F7D16EE0A06C0228F3D1C4F8049022E2C8
:10A430000A2906D8D4F8D00000B1012056F820002F
:10A440006062D4F8AC00B8F1000F21D000281ED013
:10A45000D4F8C00088B9642000F0A5FD064660600D
:10A46000206C18B17042208001E017E226805A204B
:10A4700000F099FD301AC4F8A400D4F8A410606864
:10A4800088427CD3D4F8C000401CC4F8C0007FE1EF
:10A4900060B3D4F8C00070B1C4F8C090C4F8C8006C
:10A4A0004E46142000F07FFDC4F8A4606060216C6B
:10A4B00001B1404220806068C0B9D4E93110401A2F
:10A4C000143000F070FDC4F8A4906060216CB1B14C
:10A4D00000212164012100913D4951F82710A16517
:10A4E000216C01B1404220804720E064D4F8A410E0
:10A4F000606888427FD33EE113E110E07DE00121F6
:10A50000E7E7D4F8AC000028C1D0B8F1000FBED006
:10A51000D4E93120801A401AC4F8CC0049E00A2955
:10A5200018D8D4F8D00000B1012056F8200060629D
:10A5300081B9D4F8D00058B164206060216C01B1B9
:10A5400040422080D4F8D400401CC4F8D40001E07C
:10A55000C4F84C90D4F8AC00B8F1000F2CD0B8B1CE
:10A56000D4F8C00000288DD1D4F8C400001D00F03C
:10A570001AFD6060216C01B14042208000E01FE0C4
:10A58000D4F8D00000283FF47DAFC4F84C9079E7B0
:10A590000C486038866CFEF7B5F910B1D4F8C400E9
:10A5A0004608304600F0FFFC6060216C01B140427B
:10A5B0002080C4F84C90EBE068B1D4F8C00050B1F2
:10A5C000062531E12801002088020020A003002098
:10A5D000C00A00200FE0D4F8A4106068884202D2BC
:10A5E000D4F8D00038B1D4F8D40001287AD9D4F8FE
:10A5F000D000002876D0042516E10A2907D8D4F81F
:10A60000D00000B1012056F82000606211B3B8F10B
:10A61000000F2FD0D4F8D00000B1012056F8200050
:10A620006062206CB8B3D4E93110401AD4F8CC1071
:10A63000461A03D5704200F0B6FC464270422080B4
:10A64000D4F8880040B38119FE48006C814241D3A0
:10A65000072536E0B8F1000FDCD1D4F8880008B146
:10A660000C25E1E00120C4F888004FF4617000F08F
:10A670009AFC6060D4F8880010B1401CC4F88800CF
:10A680000146F048006C81422CD30A25FEF73AF9C6
:10A6900048B358462FE000E006E0D4F8C40000F0CC
:10A6A00082FC06462080CBE7E64960680A6C801B86
:10A6B000904201DB082504E0096C4942884209DC2C
:10A6C0000925FEF71FF908B1584600E05046294613
:10A6D000FEF73BFB002E0BDA7042B0F5487F03DD3E
:10A6E0000D25A1E01CE005E0C0F54870606060E762
:10A6F00066605EE750462946FEF727FB48E0B8F162
:10A70000000F05D0D4F8A400814241D205258BE08A
:10A71000142000F048FC6060A4F800900320E0647E
:10A7200036E071BBC82000F03EFC00906060D4F8B9
:10A73000D00000B1012056F82000C4F81C90C4F8E5
:10A740005090C4F8409060624E46282000F02BFCE8
:10A750000099081AC4F8A400BB4850F82700A06567
:10A76000D4F8D00020B10120C4F8D460E06404E043
:10A770000720E06401E0009850B1206C10B1216B1B
:10A7800003E007E0206B88B100213846FEF742F96C
:10A79000606878B3AB49E069703151F82020216DD1
:10A7A00031B1012910D0022918D114E00121ECE7C0
:10A7B000401CE061616D884201D3E16102E06068A4
:10A7C00088420BD2012004E0616D6068884205D2A6
:10A7D0000220206502E008B1401EE061606A811835
:10A7E0003846FEF7CEF9994850F827103846FEF75C
:10A7F000CEF93DE0FFE79348816CC06C084400F05F
:10A80000D2FBB8F1000F04D0B4F90010814204DC8F
:10A810000AE0B4F90000002806DC2320A0632088A9
:10A8200060800025C4F834904E463846C4F84890FD
:10A83000FEF7B2F900213846FEF7A7F881484088B4
:10A84000F840C00708D0B4F900204FF6FF7339462E
:10A8500040F6FD70FCF764FE55B1FEF753F808B101
:10A86000584600E050462946FEF76FFA268066807B
:10A870006068002812D1E06C90B1022801D0012854
:10A880000CD1FEF73FF808B1584600E050460321CE
:10A89000FEF75BFAA4F80090A4F80290BDE8F88FE8
:10A8A000A06C02281FD1C4F84890B4F90210B4F982
:10A8B0000000814217D0D4F8D00008B1002207E090
:10A8C000FEF720F808B1012200E00022B4F90210DE
:10A8D0003846FEF7A2FF5D4850F827103846FEF7CD
:10A8E00056F90A20A065D4F8AC000028D6D0D4F8D8
:10A8F000B000A0B1FEF706F808B1012200E0002286
:10A90000B4F8B00001B23846FEF787FF4F4850F860
:10A9100027103846FEF73BF90A20A065BEE779000C
:10A92000032088404A490A8810430880B6E710B5DA
:10A93000044608280BDAFDF7E5FF0028204602D080
:10A94000BDE8104016E5BDE81040FFF7FEB910BDA8
:10A950002DE9F047DFF8F090002409F14009A9F54E
:10A96000EC6A274609F12008C4EBC400C0EB84114F
:10A970000AEB8105686898BBA86C88BBD5F8800095
:10A9800070B359F82410484649073AD550F82400C6
:10A9900000F001062046FDF7DAFFB0422FD058F84C
:10A9A00024004646401C48F8240058F82400052896
:10A9B00027DDFDF7A7FF0028204608D0FEF7ECFAB8
:10A9C00008280ED22046FEF7E7FAD5300AE0FEF757
:10A9D000E3FA082805D22046FEF7DEFAA43001E0AB
:10A9E0000FE000200121FEF7B0F946F82470C5F809
:10A9F000807095F8DA00401C85F8DA0001E048F82C
:10AA00002470641C082CAFDBBDE8F0872DE9F0470B
:10AA1000DFF844900025DFF83C802F4609F5F0660A
:10AA2000C5EBC500C0EB851009EB80046268002A05
:10AA30007ED1A26C002AFBD1D4F88020002A77D0E6
:10AA40000CE00000C8000020C00A0020880200209E
:10AA50000000002020000020A003002094F8D8204F
:10AA600032B194F8D9201AB1D4F8D020002ADFD11D
:10AA700039F92000313063285AD3F94850F82500BD
:10AA800000F00300012804D002283ED00328CFD1D3
:10AA900079E0FDF734FF08B3D8F8000010B3D4F81C
:10AAA0009800FDF72BFF10B3002000286AD056F85D
:10AAB0002500401C46F8250056F82500052837DDFE
:10AAC000FDF720FF0028284613D0FEF765FA082876
:10AAD00018D22846FEF760FAD53014E02846FDF774
:10AAE000FDFAE0E7D4E92601FDF7E0FADBE7012013
:10AAF000DBE7FEF751FA082804D22846FEF74CFAA5
:10AB0000A43000E0002001217CE0FDF7F8FE10B346
:10AB1000D8F8000018B3D4F89C00FDF7EFFE18B386
:10AB2000002078B356F82500401C46F8250000E0C8
:10AB300073E056F82500052873DDFDF7E3FE0028D5
:10AB4000284613D0FEF728FA082818D22846FEF720
:10AB500023FAD53014E02846FDF7EEFADFE7D4E912
:10AB60002601FDF7D2FADAE70120DAE7FEF714FA58
:10AB7000082804D22846FEF70FFAA43000E000208F
:10AB800014213FE04AE0FDF7BAFE28B3D8F80000F0
:10AB900030B3D4F89800FDF7B1FE30B3D4F89C0080
:10ABA000FDF7ACFE08B30020C0B356F82500401CEA
:10ABB00046F8250056F82500052832DDFDF7A2FEEF
:10ABC0000028284613D0FEF7E7F9082818D22846AF
:10ABD000FEF7E2F9D53014E02846FDF7B8FEE1E7CC
:10ABE000D4E92601FDF794FEDCE70120DCE7FEF75F
:10ABF000D3F9082804D22846FEF7CEF9A43000E0A5
:10AC000000200321FEF7A1F846F82570C4F88070F3
:10AC100094F8DA00401C84F8DA0002E0FFE746F816
:10AC200025706D1C082DFFF6FBAEEDE670B50D46E8
:10AC300000F00F00FEF7A8F90446FEF7BBF9002864
:10AC400014D015F0030106D0012909D002290AD039
:10AC500003290BD100212046BDE87040FEF7FEBB62
:10AC60006FF0C701F7E74FF4E671F4E770BD70B518
:10AC700000F00F00FEF788F9C0EBC001794AC1EB84
:10AC8000801102EB8105FEF795F9002812D0D5F866
:10AC90009800FDF7B1FD70B10024FDF730FEB8B1AA
:10ACA000D5F89C00FDF7A8FD38B10020844206D1FC
:10ACB0002CB1032070BD0124EFE70120F6E78442A8
:10ACC00004D00CB1022070BD012070BD002070BD09
:10ACD000204670BD70B50C4600F00F00FEF754F929
:10ACE0000546FEF767F9002805D021462846BDE84D
:10ACF0007040FEF7B3BB70BD10B500F00F00FEF75B
:10AD000043F90446FEF756F9002804D02046BDE872
:10AD10001040FEF75BBB10BD2DE9F0410E46082840
:10AD20005BD2FEF731F90446082856D24C4F02F0A8
:10AD30000305203F47F8205057F82000100423D483
:10AD4000214616F0030047F8210057F824104FEA77
:10AD5000810111D0012804D0022805D0032807D191
:10AD600005E06FF0C70303E04FF4E67300E0002353
:10AD700041F0030219462BE02046032147F820103A
:10AD8000BDE8F041FEF70CBC36B2FDF7B8FD18B1D6
:10AD90003548006848B112E0142E01DC022100E0C1
:10ADA0000121204647F820100CE016F1320F01DA9D
:10ADB000012504E0322E01DD022500E003252046B6
:10ADC00047F8205057F820003146800040F0030239
:10ADD0002046BDE8F041FEF7ABBEBDE8F08170B59E
:10ADE0000024224D03E02046FEF7DAFB641CA86D28
:10ADF0008442F8D370BD0020704770472DE9F041C0
:10AE00000026DFF8608035463746C5EBC500C0EB4D
:10AE1000851108EB8104A06D20B1401EA06501D111
:10AE20000A202066A06BD0B1401EA0630F2856D820
:10AE3000FDF768FDE0B10D48816CC06C084400F07E
:10AE4000B2F80146B4F9000088421CDD2846FDF73F
:10AE50007EFDB0B1606B401C0B2660631EE03EE0DF
:10AE6000000B0020A003002020000020C8000020CC
:10AE7000A06B18B10120C4F8800030E0C4F88070E5
:10AE80002DE067632BE0002808DC2846FDF75FFD16
:10AE90000028F6D1606B401C16266063606B0A28A0
:10AEA0001DD9E6B1A7636763FDF72CFD002828468E
:10AEB00008D0FEF771F808280DD22846FEF76CF886
:10AEC000D53009E0FEF768F8082804D22846FEF7D6
:10AED00063F8A43000E000203146FDF736FF6D1C1A
:10AEE000082D92DBBDE8F04132E570477047002045
:10AEF0007047022801D0042801D13049C865704745
:10AF00000020704770B5FDF770FEFDF7CAFD18B957
:10AF10002A48406BFDF7A6F8FDF7C3FD4FF4C8655E
:10AF20004FF4A07450B1FDF7EDFC18B16000FDF7CF
:10AF3000F8FB06E02046FDF7F4FB04E0FDF7E2FC39
:10AF400008B1284600E02046BDE87040FDF7D5BBBB
:10AF500010B5C0000A21B0FBF1F42046FDF7CDFB8F
:10AF6000FDF79FFD002804D02046BDE81040FDF706
:10AF7000D8BB10BD10B5C0000A22B0FBF2F451B12D
:10AF800001290DD1FDF78DFD002809D02046BDE82F
:10AF90001040FDF7C6BB2046BDE81040FDF7ADBB35
:10AFA00010BD012070470549496B884080107047EB
:10AFB00002498000496B084170470000C80000202A
:10AFC0004849002048600860704746494868096859
:10AFD0005030401A502800DB503870472DE9F041BE
:10AFE0000F460646DDF818C0FFF7EFFF4F2807DBD6
:10AFF0000021BA20FDF7A9FE4FF0FF30BDE8F08137
:10B00000384C6068384D00EB800025F810606068AF
:10B0100000EB800005EB40004780606800EB80009B
:10B0200005EB40008280606800EB800005EB40008B
:10B03000C380606800EB800005EB4000A0F808C00A
:10B040006068401C60606068502802D360685038B7
:10B0500060600020D2E700B5FFF7B7FF002810DDE1
:10B06000204908680A68521C0A600A68502A02D3FC
:10B070000A68503A0A601C4900EB800001EB40006E
:10B0800000BD002000BD01B5012269461046FDF754
:10B09000E9F808BD1FB58DE80F00042269460120BC
:10B0A000FDF7E0F81FBD1FB58DE80F0004226946CB
:10B0B0000220FDF7D7F81FBD7CB50C460546FFF70B
:10B0C00070FF30B1F020CDE9000503226946002071
:10B0D00004E0CDE90054022269460020FDF7C2F8E1
:10B0E0007CBD000038020020400B0020CA490A88BD
:10B0F000CA49098860B1012810D14EF6EE6009B145
:10B100001AB107E0824209D006E0814204D005E08E
:10B1100022B109B1AB207047012070470020704771
:10B1200070B505460E460120FFF7E0FFAB280ED0B4
:10B13000B94901EBC024B949891E01EBC02003E0E5
:10B140002168491C04D0241D8442F9D3802070BD9D
:10B150003146204601F0A1F80428F8D12946A01C68
:10B16000BDE8704001F099B870B505460E4601245F
:10B170000020FFF7BBFFAB2814D0A84AA649921EB7
:10B1800001EBC02102EBC022891C08E01088A84214
:10B1900004D132F8020C3080042402E0121F8A42EB
:10B1A000F4D8204670BD2DE9F0479D4F4FF0FF3594
:10B1B0000020411D27F81010401C80B26428F8D3ED
:10B1C000954E3288DFF854A2BAF8000095494FF640
:10B1D000FF73E2B3A2F6EE62B2F5604216D002F659
:10B1E000EF62B2F5005F0DD100286FD0A0F56E417F
:10B1F000EE3907D1304600F0F9FF042804D10021D0
:10B2000050460DE000F0B1F8BDE8F08758B1984223
:10B21000F8D1504600F0EAFF0428F5D1002130466D
:10B2200001F03BF8F0E700248846F18837F8140075
:10B23000814200D125B2AC420ED07A49FFF794FF8B
:10B24000012809D037F81400B8F8001000E011E028
:10B25000FFF766FF0428D7D1641CA4B2642CE4D3A2
:10B260000021304601F019F80428CDD106E000F0A5
:10B27000BDFFC9E70028C5D0984201D15046F6E786
:10B28000DFF89891002409F106098846B9F8001002
:10B2900037F81400814200D125B2AC420CD061498C
:10B2A000FFF762FF012807D037F81400B8F8001044
:10B2B000FFF736FF0428A7D1641CA4B2642CE5D3A1
:10B2C0000021504600F0E9FF04289DD13046CEE72A
:10B2D00070B50C460546FFF723FF802805D12146AF
:10B2E0002846BDE8704000F053B870BD2DE9F0412C
:10B2F0001546064628440F46642802DDAF20BDE807
:10B30000F0810024DFF818810CE0321907EB4401CA
:10B3100038F81200FFF728FF042802D04FF0FF3062
:10B32000EDE7641CAC42F0DB0020E8E72DE9F041DA
:10B330001546064628440F46642801DDAF20DEE7A7
:10B340000024DFF8DC800CE0321937F8141038F8EC
:10B350001200FFF7BDFF042802D04FF0FF30CEE708
:10B36000641CAC42F0DB0020C9E710B52A4C204633
:10B3700000F03CFF04280AD10021204600F08DFF98
:10B38000042804D1BDE81040244800F02FBF10BDB0
:10B390002DE9F047804600240D462046FFF7A6FE23
:10B3A0001D491E4E012802D018B1AB202CE70F46D4
:10B3B00001E037460E464EF6EE61384600F06DFF6E
:10B3C0000428F3D129464046FFF7AAFE0428EDD110
:10B3D000134DDFF8509035F8140040450CD011495A
:10B3E000FFF7C2FE012807D035F81400B9F80010A5
:10B3F000FFF796FE0428D9D1641CA4B2642CEAD3CA
:10B40000304600F0F3FE0428D0D13846BDE8F047BE
:10B41000002100F042BF0000006000080068000842
:10B42000600E002040020020064880470648004782
:10B43000FEE7FEE7FEE7FEE7FEE7FEE7FEE7FEE7E4
:10B44000FEE7FEE7157C00088971000810B50121B0
:10B450004C02204601F0E1FB2046BDE810400021EF
:10B4600001F0DBBB10B542680B7822F4807242EA2F
:10B47000032242608268B24B1A40D1E90143234360
:10B480004C7842EA440213438360C26A097B22F487
:10B490007002491EC9B242EA0151C16210BD0021C9
:10B4A0000170417041608160012101737047002982
:10B4B000816802D041F0010101E021F001018160C9
:10B4C0007047816841F0040181607047816841F0F4
:10B4D00008018160704742689A4B1A400A434260F3
:10B4E0007047416282627047426822F01F020A433D
:10B4F0004260704794490028086802D040F4000078
:10B5000001E020F400000860704770B507260929A3
:10B510000AD9C568A1F10A0404EB4404A640B54366
:10B52000A3401D43C56007E0056901EB4104A64047
:10B53000B543A3401D4305611F23072A09D2446B6D
:10B54000521E02EB820293409C4391400C434463A1
:10B5500070BD0D2A09D2046BD21F02EB8202934008
:10B560009C4391400C43046370BDC46A0D3A02EBE6
:10B57000820293409C4391400C43C46270BD0029F9
:10B58000816802D041F4801101E021F480118160D2
:10B590007047816841F4A001816070470146002036
:10B5A0008968490200D5012070470029816802D0CE
:10B5B00041F0020101E021F0020181607047426820
:10B5C000491E22F4604242EA41314160704700293D
:10B5D000416802D041F4006101E021F40061416062
:10B5E0007047C06C80B270470029816802D041F476
:10B5F000807101E021F480718160704770B5072689
:10B6000009290AD9C568A1F10A0404EB4404A6403B
:10B61000B543A3401D43C56007E0056901EB410444
:10B62000A640B543A3401D430561836BC3F301549A
:10B63000121B921C02EB82021F249440A3439140F0
:10B640000B43836370BD826B491E22F4401242EAB1
:10B6500001518163704708B508440090026008BD3D
:10B66000826822F4E0420A438260704700298168C0
:10B6700002D041F4004101E021F4004181607047B3
:10B680000029816802D041F4021101E021F4021185
:10B6900081607047014600208968890200D5012039
:10B6A00070470029416802D041F4806101E021F433
:10B6B0008061416070470029416802D041F48051A7
:10B6C00001E021F480514160704708B508442830FA
:10B6D0000090006880B208BD002A4268C9B201D05B
:10B6E0000A4300E08A434260704702460020126825
:10B6F0000A4200D001207047C9430160704710B56D
:10B700000246002054680B0AC9B20C401168194265
:10B7100002D0002C00D0012010BD6FEA1121016081
:10B720007047014600208968490700D5012070470D
:10B73000014600208968090700D5012070470000F4
:10B74000FDF7F1FFFFFD3FFF08240140FE4910B562
:10B7500088420AD101214C06204601F067FA2046B2
:10B76000BDE81040002101F061BA10BD10B50368BA
:10B77000002223F002030360036843F00103036027
:10B780004FF6FF7300E0521C4468E40701D19A426F
:10B79000F9D14268D2073ED08A79012A02683CD0AA
:10B7A00022F080020260CA79012A026838D022F0B1
:10B7B000400202600A7A012A026834D022F0200294
:10B7C00002604A7A012A026830D022F01002026038
:10B7D0008A7A012A02682CD022F008020260CA7A12
:10B7E000012A026828D022F0040202608A78CC780C
:10B7F000920742EA04620C7942EA04424C790988D1
:10B8000042EA0452491E0A43C261016821F0010163
:10B810000160002114E0002010BD42F08002C1E769
:10B8200042F04002C5E742F02002C9E742F01002B0
:10B83000CDE742F00802D1E742F00402D5E7491C07
:10B840004268D20701D09942F9D14068C007E2D1DD
:10B85000012010BDF0B5827ABC4D012191402A68CB
:10B8600042F001022A60B94E1C3632688A433260C7
:10B87000B64A047BB64B0C32A4B914688C431460EE
:10B880004488C78844EA0744877A03EBC707C7F8A8
:10B8900040460488878844EA0744877A03EBC70751
:10B8A000C7F84446047B012C12D114680C43146081
:10B8B000847A026803EBC4044FEA3242C4F840269B
:10B8C000847A426803EBC4034FEA3242C3F8442649
:10B8D0009E4AC37A121D002B136806D00B431360D7
:10B8E0009A4A0389143213B104E08B43F7E71368D3
:10B8F0008B4313600389012B02D113680B43136040
:10B90000407B012802D1306808433060286820F06D
:10B9100001002860F0BD00218171C1710172417286
:10B920008172C1728170C170032101710221417164
:10B9300001210180704785490A6842F001020A60CE
:10B940000A6843F60E739A430A600A6842EA0020C6
:10B950000860086820F0010008607047002901684D
:10B9600002D041F4803101E021F480310160704760
:10B970000029016813D041F080010160D0F88411E2
:10B9800041F48071C0F88411D0F8941141F48071B1
:10B99000C0F89411D0F8A41141F4807112E021F0A4
:10B9A00080010160D0F8841121F48071C0F8841105
:10B9B000D0F8941121F48071C0F89411D0F8A4113A
:10B9C00021F48071C0F8A411704730B50246002000
:10B9D00093685B0108D49068000101D5012003E061
:10B9E0009068C00037D5022002EB0012D2F88031F7
:10B9F00003F00103C2F880310B7A73B3D2F88041AF
:10BA00004D681C434B7A43EAC5031C43C2F880418E
:10BA10008B7A03F00F038B72D2F8843123F00F037B
:10BA2000C2F88431D2F884318C7A2343C2F884314D
:10BA3000CB7ACC6843EA0423C2F88831CB7B09690E
:10BA400043EA0121C2F88C11D2F8801141F00101C2
:10BA5000C2F8801130BD042030BDFFE7D2F880313C
:10BA60004C7A23430C8843EA4453C2F88031CFE731
:10BA7000002221B1012905D0022906D112E08268F5
:10BA8000344801E08268344802403449501A8A42FE
:10BA900014D00ADCA2B16FF0806010180FD0022819
:10BAA0000CD10FE082682E48EEE7B0F5007F09D098
:10BAB0002C49401803D0B0F5003F03D00020704758
:10BAC000022070470120704741B101290AD00229A4
:10BAD00003D1816841F4000181607047816841F0C1
:10BAE0008001F9E7816841F40041F5E710B500EB0A
:10BAF0000113D3F8B04114F004041472D3F8B04128
:10BB000044D0E4085460D3F8B04104F00204547205
:10BB1000D3F8B44104F00F049472D3F8B441240A6A
:10BB2000D474D3F8B841D472D3F8B841240A14734A
:10BB3000D3F8B841240C5473D3F8B841240E94734D
:10BB4000D3F8BC41D4730FE00064004000660040AD
:10BB5000006000400300000400030008000100082A
:10BB6000000003100001FFF7D3F8BC41240A14744D
:10BB7000D3F8BC41240C5474D3F8BC311B0E93741D
:10BB800039B1016941F02001016110BD640D1460FB
:10BB9000B9E7C16841F02001C16010BD21B1016960
:10BBA00041F0200101617047C16841F02001C1608E
:10BBB00070470246002029B1012902D1106900F026
:10BBC00003007047D068FAE700234FF6FF7221B1F7
:10BBD000012917D0022924D03AE0016821F002019E
:10BBE00041F00101016000E0521E416801F00301D3
:10BBF000012901D0002AF7D1406800F00300012894
:10BC000023D124E0016821F00301016000E0521E0D
:10BC10004168890701D0002AF9D14068800714D112
:10BC200015E0016821F0010141F00201016000E02E
:10BC3000521E416801F00301022901D0002AF7D108
:10BC4000406800F00300022801D0002300E0012337
:10BC5000184670470268002122F0010242F00202F9
:10BC60000260406800F00300022800D1012108466C
:10BC7000704702684FF6FF71002322F00202026053
:10BC800000E0491E4268920701D50029F9D14068B9
:10BC9000800700D40123184670478069C0F3021062
:10BCA000000170478069000E70478069C0F307404B
:10BCB0007047002A426901D00A4300E08A4342618A
:10BCC00070470246002011F4700F03D0926904E01F
:10BCD00001207047CB0104D552680A401103F7D107
:10BCE00070470B0101D59268F7E78B0101D5D26847
:10BCF000F3E71269F1E7534A914202D100218161D1
:10BD00007047C1F313028B0101D5C26070474B012C
:10BD100001D502617047090101D582607047426018
:10BD200070470246002053690B424AD0B1F5807F2C
:10BD30003BD013DC08292ED007DC012926D00229AC
:10BD400027D004293DD1D0682BE0102925D0202907
:10BD500026D0402935D11069102130E0B1F5004FCF
:10BD60002BD00BDCB1F5007F22D0B1F5806F22D053
:10BD7000B1F5006F25D19069702120E0B1F5803FC9
:10BD800011D0B1F5003F1CD15068E5E790682E490D
:10BD900015E0D06802E0D068DEE7106903210EE00C
:10BDA000106908210BE05068FBE79069012106E06B
:10BDB0009069022103E0906900E05068042100F0DE
:10BDC0003BB8704730B5082310240422B1F5007F3A
:10BDD0001DD010DC202929D007DC012921D004291D
:10BDE00022D0082900D1C46036E6402920D0B1F520
:10BDF000807FF9D10BE00025B1F5004F06D008DCBB
:10BE0000B1F5806F03D0B1F5006FEDD1856142606F
:10BE100022E6B1F5803F0DD0B1F5003FE4D144609A
:10BE20001AE60949816017E6C36015E6036113E667
:10BE3000046111E643600FE6024600200A4200D08A
:10BE4000012070477000F030010101004D4910B52C
:10BE500088424FF0010101D14C0701E04FF08064AE
:10BE6000204600F0E3FE2046BDE81040002100F02F
:10BE7000DDBE30B5046840F6FE738B409C43D2E9CA
:10BE800000352B43D2E9025215432B438B40234309
:10BE9000036030BD0021016041608160C160704776
:10BEA00001238B4001680AB1194300E09943016006
:10BEB00070470B0901219940002A426801D00A43CA
:10BEC00000E08A43426070470029416802D041F097
:10BED000030101E021F00301416070478A400168DD
:10BEE0000BB1114300E091430160704708B508446D
:10BEF00008300090026008BD08B508441430009076
:10BF0000026008BD082904D043EA024208440262E4
:10BF1000704743EA0222F9E708B500EB91002C30A4
:10BF20000090006880B208BD4FF480538B400168D8
:10BF30000AB1194300E09943016070478A400168E3
:10BF40000BB1114300E091430160704703460020AC
:10BF50005B6B8A40134200D0012070478A404263E5
:10BF6000704710B5034600201C688A40596B144086
:10BF7000114202D0002C00D0012010BD8A40426343
:10BF8000704700000074004001684FF6FE721140D7
:10BF900001600021016041608160C1606A496A4AB4
:10BFA0000839904203D1486840F00F0006E0664A25
:10BFB0001432904204D1486840F0F0004860704765
:10BFC000614A2832904203D1486840F47060F5E736
:10BFD0005D4A3C32904203D1486840F47040EDE73E
:10BFE000594A5032904203D1486840F47020E5E746
:10BFF000554A6432904203D1486840F47000DDE74E
:10C00000514A7832904203D1486840F07060D5E7D9
:10C010004E4A111F904203D1086840F00F0006E01D
:10C020004A4A1432904204D1086840F0F000086097
:10C030007047464A2832904203D1086840F4706045
:10C04000F5E7424A3C32904203D1086840F4704020
:10C05000EDE73E4A50329042EAD1086840F4702041
:10C06000E5E730B5026847F6F0739A430C6A8B68CF
:10C070002343D1E904452C4323438C692343CC69F2
:10C0800023434C6A23438C6A2343134303608A8906
:10C0900042600A6882604968C16030BD0021016069
:10C0A000416081608181016141618161C1610162A1
:10C0B0004162816270470029016802D041F00101AC
:10C0C00002E04FF6FE721140016070474160704718
:10C0D000406880B27047002A026801D00A4300E03D
:10C0E0008A430260704702460020D10002D51749FA
:10C0F000083901E0144908390968114200D00120CB
:10C100007047C10003D51149091F086070470E49E7
:10C1100008394860704702460020D10002D50B491B
:10C12000083901E0084908390968114200D00120A6
:10C130007047C10003D50549091F086070470249CF
:10C1400008394860704700000800024008040240B7
:10C15000FB4A116821F00301014311607047F8495F
:10C160000028086802D040F0080001E020F0080034
:10C1700008607047F2490028086802D040F01000BB
:10C1800001E020F0100008607047ED4801690906E1
:10C1900003D5EC494160EC4941607047E8480169CA
:10C1A00041F0800101617047E5490420CA68D20767
:10C1B00001D001207047CA68D20601D5022070471D
:10C1C000C9684907FBD50320704700B50346FFF750
:10C1D000EBFF02E0FFF7E8FF5B1E012803D0002B16
:10C1E00000D1052000BD002BF4D1FAE770B505465B
:10C1F0004FF430263046FFF7E8FF042810D1D04C2A
:10C20000206940F0020020616561206940F0400033
:10C2100020613046FFF7D9FF216921F00201216139
:10C2200070BD30B54FF430252846FFF7CEFF042807
:10C230000FD1C34C206940F004002061206940F018
:10C24000400020612846FFF7C0FF216921F004016A
:10C25000216130BDF8B5064600204FF4302700902C
:10C260000D463846FFF7B1FF042815D1B44C2069BC
:10C2700040F00100206135803846FFF7A6FF042812
:10C2800006D1B61C290C009631803846FFF79DFF79
:10C29000216921F001012161F8BDF0B506464FF496
:10C2A00030270D463846FFF790FF04280CD1A44CE8
:10C2B000206940F00100206135803846FFF785FF96
:10C2C000216921F001012161F0BD9D4801698905C5
:10C2D00003D49C4981609C498160704798480169FA
:10C2E00021F40071016170479548016941F40051E2
:10C2F0000161704792490020C96911F0060F00D012
:10C300000120704770B5AA24FFF7F4FF00B10024A4
:10C310004FF430263046FFF758FF042820D1884DCF
:10C32000286940F020002861286940F04000286119
:10C330003046FFF74AFF04280CD1286920F020007E
:10C340002861286940F01000286180480480304648
:10C35000FFF73BFF052803D0296921F0100129616F
:10C3600070BDF0B506464FF430270D463846FFF74E
:10C370002CFF04280ED1724C206940F0100020617F
:10C3800035803846FFF721FF052803D0216921F0C9
:10C3900010012161F0BD2DE9F041C043C7B2C0F3E7
:10C3A0000726C0F30745040E4FF430284046FFF738
:10C3B0000CFF042835D1DFF888C1DCF8101041F0FB
:10C3C0001001CCF81010FF2F07D06048083007800C
:10C3D0004046FFF7FAFE04281BD1FF2E07D05B482A
:10C3E0000A3006804046FFF7F0FE042811D1FF2DE9
:10C3F00007D056480C3005804046FFF7E6FE04287B
:10C4000007D1FF2C07D051480E3004804046FFF77B
:10C41000DCFE052805D0DCF8101021F01001CCF866
:10C420001010BDE8F08170B505464FF43026304657
:10C43000FFF7CBFE042813D1414C206940F02000C7
:10C440002061206940F0400020613046FFF7BDFECA
:10C45000042806D0052803D0216921F0200121619C
:10C4600070BD206920F020002061206940F010009C
:10C470002061364805803046FFF7A7FE0528EFD03B
:10C48000216921F01001EAE7F0B505464FF4302CA0
:10C4900016460F466046FFF798FE042814D1284C34
:10C4A000206940F0100020613D4328483543801C3E
:10C4B00045F0F80101806046FFF787FE052803D0AC
:10C4C000216921F010012161F0BD70B505464FF4DE
:10C4D00030263046FFF779FE042812D1184C206927
:10C4E00040F010002061194845F0EF01801C0180E8
:10C4F0003046FFF76AFE052803D0216921F01001BC
:10C50000216170BD70B505464FF430263046FFF707
:10C510005CFE042812D10A4C206940F01000206112
:10C520000A4845F0DF01801C01803046FFF74DFED0
:10C53000052803D0216921F01001216170BD0000A0
:10C540000020024023016745AB89EFCD00F8FF1FB3
:10C5500070B505464FF430263046FFF736FE042806
:10C56000ECD1334C206940F010002061314845F097
:10C570007F0101803046FFF728FE0528DED02169C3
:10C5800021F010012161D9E770B505464FF430263E
:10C590003046FFF71AFE0428D0D1254C206940F020
:10C5A00010002061234845F0BF0101803046FFF7AD
:10C5B0000CFE0528C2D0216921F010012161BDE7E0
:10C5C00070B505464FF430263046FFF7FEFD0428CF
:10C5D000B4D1174C206940F010002061154845F097
:10C5E000480101803046FFF7F0FD0528A6D02169FB
:10C5F00021F010012161A1E70D48C069C0F30720B7
:10C6000070470B48006A7047094A0029116901D038
:10C61000014300E0814311617047054A0146002053
:10C62000D2680A4200D0012070470149C8607047B3
:10C630000020024002F8FF1F10B5B0F1904F05D066
:10C640005449884205D10121040219E001214C041A
:10C6500016E05149884202D10121040210E04F49FD
:10C66000884202D101210C050AE04D49884202D1DD
:10C670000121440204E04B4988420AD101218C0582
:10C68000204600F0C1FA2046BDE81040002100F02D
:10C69000BBBA10BDF0B50022012603250C6806FACE
:10C6A00002F31C409C422DD10C79012C01D0022CAC
:10C6B00013D18768540005FA04FC27EA0C07876049
:10C6C0004F79A74084682743876084889C4384808F
:10C6D00084888B7993401C4384800768530005FA53
:10C6E00003F4A74307600F79D0F800C09F4047EAE2
:10C6F0000C070760C768A743C760CC799C40C36834
:10C700001C43C460521C102AC8D3F0BD4FF6FF7101
:10C71000016000210171022242718171C171704773
:10C7200008B541F480320092C261C1610099C161D3
:10C73000C169C069009008BD02460020128A0A4201
:10C7400000D001207047008A704702460020928A7C
:10C750000A4200D001207047808A7047816170478B
:10C76000018570470AB181617047018570478182F8
:10C7700070474B07DB0E9A40C90810B500EB8100EB
:10C78000016A0F249C40A1430162016A11430162C6
:10C7900010BD00000004004800080048000C0048DC
:10C7A0000010004800140048284908432849086040
:10C7B000704730B50F23C27801780125F2B1244AC1
:10C7C000126801F1E02102F4E062C2F5E062120AAF
:10C7D000C2F10404D3404278A24084781C40144340
:10C7E000220181F80024007800F01F018D404009EB
:10C7F000800000F1E020C0F8005130BD01F01F00C2
:10C8000085404809800000F1E020C0F8805130BD2B
:10C81000104A114001430E48001F016070470C4A46
:10C82000121D0029116801D0014300E0814311600D
:10C8300070474FF0E0210428086903D020F004007D
:10C840000861704740F00400FAE700000000FA05B4
:10C850000CED00E080FFFF1FF748016841F0010187
:10C860000160416801F47F0141600168F34A1140B1
:10C870000160016821F480210160416821F4FE011A
:10C880004160C16A21F00F01C162016BEC4A1140A5
:10C890000163002181607047E74900228A70887037
:10C8A000704703460020E44A59090AD001290AD0FA
:10C8B000516A03F01F02012393400B4200D0012074
:10C8C00070471168F5E7116AF3E718B500204FF4D7
:10C8D000A06400901120FFF7E4FF0099491C00912B
:10C8E000A14201D00028F5D01120FFF7DAFF00287F
:10C8F00000D0012018BDD04A116821F0F80141EAAA
:10C90000C00010607047CF4908607047CA490A6A82
:10C9100022F001020A620A6A22F004020A620A6A2A
:10C9200002430A627047C4490A6A22F018020A6286
:10C930000A6A02430A627047C34908607047BE4AE8
:10C94000536823F4741353605368084303435360DC
:10C950007047BC4908667047B74AD16A21F00F0199
:10C960000143D1627047B749C8647047B249C87182
:10C970007047B14A516821F003010143516070478B
:10C98000AD48406800F00C007047AB4A516821F098
:10C99000F001014351607047A74A516821F4E061FA
:10C9A000014351607047A44A516821F4605141EA43
:10C9B000C00050607047A0494A6822F440424A6073
:10C9C0004A6802434A6070479B494A6822F07842AD
:10C9D0004A604A6802434A60704797490A6B22F0EE
:10C9E00040020A630A6B02430A6370479249020FCE
:10C9F0000A6B06D022F020020A630A6B02430A6324
:10CA0000704722F01002F7E7010F8B4A012904D08A
:10CA1000022906D0032908D10BE0116B21F0030194
:10CA200002E0116B21F440311163116B014311637A
:10CA30007047116B21F44021F6E78249C1F8D80014
:10CA40007047F0B57C4B5968804A11F00C0103D057
:10CA5000042901D0082901D0026012E059685C68FD
:10CA600001F470114FF0020514F4803F05EB914181
:10CA700042D0DC6A04F00F04641CB2FBF4F44C43B3
:10CA8000046059680F24724E04EA1111745C016845
:10CA900021FA04F545605C68072707EA142416F8B4
:10CAA00004C025FA0CF48460D3F804C007EADC273C
:10CAB000F65DF540C5605E682F464FF0030C0CEA4A
:10CAC0009636DFF88CC1ACF1040C1CF80660B5FB9F
:10CAD000F6F505615D680CF11406C5F3C365755D77
