:020000040000FA
:10000000605800206D0200007B0200007D020000AD
:100010007F0200007F0200007F020000000000005D
:100020000000000000000000000000007F0200004F
:100030007F020000000000007F0200007F0200003D
:100040007F0200007F0200007F0200007F020000AC
:100050007F0200007F0200007F0200007F0200009C
:100060007F0200007F0200007F0200007F0200008C
:100070007F0200007F0200007F0200007F0200007C
:100080007F0200007F0200007F020000FD2D0000C3
:100090007F0200007F0200007F0200007F0200005C
:1000A0007F0200007F0200007F0200007F0200004C
:1000B0007F0200007F0200007F0200007F0200003C
:1000C0007F0200007F0200007F0200007F0200002C
:1000D0007F0200007F0200007F020000332E00003C
:1000E0007F0200007F0200007F0200007F0200000C
:1000F0007F0200007F0200007F0200007F020000FC
:100100007F0200007F0200007F0200007F020000EB
:100110007F0200007F0200007F0200007F020000DB
:100120007F0200007F0200007F0200007F020000CB
:100130007F0200007F0200007F0200007F020000BB
:1001400000000000000000000000000000000000AF
:100150007F0200007F0200007F0200007F0200009B
:10016000000000000000000000000000000000008F
:10017000000000000000000000000000000000007F
:10018000000000000000000000000000000000006F
:10019000000000000000000000000000000000005F
:1001A000000000000000000000000000000000004F
:1001B0007F0200007F0200007F0200007F0200003B
:1001C0007F0200007F0200007F0200007F0200002B
:1001D0007F0200007F0200007F0200007F0200001B
:1001E0007F0200007F0200007F0200007F0200000B
:1001F0007F0200007F0200007F0200007F020000FB
:100200007F0200007F0200007F020000000000006B
:100210007F0200007F0200007F0200007F020000DA
:100220007F0200007F0200007F0200007F020000CA
:100230007F0200007F0200007F0200007F020000BA
:100240007F0200007F0200007F0200007F020000AA
:100250007F0200007F0200007F0200007F0200009A
:100260007F0200007F0200007F0200000448016856
:1002700041F47001016000F005B8FEE7FEE7FEE71B
:1002800088ED00E000F002F800F067F80AA090E8BE
:10029000000C82448344AAF10107DA4501D100F041
:1002A0005CF8AFF2090EBAE80F0013F0010F18BFA7
:1002B000FB1A43F0010318476074000080740000CB
:1002C0000A444FF0000C10F8013B13F0070408BF7C
:1002D00010F8014B1D1108BF10F8015B641E05D01A
:1002E00010F8016B641E01F8016BF9D113F0080FCF
:1002F0001EBF10F8014BAD1C0C1B09D16D1E58BF61
:1003000001F801CBFAD505E014F8016B01F8016B97
:100310006D1EF9D59142D6D370470000002300240A
:1003200000250026103A28BF78C1FBD8520728BF05
:1003300030C148BF0B607047642906F09F8478295C
:1003400006F0D684732906F02C87002070471FB56D
:1003500006F0BCFF1FBD10B510BD06F07AFF1146B8
:10036000FFF7F5FF03F0CCFB06F098FF03B4FFF7AF
:10037000F2FF03BC06F09CFF0138FDD1704700007E
:10038000EFF3108072B67047EFF310807047EFF311
:10039000108062B6704730BF704780F31188704795
:1003A000EFF311807047000002480349034A044BF1
:1003B0007047000060520020605800206054002008
:1003C000605400200246F84BD01A9A4247D02EDCE7
:1003D000F64BA2EB03009A4249D016DCF44BA2EB99
:1003E00003009A423AD009DCB2F1402F2DD0F148F7
:1003F000104468B3B0F5805F4FD12CE0B0F5E83F12
:100400002FD0B0F5F03F48D12EE0B0F5483F1DD0D9
:1004100006DCB0F5805F2DD0B0F5B83F3DD12CE0C3
:10042000B0F54C3F15D0B0F5503F36D114E0C0F3D5
:100430000B037BBB00130C282FD2DFE800F02E1338
:1004400016191C1F21232527292C00BF102127E066
:1004500000BF112124E000BF122121E000BF1321C1
:100460001EE000BF14211BE000BF2E2118E000BFDA
:100470002F2115E000BF302112E000BF46210FE020
:1004800047210DE048210BE07F2109E0802107E0B2
:10049000842105E001E08C2102E04FF0FF3070473D
:1004A00000BF0846FBE702F001031BB1D0F800349F
:1004B0000B4302E0D0F800348B43C0F8003402F064
:1004C00002031BB1D0F820340B4302E0D0F82034F3
:1004D0008B43C0F82034704730B502460120884075
:1004E000C1B2D2F80034D2F8204403EA010008B1C6
:1004F000012000E0002004EA01050DB1022500E022
:100500000025284330BD02F001031BB1D0F80834A8
:100510000B4302E0D0F808348B43C0F8083402F0F3
:1005200002031BB1D0F804340B4302E0D0F80434CA
:100530008B43C0F8043402F004031BB1D0F80C3430
:100540000B4302E0D0F80C348B43C0F80C347047F6
:1005500070B5024601208840C1B2D2F80834D2F802
:100560000444D2F80C5403EA010008B1012000E071
:10057000002004EA01060EB1022600E00026304306
:1005800005EA01060EB1042600E00026304370BDE6
:1005900010B502F001041CB1D0F800450C4302E094
:1005A000D0F800458C43C0F8004502F002041CB1AD
:1005B000D0F804450C4302E0D0F804458C43C0F861
:1005C000044502F004041CB1D0F808450C4302E0D5
:1005D000D0F808458C43C0F8084502F008041CB167
:1005E000D0F818450C4302E0D0F818458C43C0F809
:1005F000184503F001041CB1D0F80C450C4302E08F
:10060000D0F80C458C43C0F80C4503F002041CB133
:10061000D0F810450C4302E0D0F810458C43C0F8E8
:10062000104503F004041CB1D0F814450C4302E05B
:10063000D0F814458C43C0F8144503F008041CB1ED
:10064000D0F81C450C4302E0D0F81C458C43C0F8A0
:100650001C451BB9D0F828450C4302E0D0F82845CA
:100660008C43C0F8284510BD2DE9F0414FF0010C36
:100670000CFA01FC0CF0FF01D0F80045D0F804554D
:10068000D0F80865D0F8187504EA010CBCF1000F29
:1006900002D04FF0010C01E04FF0000C05EA010818
:1006A000B8F1000F02D04FF0020801E04FF000084F
:1006B0004CEA080C06EA0108B8F1000F02D04FF02E
:1006C000040801E04FF000084CEA080C07EA0108B2
:1006D000B8F1000F02D04FF0080801E04FF0000819
:1006E0004CEA080CC2F800C0D0F80C45D0F8105500
:1006F000D0F81465D0F81C7504EA010CBCF1000FA9
:1007000002D04FF0010C01E04FF0000C05EA0108A7
:10071000B8F1000F02D04FF0020801E04FF00008DE
:100720004CEA080C06EA0108B8F1000F02D04FF0BD
:10073000040801E04FF000084CEA080C07EA010841
:10074000B8F1000F02D04FF0080801E04FF00008A8
:100750004CEA080CC3F800C0BDE8F081D0F81024C2
:100760000A43C0F810247047D0F810248A43C0F818
:1007700010247047024611B1D2F818047047D2F81D
:100780001404FBE7C0F81C14704770B504460D460E
:100790002046FFF717FE04462946204600F0AAFF30
:1007A000204601F003F870BD00B005400060024033
:1007B0000070004000B0FFBF10B504462046FFF7B0
:1007C00001FE0446204601F02DF8204600F0ACFF63
:1007D00010BD0246002000EB810010587047002336
:1007E00003EB8103C250704730B504460D4600222A
:1007F00029462046FFF757FE0023012229462046BE
:10080000FFF7C6FE30BD30B504460D46022229462C
:100810002046FFF748FE0823042229462046FFF71A
:10082000B7FE30BD30B504460D46002229462046AD
:10083000FFF739FE0023012229462046FFF7A8FED4
:1008400030BD30B504460D46022229462046FFF74A
:100850002AFE0823042229462046FFF799FE30BDD0
:1008600030B504460D46022229462046FFF71BFEFE
:100870000823042229462046FFF78AFE30BD30B502
:1008800004460D46022229462046FFF70CFE0823A7
:10089000042229462046FFF77BFE30BD30B50446D2
:1008A0000D46022229462046FFF7FDFD08230122BE
:1008B00029462046FFF76CFE30BD30B504460D4694
:1008C000002229462046FFF7EEFD08230122294693
:1008D0002046FFF75DFE30BD30B504460D460823C7
:1008E000012229462046FFF753FE012229462046D1
:1008F000FFF7D9FD30BD30B504460D46092301226E
:1009000029462046FFF744FE012229462046FFF7EC
:10091000CAFD30BD30B504460D46022229462046A8
:10092000FFF7C1FD0B23012229462046FFF730FEC9
:1009300030BD30B504460D46022229462046FFF759
:10094000B2FD81480068814908408149884206D14A
:100950000823012229462046FFF71AFE05E0092355
:10096000012229462046FFF713FE30BD30B504466C
:100970000D46022229462046FFF795FD0823012255
:1009800029462046FFF704FE30BD30B504460D462B
:10099000022229462046FFF786FD08230422294625
:1009A0002046FFF7F5FD30BD30B504460D46002268
:1009B00029462046FFF777FD0023012229462046DD
:1009C000FFF7E6FD30BD30B504460D46022229464C
:1009D0002046FFF768FD0823012229462046FFF73D
:1009E000D7FD30BD30B504460D46022229462046CB
:1009F000FFF759FD0823012229462046FFF7C8FDCD
:100A000030BD30B504460D46022229462046FFF788
:100A10004AFD0A23012229462046FFF7B9FD30BDD1
:100A200030B504460D46022229462046FFF73BFD1D
:100A30000823012229462046FFF7AAFD30BD30B524
:100A400004460D46022229462046FFF72CFD0823C6
:100A5000012229462046FFF79BFD30BD30B50446F4
:100A60000D46022229462046FFF71DFD08230122DC
:100A700029462046FFF78CFD30BD30B504460D46B3
:100A8000002229462046FFF70EFD002301222946B9
:100A90002046FFF77DFD30BD30B504460D460222ED
:100AA00029462046FFF7FFFC08230122294620465D
:100AB000FFF76EFD30BD10B50146C1F30740224B74
:100AC000DB6E01248440234033B1012303EB400358
:100AD000204C54F8230003E043001E4C54F823003C
:100AE000C1F30722D0F82C350F249440A34301F022
:100AF0000F0494402343C0F82C3510BDD0F83425A2
:100B00000A43C0F834257047D0F834258A43C0F82A
:100B100034257047D0F830250A43C0F83025704797
:100B2000D0F830258A43C0F8302570470A49C0F80C
:100B30002015FF21C0F8241570470749C0F820157B
:100B40000021C0F82415704700E00F400000FF703E
:100B500000000510D87200004B434F4C02460021A4
:100B60000AE0FC4850F83100904204D1F94800EB0B
:100B7000C10040687047491C2329F2D31046F9E7A9
:100B8000F5488068000C000200F580707047F2485C
:100B900080680004400900F5006070470146EE4897
:100BA0008069084008B1012070470020FCE7014639
:100BB00001F07040B0F1704F15D1C1F30720E74A42
:100BC000104400F0704040F00070C1F30722E34B86
:100BD0001A44C2F3130240EA4210CAB240EA820049
:100BE0000068C0B27047DE48814208D1DA48406AE6
:100BF00000F0030008B10120F4E70020F2E70F2025
:100C000000EA1170D74A52F8200000688AB2C1F396
:100C100004439A40104008B10120E3E70020E1E7D7
:100C200010B504462046FFF799FF0446C4F3072099
:100C3000CD49084400F0704040F00070C4F3072133
:100C4000C94A1144C1F3130140EA4110E1B240EA3C
:100C500081000068C0B210BD10B504462046FFF701
:100C60007DFF04460120C4F30721C04A114401F06E
:100C7000704141F00071C4F30722BC4B1A44C2F327
:100C8000130241EA4211E2B241EA8201086010BD5A
:100C900010B504462046FFF761FF04460020C4F368
:100CA0000721B24A114401F0704141F00071C4F3D0
:100CB0000722AE4B1A44C2F3130241EA4211E2B2D8
:100CC00041EA8201086010BD18B500F07041B1F131
:100CD000704F33D10121C0F30722A54B1A4402F013
:100CE000704242F00072C0F30723A14C2344C3F3C7
:100CF000130342EA4312C3B242EA830211600021A5
:100D0000009102E00099491C009100991029F9D343
:100D10000021C0F30722964B1A4402F0704242F0C1
:100D20000072C0F30723924C2344C3F3130342EA37
:100D30004312C3B242EA830211602EE00F2101EA9E
:100D400010718C4A52F82110096882B2C0F3044332
:100D50009A4011430F2202EA1072864B53F8222068
:100D600011600021009102E00099491C0091009956
:100D70001029F9D30F2101EA10717E4A52F821108F
:100D8000096882B2C0F304439A4091430F2202EAF9
:100D90001072784B53F82220116018BD10B500F086
:100DA0007041B1F1704F15D10121C0F30722724B90
:100DB0001A4402F0704242F00072C0F307236E4CF6
:100DC0002344C3F3130342EA4312C3B242EA830249
:100DD000116012E00F2101EA1071684A52F82110E7
:100DE000096882B2C0F304439A4011430F2202EA19
:100DF0001072624B53F82220116010BD10B500F044
:100E00007041B1F1704F15D10021C0F307225A4B48
:100E10001A4402F0704242F00072C0F30723564CAD
:100E20002344C3F3130342EA4312C3B242EA8302E8
:100E3000116012E00F2101EA1071504A52F821109E
:100E4000096882B2C0F304439A4091430F2202EA38
:100E500010724A4B53F82220116010BD10B500F0FB
:100E60007041B1F1704F15D10121C0F30722444BFD
:100E70001A4402F0704242F00072C0F30723404C63
:100E80002344C3F3130342EA4312C3B242EA830288
:100E9000116012E00F2101EA10713A4A52F8211054
:100EA000096882B2C0F304439A4011430F2202EA58
:100EB0001072344B53F82220116010BD10B500F0B1
:100EC0007041B1F1704F15D10021C0F307222C4BB6
:100ED0001A4402F0704242F00072C0F30723284C1B
:100EE0002344C3F3130342EA4312C3B242EA830228
:100EF000116012E00F2101EA1071224A52F821100C
:100F0000096882B2C0F304439A4091430F2202EA77
:100F100010721C4B53F82220116010BD10B500F068
:100F20007041B1F1704F31D10121C0F30722164B4E
:100F30001A4402F0704242F00072C0F30723124CD0
:100F40002344C3F3130342EA4312C3B242EA8302C7
:100F500011602EE0FC73000000E00F4000E30F4042
:100F6000010010205073000000EA0F4000E90F401C
:100F700000E50F406073000000E60F406C73000056
:100F800000E70F407873000000E80F400F2101EAEE
:100F90001071FC4A52F82110096882B2C0F3044370
:100FA0009A4011430F2202EA1072F64B53F82220A6
:100FB000116010BD10B500F07041B1F1704F15D146
:100FC0000021C0F30722F04B1A4402F0704242F0B5
:100FD0000072C0F30723EC4C2344C3F3130342EA2B
:100FE0004312C3B242EA8302116012E00F2101EA08
:100FF0001071E44A52F82110096882B2C0F3044328
:101000009A4091430F2202EA1072DE4B53F82220DD
:10101000116010BD30B1DD49096E41F00061DB4A5D
:10102000116605E0D949096E21F00061D74A1166C1
:10103000704710B5044621462C2000F05BFB2C20A5
:1010400000F0B4FB10BD10B52C2000F0EBFB2C2001
:1010500000F06AFB10BDCD49496D0143CB4A516593
:101060007047CA49496D8143C84A51657047C749AD
:1010700088657047014611B1C448806D7047C34808
:10108000006DFBE7C14948637047C048406B70473B
:10109000BF4908607047BF48BF49086000BFFEE70E
:1010A00010B5FFF778F910BD10B5BB48001D0068FA
:1010B00040F00400B849091D0860FFF76CF9B64814
:1010C000001D006820F00400B349091D086010BD30
:1010D000AE48C06D7047AD49C96D8143AB4AD1651B
:1010E000704740EA8102A94B1A637047A749C86755
:1010F00070470146A948084050B101F00040A44A99
:10110000103A1060A54881380840A04AC2F8500142
:101110009F481038016001F4007088B100BF9C48FE
:101120000C38006800F440700028F8D098480C385B
:10113000006800F44070B0F5807F01D00020704757
:101140000120FCE72DE9F04106469048006800F0D8
:10115000E04030B18D48006891490840B0F1805FAF
:1011600004D106F0004008B1BDE8F0818748056E63
:10117000046F45F4006525F4800544F400640566B9
:10118000046705F0020010B106F0020028B105F076
:10119000010010B306F00100F8B966F00300054045
:1011A0007A48056604F0004038B104F07000302839
:1011B0000AD004F07000702806D004F0004040B956
:1011C00005F03000302804D14FF48050FFF7D4F8F8
:1011D00003E04FF40020FFF7CFF825F4FE6506F496
:1011E000FE6005436F4804406E49A13106EA0100E4
:1011F000044306F0080044EAC00464480566046736
:101200001020FFF7B9F825F4405506F44050054387
:1012100024F4005406F40050044340205B498865E0
:1012200004F0004018B108460467056602E057481C
:10123000056604675C480540C14306EA01000543B2
:1012400024F0FC5406F0FC50044306F0804040B10A
:1012500045F4800524F48004544906EA010004435F
:1012600001E024F0804406F4006080B94FF40047A8
:1012700006E04648006D00F0400000B102E07F1E2D
:10128000002FF6D100BF25F4006524F400643F4828
:10129000056604671020FFF76FF800BF64E770B5BC
:1012A0003A48046E026F02F0004010B102F0700084
:1012B00001E004F03000302861D005DC48B110288E
:1012C0000DD020285CD133E060285AD0702857D147
:1012D00087E03748C4F3841650F8261086E02B4880
:1012E000006800F0E04030B1284800682C4E3040E3
:1012F000B0F1805F01D12F4919E024480068284EE1
:1013000030402D4EB04204D12048006880B20228FF
:101310000AD01E480068224E3040284EB04205D107
:101320001A48006880B208B9254900E025495DE007
:101330001648006800F0E04030B114480068184ECC
:101340003040B0F1805F01D11F4943E00F48006891
:10135000134E3040184EB04204D10C48006880B2A1
:1013600002280AD0094800680D4E3040134EB042A2
:101370002FD10648006880B250BB14492AE02AE009
:1013800032E02BE08473000000E80F4000E00F40E3
:1013900060E10F400400FA050CED00E00001008060
:1013A0000000FF708FFFFF7FFCFF3FF80000404010
:1013B00090730000C0E1E400000001100000031081
:1013C000001BB7000024F40070383900C0C62D009F
:1013D000FFE7BB490AE047F2305107E04FF48001D4
:1013E00004E04FF4004101E0002070BD00BF02F0B6
:1013F000004010B102F4006028B102F00040C8BB08
:1014000004F40060B0BBAF480068AF4E3040AF4E50
:10141000B04218D1AE480368AA48D0F8645105F02C
:101420001F00401CC5F30426761C10FB06F040008C
:10143000B1FBF0F1C3F309004843C3F389264E43DF
:1014400000EB962128E09F48436E006800F0E040E2
:1014500030B19C4800689C4E3040B0F1805F0AD1AA
:10146000C3F34810801C484303F01F06B61CB0FBB2
:10147000F6F109E012E0C3F34810484303F01F06F9
:10148000761C7600B0FBF6F103F4804000B1490809
:1014900003F4004000B1890844F4800404F480009F
:1014A00018B302F00040D8B102F0804090B102F0D1
:1014B000004010B102F4006028B102F0004048B9C9
:1014C00004F4006030B94E00C2F38650401CB6FBF5
:1014D000F0F10AE0C2F3C550401CB1FBF0F104E0AA
:1014E000C4F3C350401CB1FBF0F108467DE77849D6
:1014F0001C39086070477349096E21F4F0110143EB
:10150000704A116670476F48006E00F4801008B989
:10151000002070476B48006E00F4F010F9E76C494A
:101520006039096821F470610143664AC2F800110C
:1015300067495039096821F470610143C2F81011FC
:10154000704763486038006800F47060704730B1DD
:101550005C49096E41F008015A4A116605E0594993
:10156000096E21F00801574A1166704730B155499C
:10157000096E41F00401534A116605E05149096EB4
:1015800021F004014F4A1166704730B14D49096E90
:1015900041F480614B4A116605E04A49096E21F425
:1015A0008061484A11667047012049491039086036
:1015B00000204449C1F8500170474249C96E82B2C7
:1015C0001143404AD16670473E49C96E82B2914389
:1015D0003C4AD16670473B48006F20F4804039494F
:1015E000086770473748006F40F480403549086706
:1015F000704770B502460B4623B90020344E1036B2
:10160000306070BDBAB92F48456E006EC0F38410CB
:10161000304E56F82020C5F34810504305F01F0601
:10162000761CB0FBF6F205F4804000B1520805F4D8
:10163000004000B192080120C0EB53100244B2FBFD
:10164000F3F120480068204E3040234EB0420BD1C9
:101650001C48006880B240F20116B04204D1FF2954
:1016600002D9FF210F240BE0B1F5806F03D340F2C4
:10167000FF310F2404E001FB13200001B0FBF3F461
:101680004FF0004040EA015040EA044040F400407E
:1016900040EA011020430E4E103630600120C0EBAE
:1016A0005310121A04EB0111B2FBF1F003011809F7
:1016B00000FB11200001B0FBF1F003441846A0E745
:1016C00000093D0000E00F400000FF700000051021
:1016D00060E10F40907300000000041000BFFEE7BF
:1016E00010B5FEF754FEC0B210BD10B5FEF748FEAF
:1016F000C0B210BD30B50246994C2468994DAC4239
:101700000ED0974C2368002005E053F82040954DFB
:1017100045F82040401C9B28F7D3924C904D2C60FC
:10172000904C44F8221030BD8F498E4A42F8201068
:1017300070478E4951F820108D4A1143884A121D76
:1017400011607047864A121D126802F4E0610020A1
:1017500006E0864A52F820208A4200D102E0401C6E
:101760000828F6D300BF704710B50A468308814C9D
:1017700054F8233019688307DC0EFF23A3409943F4
:101780008307DB0E02FA03F319438308794C54F8FC
:101790002330196010BD01468808764A52F82000AF
:1017A00000688A07D20ED040C0B27047042808D122
:1017B0006B491C31096841F48031694A1C3211605F
:1017C0002FE0052808D166491C31096841F4003131
:1017D000634A1C32116024E0062808D160491C319C
:1017E000096841F480215E4A1C32116019E00F281B
:1017F00008D14FF0E021096941F002014FF0E022E9
:1018000011610EE010280CD3A0F1100101F01F02AD
:1018100001219140A0F110025209574B53F82220A8
:1018200011607047042808D14D491C31096821F422
:1018300080314B4A1C3211602FE0052808D14849FD
:101840001C31096821F40031454A1C32116024E042
:10185000062808D142491C31096821F48021404AF8
:101860001C32116019E00F2808D14FF0E0210969FE
:1018700021F002014FF0E02211610EE010280CD39C
:10188000A0F1100101F01F0201219140A0F110020E
:1018900052093A4B53F8222011607047022808D1B0
:1018A0002F49091F096841F000412D4A121F11609C
:1018B00024E00E2808D12A49091F096841F0805107
:1018C000274A121F116019E00F2808D12449091F67
:1018D000096841F08061224A121F11600EE0102851
:1018E0000CD3A0F1100101F01F0201219140A0F1E1
:1018F00010025209224B53F82220116070470E2823
:1019000008D11749091F096841F00061144A121FE4
:10191000116019E00F2808D11149091F096841F029
:1019200000710F4A121F11600EE010280CD3A0F1B5
:10193000100101F01F0201219140A0F11002520993
:10194000104B53F822201160704710B50446204612
:10195000FEF723FD10BD10B5FEF722FD10BD0000FF
:1019600008ED00E0000C0020DD16000014750000FA
:101970000000FA0534750000C8750000DC75000031
:10198000F075000004760000024600210AE0AD4830
:1019900050F83100904204D1AA4800EBC1004068E1
:1019A0007047491C0C29F2D34FF0FF30F8E7C268AA
:1019B00040F201130B401A43C2607047C26840F204
:1019C00001130B409A43C2607047C26840F2011392
:1019D0009A43C2600A0E0260CAB242F400724260C8
:1019E000C1F3072242F400728260704744F2400360
:1019F000194012B1C3680B4301E0C3688B43C36055
:101A0000704742F22003194012B1C3680B4301E052
:101A1000C3688B43C360704710B540F60C43194050
:101A2000C3688B4302EA01042343C36010BD40F244
:101A30000223194012B1C3680B4301E0C3688B4312
:101A4000C3607047CBB24BB122B1436843F040034F
:101A5000436003E0436823F04003436001F47F43A5
:101A60004BB122B1836843F04003836003E0836895
:101A700023F0400383607047C16841F01001C160EA
:101A80007047C16821F01001C1607047CBB203B14B
:101A9000826301F47F4303B1C26370470246FF29AA
:101AA00001D1906B7047D06BFCE7CBB203B10264FD
:101AB00001F47F4303B1426470470246FF2901D11C
:101AC000106C7047506CFCE7CBB203B1826201F43A
:101AD0007F4303B1C26270470246FF2901D1906A79
:101AE0007047D06AFCE7C3628262704730B5034634
:101AF00000BFDA6A9C6ADD6AAA42FAD10020014678
:101B00002043114330BD0246FF2901D1906C70473C
:101B1000D06CFCE730B5034600BFDA6C9C6CDD6C22
:101B2000AA42FAD1002001462043114330BDCBB276
:101B300003B1026301F47F4303B14263704702467D
:101B4000FF2901D1106B7047506BFCE743630263C0
:101B5000704730B5034600BF5A6B1C6B5D6BAA42E1
:101B6000FAD1002001462043114330BD70B5044630
:101B70000D4616462046FFF707FF0446E8B230B18F
:101B800031462046FFF7B6FD2046FFF70FFE05F46D
:101B90007F4030B13146601CFFF7ACFD601CFFF7A1
:101BA00005FE70BD70B505460C462846FFF7ECFEF5
:101BB0000546E0B228B12846FFF734FE2846FFF775
:101BC000B3FD04F47F4028B1681CFFF72BFE681CAE
:101BD000FFF7AAFD70BD82690A438261704782697E
:101BE0008A4382617047024609B1106A7047D06922
:101BF000FCE7416270470161704710B50446002060
:101C0000E060A061401E6062010C2046FFF7CAFF41
:101C1000002020606060A060E0612062401EA06241
:101C2000000CE0624FF0FF302063000C6063002086
:101C3000A063E06320646064401EA064000CE06464
:101C400010BD000018760000024600210AE0594845
:101C500050F83100904204D1564800EBC100406872
:101C60007047491C0429F2D34FF0FF30F8E72DE903
:101C7000F04F0E46DDE909C8022B02D14FF0080AE9
:101C800001E04FF0000A544613B94FF0000A01E09A
:101C90004FF0040A4AEA04044460B6FBFCF7002152
:101CA00000BF891CB7FBF1FAAAF10105FF2DF8D896
:101CB00001614FEA827A4FEA1A6902F0300249EA7A
:101CC000052A4AEA020AA8F1010B4AEA0B04046059
:101CD000BDE8F08F416841F0020141607047416802
:101CE00021F002014160704770B504460D46204660
:101CF000FFF7AAFF064629463046FFF7FBFC3046B1
:101D0000FFF754FD70BD70B504462046FFF79CFFF9
:101D100005462846FFF786FD2846FFF705FD70BDFE
:101D200042690A434261704742698A43426170478F
:101D3000024609B1D06970479069FCE701627047BB
:101D400000BFC26802F00202002AFAD08160704728
:101D50000246D06800F0020010B191600120704787
:101D60000020FCE700BFC26802F00402002AFAD09B
:101D700082680A6070470246D06800F0040018B11B
:101D800090680860012070470020FCE7426A0A431F
:101D900042627047426A8A43426270470146C8689D
:101DA000C0F300107047C0F8C81F70470146D1F853
:101DB000C80F7047787600000146FD4A0A4432B1E8
:101DC000B2F5805F05D0B2F5005F06D103E03720A1
:101DD00006E0382004E0392002E04FF0FF3000BF79
:101DE00000BF7047F8B50446200B0003FFF7E4FF7F
:101DF0000746002616B13846FFF714FD206800207C
:101E0000009002E00098401C009000980528F9D34B
:101E1000256816B13846FFF7C9FC2846F8BD08B555
:101E200001600022009202E0009A521C0092009A87
:101E3000052AF9D308BD2DE9F04105460F4616469F
:101E400000240FE02046641C15F80080B44204D240
:101E50002046641C285C48EA002838463F1D41465D
:101E6000FFF7DDFFB442EDD3BDE8F0812DE9F0418D
:101E700006468846174600240FE0404608F104084D
:101E8000FFF7B0FF05462046641C3554BC4204D21F
:101E9000C5F307222046641C3254BC42EDD3BDE892
:101EA000F08170B5044601212046FFF7B8FF00BF5E
:101EB00004F12000FFF796FF00F400400028F7D15E
:101EC000B02104F12400FFF7AAFF002104F134003F
:101ED000FFF7A5FF002104F13800FFF7A0FF01255F
:101EE0000EE000BF04F12000FFF77CFF00F400408B
:101EF0000028F7D1294604F12000FFF790FF6D1C60
:101F0000202DEED90C2104F12400FFF788FF0125D4
:101F10000EE000BF04F12000FFF764FF00F4004072
:101F20000028F7D1294604F12000FFF778FF6D1C47
:101F3000202DEED9201DFFF755FF70BD70B504466A
:101F40002046FFF74FFF20F0010529462046FFF706
:101F500066FF70BD70B504462046FFF743FF40F0B2
:101F6000010529462046FFF75AFF70BD70B50646A9
:101F70000C4606F10C00FFF735FF0546C5F30230AD
:101F8000401C6060C5F30320401C2060C5F3811035
:101F9000401CA06006F11800FFF724FF00F00F01BD
:101FA000284661F39F10401CE06070BD2DE9F05F92
:101FB000044688469146B8FBF9F5B8FBF5F048456C
:101FC00000D96D1C34E013262FE0B5FBF6F707FBB4
:101FD00006F0A84228D1301F764931F810B02046CB
:101FE000FFF700FF1FFA80FA4AF041012046FFF791
:101FF00016FF781E00F03F0040EA0B0B594604F133
:102000000C00FFF70CFF781EC0F3831104F11800D9
:10201000FFF705FF51462046FFF701FF07FB06F0DB
:10202000B8FBF0F0BDE8F09F761E042ECDD26D1CFB
:10203000B5F5984FC7D90020F4E72DE9F0410446E3
:102040000D462046FFF7CEFE064646F041012046EB
:10205000FFF7E5FE6868401E4FF4E04101EA0037F3
:102060002868401E4FF4706101EA00200743A86809
:10207000401EC02101EA80100743287B401E00F06B
:102080003F000743394604F10C00FFF7C8FEA8895A
:10209000401EC0F3831104F11800FFF7C0FE26F0C4
:1020A000400606F0010008B126F001063146204640
:1020B000FFF7B5FEBDE8F08170B504460D46204639
:1020C000FFF77AFE064629463046FFF713FB3046F7
:1020D000FFF76CFB70BD70B504462046FFF76CFE41
:1020E00005462846FFF79EFB2846FFF71DFB70BDFF
:1020F00070B504460D462046FFF774FE40EA05061B
:1021000031462046FFF78BFE70BD70B504460D4684
:102110002046FFF767FE20EA050631462046FFF716
:102120007EFE70BD70B504460E4616B1012E12D16A
:1021300005E004F11000FFF755FE05460DE004F53B
:10214000A070FFF74FFE85B204F5A270FFF74AFEBC
:1021500045EA004501E0002500BF00BF284670BDEC
:1021600070B504460D46B5F5004F03D1201DFFF7AD
:1021700039FE1CE000BF04F12000FFF733FE00F43D
:1021800000400028F7D1082104F12400FFF747FEA2
:1021900005F03F0104F12000FFF741FE00BF04F10C
:1021A0002000FFF71FFE00F400400028F7D170BDAB
:1021B0000000FCBF9876000070B504460E4620462D
:1021C000FFF710FE054616B125F0200501E045F0A9
:1021D000200529462046FFF722FE70BD10B50446B3
:1021E0002046FFF7FFFD00F0200008B1002010BDE1
:1021F0000120FCE770B504460E4636B1012E0ED024
:10220000022E18D0032E2ED121E0201DFFF7EAFD6B
:1022100005466FF01F01201DFFF701FE25E004F5C4
:102220008070FFF7DFFD054604F58270FFF7DAFDE9
:1022300045EA004519E004F59070FFF7D3FD054627
:1022400004F59270FFF7CEFD45EA00450DE004F578
:10225000B070FFF7C7FD054604F5B270FFF7C2FD89
:1022600045EA004501E0002500BF00BF284670BDDB
:102270002DE9F04107460D46164607F10800FFF725
:10228000B1FD0446C4F306202860E0B2306004F4D7
:10229000004010B10120BDE8F0810020FBE72DE9EE
:1022A000FF4F83B0054614469B460020009000BFB8
:1022B00005F12000FFF796FD00F400400028F7D15B
:1022C0002068B0F5006F03D2207A00F0040010B14E
:1022D0004FF0010A01E04FF0000A4FF09308002090
:1022E00001900027002602908146BBF1050F23D202
:1022F000DFE80BF0030A0E101B0046F480764FF463
:102300000057012000901AE046F48076002716E07E
:10231000002714E04FF400577E104FF6FF70029034
:1023200041F6FF7948F0400809E04FF400574FF4B8
:1023300090560120009002E007B0BDE8F08F00BF8A
:10234000207A00F0080080B1BAF1000F06D0A08812
:1023500080B202906068C0F30C4906E00020029051
:1023600041F6FF71606801EA8009207A00F02800D8
:10237000282801D149F40049207A00F018001828D3
:1023800001D149F48049207A00F0380018B146F4B0
:10239000805648F0400848F02008BAF1000F0BD0F2
:1023A000208880B20199084301902068C0F30C4056
:1023B000074347F4404707E041F6FF71206801EA10
:1023C0008000074347F40047207B00F00F000643DE
:1023D000208900F4007008B946F08006207A00F0E9
:1023E000010008B146F40066207A00F0020008B14E
:1023F00046F48066009828B105F13C01D4E9032039
:10240000FFF719FD414605F12400FFF708FD05F12E
:1024100028000299FFF703FD494605F12C00FFF75C
:10242000FEFC05F130000199FFF7F9FC394605F192
:102430003400FFF7F4FC314605F13800FFF7EFFCFC
:10244000049800F03F0105F12000FFF7E8FC00BF11
:1024500072E72DE9FC5F0546894614469A467320CB
:102460000190BAF1000F03D0019840F008000190EC
:1024700005F184000199FFF7D2FC09F03F0105F155
:102480008000FFF7CCFC00BF05F18000FFF7AAFC3D
:1024900000F400400028F7D105F18800FFF7A2FC06
:1024A00080B2009005F18C00FFF79CFC1FFA80F8C9
:1024B00005F19000FFF796FC1FFA80FB05F19400F0
:1024C000FFF790FC87B205F19800FFF78BFC86B20E
:1024D0000020A06006F4807010B907F4005028B9FD
:1024E00006F4807030B107F4005018B9A06840F0CD
:1024F0004000A06007F4804048B1C7F30C004BEAED
:1025000000402060A06840F00400A06002E0C7F333
:102510008A00206006F4804018B1A06840F4807002
:10252000A06006F48050A0B307F4804098B1C8F3CF
:102530000C01009840EA014060606FF06041606803
:10254000884203D1207A00F04000A0B9A06840F092
:102550000800A0600FE0C8F38A00606040F2FF71DD
:102560006068884203D1207A00F0400018B9A06862
:1025700040F00800A06008F4004018B1A06840F0E6
:102580002800A06008F4804018B1A06840F018004E
:10259000A06006F4006018B1A06840F00100A060DF
:1025A00006F4806018B1A06840F00200A06006F454
:1025B000004028B306F00F00E060207A00F04000F1
:1025C00028B905F19C01D4E90320FFF74FFC042151
:1025D00005F18400FFF723FC09F03F0105F18000BD
:1025E000FFF71DFC00BF05F18000FFF7FBFB00F4C7
:1025F00000400028F7D1A06840F08000A06001E012
:102600000020E060BDE8FC9F70B504460D4600BFA9
:1026100004F12000FFF7E6FB00F400400028F7D1AA
:10262000A02104F12400FFF7FAFB002104F130009F
:10263000FFF7F5FB002104F13400FFF7F0FB05F094
:102640003F0104F12000FFF7EAFB70BD70B50446BE
:10265000E10901208840C5430A20FDF78DFE0320D3
:10266000C64908600A20FDF787FEC548C0F8C05279
:102670000A20FDF781FE0020C04908600A20FDF70E
:102680007BFE70BD10B50A20FDF776FE0320BB4926
:1026900008600A20FDF770FE0020B949C1F8C002A9
:1026A0000A20FDF769FE0020B44908600A20FDF702
:1026B00063FE10BD00BFB348806900F00100002830
:1026C000F9D1704710B50220FDF756FEFFF7F2FF73
:1026D000AC48C46904F00C0080B1AB48FEF7F4FAD2
:1026E0000220FDF749FEFFF7E5FFA648C46904F0A4
:1026F0000C0008B1022010BD0120FCE70020FAE721
:10270000A04800680004800B70479E480068C0F332
:102710000A40704710B58B099A4C6360C1F383037C
:10272000A36092080CE0974B5B690360001D521E8A
:10273000944B9B6823B9934B5B685B1C914C636023
:10274000002AF0D110BD2DE9F04107460C46154690
:102750008E4800688E4908408E49884206D18B48D1
:10276000006880B210B92046FFF770FFA0098549C4
:102770004860C4F383008860AD0826E0814938686A
:10278000486100BF7F48866906F001000028F9D142
:1027900006F4887078B17D4800687D4908407D491D
:1027A000884205D17948006880B208B9FFF76AFF0E
:1027B0003046BDE8F0813F1D6D1E7248806820B92B
:1027C00070484068401C6F494860002DD6D16F4862
:1027D00000686F4908406F49884205D16B4800681E
:1027E00080B208B9FFF74EFF66488069E1E770B52F
:1027F00005460C46654800686549084065498842B9
:1028000006D16248006880B210B92046FFF71EFF6B
:10281000A0095C494860C4F38300886008464561AC
:10282000806970BD10B55C48564980310860FFF77B
:1028300041FF5548FEF748FA0220FDF79DFDFFF7DE
:1028400039FF5048806910BD01464E484160006B19
:10285000704702464B484260016300BF49488069A7
:1028600000F001000028F9D146488069704710B592
:10287000034644484360434C34340BE0086820600E
:10288000091D241D521E00BF3E48806900F0010052
:102890000028F9D1002AF1D13A48806910BD0146DB
:1028A000384841604FF0FF30364A10621046006AE7
:1028B000704710B50346334843604FF0FF30314C4A
:1028C0002062501E01EB800104E051F804092D4CF8
:1028D0002062521E002AF8D12A48006A10BD012148
:1028E0008140284A116570472649096C41F0010171
:1028F000244A11642149FC39096941F004011F4A45
:10290000FC3A116170471D49FC39096921F0040145
:102910001A4AFC3A11611B49096C21F00101194A5C
:1029200011647047014649B11448FC38406900F011
:10293000040008B1042070470020FCE711488069BA
:1029400000F0010008B10020F5E70420F3E710B51E
:10295000044604200949FC3948610C4800680C49C8
:1029600008400C49884205D10848006880B208B97F
:10297000FFF788FE10BD034880697047FCD00F4008
:1029800000E00A4000F00A40005800F000E00F406C
:102990000000FF700000051001007BE310B5FE4849
:1029A000FEF7FCF940F60200FEF785F840F602401B
:1029B000FEF781F841F20200FEF77DF841F2024095
:1029C000FEF779F83C214FF04020FEF729F8F24855
:1029D000C01DFEF7E3F90821F048FDF77DFF042153
:1029E000EE48FDF779FFEC481F30FEF7D7F90121DB
:1029F000EB48FDF762FF0221E948FDF76DFF082172
:102A00004FF04020FDF768FF10BD10B586B0E248DA
:102A10000F30FEF7C3F9E348FEF74DF8E248FEF742
:102A20004AF83021E148FDF7EEFEE148FEF7B6F93D
:102A3000E048FFF736FAFEF732FC0446DE4A21464C
:102A4000DC48FFF7B3FA0221DA48FFF751FB3720E1
:102A5000FEF7ACFED748FFF771FA00213720FEF7EA
:102A600083FEFEF73DFE0020019002900A200390B5
:102A700008200490022301AA0121CE48FFF70FFC91
:102A8000002006B010BD70B586B006460C4615464F
:102A900001960494002002900595082003900023DD
:102AA00001AA0F21C348FFF7FAFB06B070BD1CB5A1
:102AB000C248FEF773F9FEF7F2FB04460820BE4950
:102AC00000231A46CDE900102146BD48FFF7CFF894
:102AD000BB48FFF7FFF81CBD1CB5B848FEF75EF910
:102AE000FEF7DDFB04460820B64900231A46CDE96F
:102AF00000102146B248FFF7BAF8B148FFF7EAF8EC
:102B00001CBD38B504462146AD48FFF719F96946A2
:102B1000AB48FFF727F9009838BD10B5AA48FEF773
:102B20003DF9FFF7CFFD044610BD70B504460D46D4
:102B30001646324629462046FFF7ECFD70BD70B5BB
:102B400004460D461646324629462046FFF7FBFD51
:102B500070BD10B59D48FEF721F99D499D48FEF7CF
:102B600034FFFEF79CFB42F21071B0FBF1F42246F9
:102B7000FF219848FEF7A8FF03212320FEF7F4FD6C
:102B800001219448FFF727F82320FEF70FFEFF21CD
:102B90009048FEF70CFF10BD10B504460CB108209C
:102BA00000E00020024608217C48FDF718FE0020C6
:102BB00010BD10B588480068401C87490860084669
:102BC0000068B0F57A7F0DDD00200860834800685A
:102BD000FFF7E2FF8148006808B9012000E000200B
:102BE0007E49086010BD10B57D48006820B17C4862
:102BF000007800F0010010BD04216848FDF75DFE7B
:102C000004216648FDF7E5FD10B101207449086014
:102C10007348006840F080007149086004215F48F3
:102C2000FDF75AFE6E48007800F00100E3E710B5AA
:102C300004460CB1042000E000200246042157485D
:102C4000FDF7CDFD10BD70B50446FFF7CCFF60B1B8
:102C50000CB1642C06DB2046FFF7E9FF0020614938
:102C6000086001E05F48046070BD00205D490860B5
:102C7000C4EB0420642190FBF1F5284600F078FDB8
:102C800000BFF1E710B55748006800B910BD5648BD
:102C90000068401C5449086008460068642804DB4A
:102CA000002008600120FFF7C2FF4F4800684D492F
:102CB0000968884202D10020FFF7B9FF00BFE5E7AD
:102CC00010B504460CB1022000E0002002460221AB
:102CD0003348FDF784FD10BD10B504460CB1082043
:102CE00000E00020024608214FF04020FDF777FD6C
:102CF00010BD10B501212A48FDF76BFD08B9012070
:102D000010BD0020FCE73949086000BF3749096859
:102D10000029FBDC704710B535480068401C344979
:102D20000860FFF7AFFF02F0D1FB32480068401C9B
:102D3000304908600A2800DA10BD00202D490860DB
:102D4000FFF737FF00F060FE28480068002804DD28
:102D500026480068401E2549086000BFECE724486B
:102D60000068704710B52448FEF7ECF9FFF716FE2F
:102D7000FFF74BFEFFF79BFEFFF7CFFEFFF7E9FEE5
:102D800000F00EFDFFF7A8FE3C20FFF75CFF00F00F
:102D900084FD002010BD00000100002000700040F4
:102DA00000500240081004000814040000400240D3
:102DB000000110000000044040420F00100000100D
:102DC0000080004000127A00005800F0010010104E
:102DD0002200000400000340100000201400002026
:102DE00018000020080000200C0000200000002037
:102DF000040000201C0000208003C00110B5012148
:102E00001948FEF7F6FEFFF786FF10BD30B587B014
:102E100004460D46CDF818D0012302AA29462046C3
:102E2000FFF717FB6A460599029802F052FA07B0BD
:102E300030BD10B500210D48FFF774F90446B4F514
:102E4000004F05D100210948FFF7D4F9044609E0F5
:102E5000012C07D101210548FFF7D8FF01210348C4
:102E6000FFF77EF910BD00000000034000000440A1
:102E7000002000E0401C0A28FCDB7047002000E036
:102E8000401C41F288318842FADB7047002000E0A4
:102E9000401C41F288318842FADB704710B5044685
:102EA0000020FFF719FF8020FFF72BFE2046FFF7D9
:102EB00028FE0120FFF710FF10BD10B504460020CA
:102EC000FFF70AFF0020FFF71CFE2046FFF719FE60
:102ED0000120FFF701FF10BD70B505460020FFF788
:102EE000FBFE4020FFF70DFE0020FFF70AFE044620
:102EF0000120FFF7F1FE204670BD10B5044600200A
:102F0000FFF7EAFE0020FFF7FCFD2012FFF7F9FDB6
:102F10000120FFF7E1FE0020FFF7DEFE0020FFF7B3
:102F2000F0FD2046FFF7EDFD0120FFF7D5FE10BDB7
:102F300010B50020FFF7D0FE4020FFF7E2FD002093
:102F4000FFF7DFFD04460120FFF7C6FE204610BD57
:102F500070B505460C460020FFF7BEFE8020FFF747
:102F6000D0FD2846FFF7CDFD0120FFF7B5FE00207C
:102F7000FFF7B2FE0020FFF7C4FD2046FFF7C1FDBA
:102F80000120FFF7A9FE70BD70B504460020FFF7D1
:102F9000A3FE8020FFF7B5FD2046FFF7B2FD01201C
:102FA000FFF79AFE0020FFF797FE4020FFF7A9FDEC
:102FB0000020FFF7A6FD05460120FFF78DFE2846FD
:102FC00070BD10B50020FFF787FEC020FFF799FD08
:102FD0000020FFF796FD04460120FFF77DFE204606
:102FE00010BD10B50020FFF7CFFF10BD70B504462F
:102FF0000D4621464620FFF7ABFF21124720FFF781
:10300000A7FF29464820FFF7A3FF29124920FFF711
:103010009FFF70BD70B504460D4621464A20FFF75C
:1030200097FF21124B20FFF793FF29464C20FFF713
:103030008FFF29124D20FFF78BFF70BD70B504463E
:103040000D4621462A20FFF783FF21122B20FFF790
:103050007FFF29462C20FFF77BFF29122D20FFF749
:1030600077FF70BD70B504460D4621468020FFF7FE
:103070006FFF21128120FFF76BFF29468220FFF7A7
:1030800067FF29128320FFF763FF70BD2DE9F04130
:1030900004460D4616461F46DDF818802146582086
:1030A000FFF756FF21125920FFF752FF29465A20F9
:1030B000FFF74EFFB8F1000F04D129125B20FFF794
:1030C00047FF05E0802040EA25215B20FFF740FF15
:1030D00039465C20FFF73CFF39125D20FFF738FFCF
:1030E00031465E20FFF734FF31125F20FFF730FFDB
:1030F000BDE8F08110B5044621465120FFF728FFB6
:1031000010BD10B50446C4F3C4216320FFF720FFAF
:10311000C4F345116420FFF71BFF04F01F01652075
:10312000FFF716FF10BD10B50446C4F3C42160209C
:10313000FFF70EFFC4F345116120FFF709FF04F00C
:103140001F016220FFF704FF10BD10B55020FFF7EC
:10315000A5FE8020FFF7B1FE10BD10B500BFFFF740
:1031600030FF00F040004028F9D010BD002070472B
:1031700010B500BFFFF725FF00F080008028F9D0D0
:1031800010BD10B55220FFF7FFFE00F0F8042146F5
:103190005220FFF7DDFE10BD10B55220FFF7F4FE00
:1031A00000F0F800441C21465220FFF7D1FE10BD6C
:1031B00010B50421F020FFF7CBFE04217120FFF7AA
:1031C000C7FEA3217020FFF7C3FE10BD10B5F1208C
:1031D000FFF7DAFE00F0040010BD70B5F120FFF734
:1031E000D3FE00F00400C0B17420FFF7CDFE054609
:1031F0007220FFF7C9FE0446A40005F00300044452
:10320000F94804607320FFF7BFFE0446A400C5F32D
:1032100081000444F548046004E00020F24908609D
:10322000F2490860F148006838B1F120FFF736FE36
:103230000420FFF742FEFFF729FEEB48006870BD4F
:10324000EA48006870472DE9F04105460E464FF008
:10325000030800BFF120FFF797FE00F0040000B361
:103260007420FFF791FE07467220FFF78DFE04469B
:10327000A40007F00300044405B12C607320FFF79D
:1032800083FE0446A400C7F38100044406B1346001
:103290000421F120FFF75CFEFFF7F8FD0120BDE8F7
:1032A000F081A8F10100B0F1000800DDD2E70020B4
:1032B000F5E710B580210120FFF74AFE10BD10B5DB
:1032C00000210120FFF744FE10BD70B505460E46F3
:1032D000144631462846FFF789FE0220FFF7DEFD3F
:1032E0002046FFF70AFE70BD70B504460D4629461C
:1032F0002046FFF78FFE0220FFF7D0FDFFF718FEF4
:103300000646304670BD38B5044600200090B848E7
:103310000368B8480268B8480168B8480068FFF711
:10332000B5FE0C20FFF7E6FE2046FFF7EAFEFFF7AA
:103330000CFFFFF712FF38BD704770472DE9F041D1
:1033400004460D4616461F4621463020FFF700FE74
:1033500021123120FFF7FCFD29463220FFF7F8FD4E
:1033600029123320FFF7F4FD3819A0F10108414676
:103370003420FFF7EDFD4FEA28213520FFF7E8FD67
:103380007019A0F1010841463620FFF7E1FD4FEA30
:1033900028213720FFF7DCFD29462046FFF726FECF
:1033A000964804609448056092480660904807601B
:1033B000BDE8F08110B58E4803688E480021026890
:1033C0000846FFF7BBFF10BD2DE9F0478046894650
:1033D00014461D46DDF820A000262B46224649460D
:1033E0004046FFF7ABFF0220FFF758FD574600BFEE
:1033F00003E001CFFFF781FD761C04FB05F0B0422E
:10340000F7D8FFF7D7FFBDE8F0872DE9F04704466E
:103410000F4615461E46DDE9088921469120FFF733
:1034200097FD21129220FFF793FD39469320FFF775
:103430008FFD39129420FFF78BFD29469520FFF769
:1034400087FD29129620FFF783FD31469720FFF76D
:103450007FFD31129820FFF77BFD4046FFF751FEBC
:1034600080219020FFF774FDFFF782FEBDE8F08712
:103470002DE9F05F04460F4615461E46DDE90CAB0C
:10348000DDE90A8921469120FFF762FD2112922091
:10349000FFF75EFD39469320FFF75AFD391294205D
:1034A000FFF756FD29469520FFF752FD2912962079
:1034B000FFF74EFD31469720FFF74AFD3112982065
:1034C000FFF746FD4146A920FFF742FD4FEA2821BC
:1034D000AA20FFF73DFD4946AB20FFF739FD4FEA33
:1034E0002921AC20FFF734FD5046FFF70AFE0BF010
:1034F000800020B1A1219020FFF72AFD03E0812167
:103500009020FFF725FDFFF733FEBDE8F09F2DE982
:10351000F04704460D4616461F46DDE90889214658
:103520009120FFF715FD21129220FFF711FD29468A
:103530009320FFF70DFD29129420FFF709FDE019F4
:10354000411E9520FFF704FDE019401E0112962050
:10355000FFF7FEFCA819411E9720FFF7F9FCA819F8
:10356000401E01129820FFF7F3FC4046FFF7C9FD0B
:1035700009F0800020B1B0219020FFF7E9FC03E0C2
:1035800090210846FFF7E4FCFFF7F2FDBDE8F08765
:103590002DE9F04104460E4615461F46DDF8188019
:1035A000FF2D01DDBDE8F08121469920FFF7D0FC19
:1035B00021129A20FFF7CCFC31469B20FFF7C8FC74
:1035C00031129C20FFF7C4FC29469D20FFF7C0FC68
:1035D0003846FFF796FD08F0800088B16021902002
:1035E000FFF7B6FC10E000002000002024000020BF
:1035F00034000020300000202C0000202800002093
:1036000040219020FFF7A4FCFFF7B2FD00BFC9E7FF
:103610002DE9F04104460F4615461E46DDF8188098
:103620002146A520FFF794FC2112A620FFF790FC6D
:103630003946A720FFF78CFC3912A820FFF788FC39
:103640002946A120FFF784FC2912A220FFF780FC65
:103650003146A320FFF77CFC3112A420FFF778FC51
:10366000FFF786FDBDE8F08170B504460E461546AD
:103670001F2E00DD1F2631462920FFF769FC3F2D54
:1036800000DD3F25022C00DD0024284664F39F1056
:1036900001462E20FFF75CFC70BD70B504460D4658
:1036A00004F00302284662F39F0001462220FFF740
:1036B0004FFC70BD70B505460E461446314628468F
:1036C000FFF7BCFC80214020FFF742FC00212F20A7
:1036D000FFF73EFC00212120FFF73AFC0220FFF714
:1036E000DDFB0AE02078FFF7E8FB00BFFFF769FC8D
:1036F00000F080008028F9D0641C20780028F1D1E7
:1037000000214020FFF724FC70BD70B505460E4631
:10371000144631462846FFF791FC80214020FFF7F0
:1037200017FC03210620FFF713FC20212120FFF7BF
:103730000FFC28210520FFF70BFC81212F20FFF72C
:1037400007FC0220FFF7AAFB0AE02078FFF7B5FB91
:1037500000BFFFF736FC00F080008028F9D0641C21
:1037600020780028F1D100214020FFF7F1FB70BD47
:1037700010B5044624B900218A20FFF7E9FB0EE0CA
:10378000FF2C04D140218A20FFF7E2FB07E08A21C9
:103790000846FFF7DDFB21468B20FFF7D9FB10BD64
:1037A00010B5FFF71EFC752800D010BD0020FFF7F4
:1037B00087FAFFF763FB0120FFF782FAFFF75EFB52
:1037C0008820FFF76BFBFFF753FB0A20FFF775FB21
:1037D000FFF754FB8920FFF761FBFFF749FB02204D
:1037E000FFF76BFBFFF74AFB08211020FFF7B0FB48
:1037F00082210420FFF7ACFBFFF740FB3B211420A4
:10380000FFF7A6FB00211520FFF7A2FB01211620E0
:10381000FFF79EFB00211720FFF79AFB05211820D8
:10382000FFF796FB0F211920FFF792FB01211A20C9
:10383000FFF78EFB02211B20FFF78AFB00211C20D3
:10384000FFF786FB07211D20FFF782FB00211E20CA
:10385000FFF77EFB09211F20FFF77AFB0121C7201C
:10386000FFF776FB80210120FFF772FB012140204A
:10387000FFF76EFB00214120FFF76AFB0F4803684A
:103880000F48002102680846FFF758FD0020FFF7A7
:103890003AFDFFF78DFC00BF87E710B56420FFF706
:1038A000D2F90020FFF72FFD4FF4F0734FF4887228
:1038B00000210846FFF742FD10BD00003400002043
:1038C0003000002001468548016000207047024614
:1038D0001068322801DA3220106040F2CA331068D2
:1038E000984201DD1846106010683238C0EB0010B5
:1038F00040014FF4667390FBF3F010600868642891
:1039000001DA642008600868B0F56B7F02DD4FF4CF
:103910006B7008600868643800EB001000014FF419
:10392000527390FBF3F008600020704730B50346F7
:1039300041F82230002011E051F820409C4200DC88
:103940000BE007E000BF1C4651F8203041F8204052
:1039500000BF401C9042F5DD02E0401C9042EBDBD2
:1039600000BF30BDF0B597B006460F46002417E003
:1039700001A902A8FFF767FC0546002D02DC002024
:1039800017B0F0BD0120FFF7BEF922460DA902983D
:10399000FFF7CCFF224603A90198FFF7C7FF641C7D
:1039A0000A2CE5DBDDE91210401A1E2802DD4FF07B
:1039B000FF30E5E7DDE90810401A1E2802DD4FF070
:1039C000FF30DDE700200290019000240EE0601D32
:1039D0000DA951F82000029908440290601D03A926
:1039E00051F82000019908440190641C022CEEDB80
:1039F00002984010029001984010019002983060A7
:103A0000019838600120BBE735480068002804DDD4
:103A100033480068401E324908603248006820B1CF
:103A200031480068401C30490860704737B514467B
:103A300084B92C48006830B100222C4801682C4819
:103A4000006801F0EFFE0020254908602549086064
:103A5000401E3EBD01A96846FFF739FF20480068B7
:103A6000002801DD0020F4E7224800681C490860B6
:103A70001C48006868B90122DDE9000101F0D2FEAE
:103A80000020194908601C49009808601B490198EA
:103A9000086001201349086015490098086013491F
:103AA000019808600120D4E71CB5694601A8FFF71A
:103AB00059FF0446002C00DA1CBD2246DDE9001047
:103AC000FFF7B4FF0548006828B12246034BDDE943
:103AD00000101B68984700BFEEE700005800002068
:103AE000380000204C0000203C000020480000204E
:103AF000440000204000002050000020540000201E
:103B000001F099FDFFF72EF901F003FB03F046F8F1
:103B10000720174908602AE015480068092821D2C3
:103B2000DFE800F005080B0E1114171A1D0001F054
:103B30005DF81BE000F01EF818E000F0A2FC15E0B4
:103B400000F072FA12E000F0E5FD0FE002F08FFDE8
:103B50000CE003F01AF809E001F088FF06E001F03C
:103B600012FF03E000200249086000BF00BFD3E756
:103B7000200800202DE9F04393B04FF0FF373D4679
:103B8000280C01F08EFD00201F214FF487734FF4A5
:103B9000EF72CDE900100121084601F088FD1F20D9
:103BA0001E234FF4EF7219460090012001F066FDCC
:103BB0001F2040F20F13502201210090104601F007
:103BC0005DFD1F201E23A02201210090104601F060
:103BD00055FD1F201923BE2205210090104601F03B
:103BE0004DFD1F201423B92219210090BE2001F0A1
:103BF00045FD1F201423C32219210090BE2001F08F
:103C00003DFD1F201E23DC2201210090104601F003
:103C100035FD1F201923FA2205210090104601F0DE
:103C20002DFD1F200A23F52205210090FA2001F026
:103C300025FD1F200A23FF2205210090FA2001F014
:103C40001DFD1F201E234FF48C7201210090104691
:103C500001F014FD1F203C23502219460090012042
:103C600001F00CFD1F20412306223C210090012081
:103C700001F004FD1F207D230622822100900120F7
:103C800001F0FCFC1F2041234B223C2100905020DE
:103C900001F0F4FC1F207D234B2282210090502054
:103CA00001F0ECFC00201F213C234522CDE900104F
:103CB0004121062001F0FBFC1F20822350221946DF
:103CC0000090012001F0DAFC1F20872306228221C8
:103CD0000090012001F0D2FC1F20C3230622C8213E
:103CE0000090012001F0CAFC1F2087234B22822173
:103CF0000090502001F0C2FC1F20C3234B22C8219A
:103D00000090502001F0BAFC00201F213C234522E6
:103D1000CDE900108721062001F0C9FC1F20C8232F
:103D2000502219460090012001F0A8FC1F20CD234D
:103D30000622C8210090012001F0A0FC1F2040F2C3
:103D400009130622591D0090012001F097FC1F2045
:103D5000CD234B22C8210090502001F08FFC1F2062
:103D600040F209134B22591D0090502001F086FCAF
:103D700000201F213C234522CDE90010CD21062043
:103D800001F095FC1F204FF487738C221E210090B8
:103D9000104601F073FC00240FE01F200090A01CCF
:103DA000C0EB00104300A01CC0EB001041004FF41A
:103DB000EF72502001F062FC641C072CEDDB4FF623
:103DC000FF700023FEA205210090084601F081FC4F
:103DD0004FF6FF704FF47843FBA205210090672057
:103DE00001F077FC4FF6FF704FF61F03F8A2052194
:103DF00000904FF4D27001F06CFC0621F64801F0FF
:103E0000B0FC01F008FC50B14FF6FF704FF61F03F5
:103E1000F2A253210090102001F05BFC09E04FF664
:103E2000FF704FF47843EFA253210090102001F06F
:103E300050FCF2E001F0A2FBB84203D101F0A1FB7B
:103E4000A84258D001F09AFB074601F09AFB0546BC
:103E5000082D04DDA5F10800E449086002E0002017
:103E6000E249086000BF082D01DAA84601E04FF0E2
:103E7000080801F08BFB81464A46DDA101A802F04B
:103E800099FE4FF6FF70002301AA052100904FF420
:103E9000967001F01EFC00242AE0D44800682044FB
:103EA000421CD5A101A802F085FE4FF6FF700090DC
:103EB000601CC0EB00104000011D4FF4784301AAC4
:103EC000552001F006FCC9490968601801A901F0F4
:103ED00060FB4FF6FF700090601CC0EB00104000CC
:103EE000011D4FF4784301AA912001F0F2FB641CFC
:103EF0004445D2DB00BF11A912A801F0F7FC064629
:103F0000002E00DC89E01298643806281ED2DFE813
:103F100000F0031E1F234A6501F084FB01F07BFBC8
:103F200050B14FF6FF704FF61F03ACA25321009023
:103F3000102001F0CEFB09E04FF6FF704FF47843FC
:103F4000A8A253210090102001F0C3FB63E062E0BF
:103F50000020AB49086061E001F003FB00241FE092
:103F600080204FF6FF71CDE90010601CC0EB0010FF
:103F70004000011D19233222552001F098FB8020BA
:103F80004FF6FF71CDE90010601CC0EB001040003F
:103F9000011D19234FF4A572912001F088FB641CC8
:103FA000082CDDDB37E0A5F10800904909680831ED
:103FB000884205DB8D48006808308C4908600CE0B9
:103FC0008A4800680830A84204DAA5F10800874949
:103FD000086002E000208549086044E783480068E3
:103FE000082805DB8148006808388049086011E02E
:103FF0007E480068002803DD00207C49086009E055
:10400000082D04DDA5F108007849086002E00020D1
:104010007649086027E700BF00BF0BE76E4801F054
:10402000BBFB13B0BDE8F08370B5A0B04FF6FF70D6
:1040300001F037FB00201F214FF487734FF4EF721C
:10404000CDE900100121084601F031FB1F201E239D
:104050004FF4EF7219460090012001F00FFB1F2072
:104060004FF48773502201210090104601F006FBA7
:104070001F203C23E42219460090012001F0FEFAA3
:104080001F205A23E42219460090012001F0F6FA7D
:104090001F207823E42219460090012001F0EEFA57
:1040A0001F209623E42219460090012001F0E6FA31
:1040B0001F20B423E42219460090012001F0DEFA0B
:1040C0001F20D223E42219460090012001F0D6FAE5
:1040D0001F20F023E42219460090012001F0CEFABF
:1040E0001F204FF4877382221E210090104601F09A
:1040F000C5FA1F204FF48773B4221E21009010468A
:1041000001F0BCFA1F204FF48773E4221E210090B7
:10411000104601F0B3FA1F201E234FF4BA7201219A
:104120000090104601F0AAFA1F201E234FF4D3720C
:1041300001210090104601F0A1FA4FF6FF70002314
:104140001FA205210090084601F0C3FA4FF6FF7048
:104150004FF478432BA205210090672001F0B9FAB3
:104160004FF6FF7000232BA20521009040F277103C
:1041700001F0AFFA4FF6FF70002328A2052100904E
:1041800040F2A91001F0A5FA002493E0224625A1EF
:104190001CA802F00FFD4FF6FF700090C4EB041056
:1041A000400000F1230100231CAA142001F091FA21
:1041B0002146002001F01CF904A941F8240035E053
:1041C00043414E20426F7800436C65616E000000F1
:1041D0004D656E753E3E00006400002053746F70A4
:1041E000200000005374617274000000F40000208D
:1041F000252D313064000000252D346400000000BE
:104200002008002043414E20446174612046696CBF
:10421000746572005361766500000000457869742A
:1042200000000000444154412564000002204FF684
:10423000FF71CDE9001004A850F82420C4EB04104D
:10424000400000F1230100235A2001F070FA2146BA
:10425000012001F0CDF801460CA840F824100220FE
:104260004FF6FF71CDE900100CA850F82420C4EBE4
:104270000410400000F1230100238C2001F057FAC4
:104280002146022001F0B4F8014614A840F8241099
:1042900002204FF6FF71CDE9001014A850F8242039
:1042A000C4EB0410400000F123010023BE2001F004
:1042B0003EFA641C082CFFF669AF1A21FE4801F093
:1042C00050FAD8E01EA91FA801F010FB0646002EE8
:1042D00000DCD0E01F98752802D076280BD104E0CE
:1042E00001F0A0F800F01AFFC3E001F09BF80020F5
:1042F000F2490860C0E01F9864283BDB1F986B28D8
:1043000038DC1F98A0F1640504A810F8250003907C
:1043100002204FF6FF71CDE90010C5EB05104000FB
:1043200000F123014FF478435A20039A01F0FFF97A
:104330000020022303AA28210090F02000F02CFD89
:10434000064602204FF6FF71CDE90010C5EB0510BF
:10435000400000F1230100235A20039A01F0E7F9FD
:1043600004A9039841F8250029460020039A01F08A
:104370004BF800BF1F9878283BDB1F987F2838DC5C
:104380001F98A0F178050CA810F8250003900220D2
:104390004FF6FF71CDE90010C5EB0510400000F1AC
:1043A00023014FF478438C20039A01F0C0F90020D8
:1043B000022303AA28210090F02000F0EDFC06461D
:1043C00002204FF6FF71CDE90010C5EB051040004B
:1043D00000F1230100238C20039A01F0A8F90CA816
:1043E000039940F8251029460120039A01F00CF8A2
:1043F00000BF1F9882283BDB1F98892838DC1F9854
:10440000A0F1820514A810F82500039002204FF6B1
:10441000FF71CDE90010C5EB0510400000F123014C
:104420004FF47843BE20039A01F081F90020022363
:1044300003AA28210090F02000F0AEFC06460220DE
:104440004FF6FF71CDE90010C5EB0510400000F1FB
:1044500023010023BE20039A01F069F914A80399EF
:1044600040F8251029460220039A00F0CDFF00BF36
:1044700000BF00BF00BF25E78F4801F08DF920B0D5
:1044800070BD70B590B04FF6FF7001F00AF90020D2
:104490001F214FF487734FF4EF72CDE90010012113
:1044A000084601F004F91F201E234FF4EF7219464D
:1044B0000090012001F0E2F81F204FF48773502292
:1044C00001210090104601F0D9F81F203C23E4227E
:1044D00019460090012001F0D1F81F205A23E42250
:1044E00019460090012001F0C9F81F207823E4222A
:1044F00019460090012001F0C1F81F209623E42204
:1045000019460090012001F0B9F81F20B423E422DD
:1045100019460090012001F0B1F81F20D223E422B7
:1045200019460090012001F0A9F81F20F023E42291
:1045300019460090012001F0A1F81F204FF4877365
:10454000E4221E210090104601F098F81F201E233F
:104550004FF4BA7201210090104601F08FF81F202D
:104560001E234FF4D37201210090104601F086F80B
:104570004FF6FF700023AFF2B832052100900846D5
:1045800001F0A7F84FF6FF704FF478434CA20521D5
:104590000090672001F09DF84FF6FF700023AFF206
:1045A0008C320521009040F2771001F092F84FF61E
:1045B000FF700023AFF29C320521009040F2A91059
:1045C00001F087F8002429E0224641A10CA802F05E
:1045D000F1FA4FF6FF700090C4EB0410400000F1B8
:1045E000230100230CAA142001F073F8204600F0E8
:1045F00082FE04A941F8240003204FF6FF71CDE9A3
:10460000001004A850F82420C4EB0410400000F16E
:10461000230100235A2001F08AF8641C082CD3DB04
:104620000A212D4801F09DF86EE00EA90FA801F0B7
:104630005DF90646002E00DC66E00F98752802D072
:1046400076280BD104E000F06BFE00F067FD59E026
:1046500000F066FE00201949086056E00F986428B3
:104660004FDB0F986B284CDC0F98A0F1640504A871
:1046700030F82500C0F30B00039003204FF6FF71C4
:10468000CDE90010C5EB0510400000F123014FF407
:1046900078435A20039A01F04AF80020032303AA22
:1046A00028210090F02000F077FB064603204FF60B
:1046B000FF71CDE9001011E0F80000202008002073
:1046C00043414E2049442046696C746572000000E5
:1046D000494425640000000068030020C5EB051074
:1046E000400000F1230100235A20039A01F01FF833
:1046F00004A9039841F825002846039900F005FE17
:1047000000BF00BF00BF00BF8FE7FE4801F044F8C4
:1047100010B070BDF0B585B04FF6FF7000F0C1FF6E
:1047200000201F214FF487734FF4EF72CDE9001082
:104730000121084600F0BBFF1F201E234FF4EF723B
:1047400019460090012000F099FF1F201E235022DF
:1047500001210090104600F091FF1F204FF4877355
:1047600032221E210090104600F088FF1F204FF4D7
:1047700087736E221E210090104600F07FFF1F20DD
:104780004FF48773A0221E210090104600F076FFA0
:104790001F204FF48773DC2201210090104600F0A7
:1047A0006DFF1F201E234FF48C72012100901046D4
:1047B00000F064FF1F201E234FF48C720121009033
:1047C000104600F05BFF1F201E234FF4D37201211F
:1047D0000090104600F052FF00240EE01F200090D1
:1047E000A01CC0EB00104300A01CC0EB0010410057
:1047F000DC22012000F042FF641C062CEEDB4FF6A9
:10480000FF700023AFF2486205210090084600F0D7
:1048100060FF4FF6FF704FF47843BBA20521009074
:104820006E2000F056FF4FF6FF700023AFF21462C7
:104830000521009040F2A91000F04BFF4FF6FF70E9
:104840000023B4A205210090E62000F042FF4FF6BD
:10485000FF700023B1A223210090052000F039FF52
:104860004FF6FF700023AFA223210090732000F0C9
:1048700030FF4FF6FF700023ACA2412100900F20C3
:1048800000F027FF4FF6FF700023A9A241210090FE
:10489000732000F01EFF4FF6FF700023A6A25F21D9
:1048A0000090052000F015FF4FF6FF700023A4A232
:1048B0005F210090732000F00CFF4FF6FF70002383
:1048C000A1A27D210090052000F003FF4FF6FF70AC
:1048D00000239FA27D210090732000F0FAFE4FF686
:1048E000FF7000239CA29B210090052000F0F1FEA8
:1048F0004FF6FF7000239AA29B210090732000F0D6
:10490000E8FE4FF6FF70002397A2B9210090052022
:1049100000F0DFFE4FF6FF70002395A2B921009052
:10492000732000F0D6FE4FF6FF70002392A2F5210F
:104930000090052000F0CDFE4FF6FF70002390A2FE
:10494000F5210090AA2000F0C4FE05204FF6FF716B
:10495000CDE900108C48002323214269412000F05A
:10496000E6FE05204FF6FF71CDE9001086480023D2
:1049700023210269AA2000F0DAFE05204FF6FF711C
:10498000CDE900108048002341210268084600F06C
:10499000CEFE05204FF6FF71CDE900107A480023C6
:1049A00041214268AA2000F0C2FE002426E0022035
:1049B0004FF6FF71CDE900107348083010F814204D
:1049C000C4EB04105F2303EB40010023412000F0FF
:1049D000AEFE02204FF6FF71CDE90010012000EB82
:1049E000440369480830C25CC4EB04105F2303EB46
:1049F00040010023AA2000F09AFE641C042CD6DBA0
:104A00000F21624800F0ADFEEAE003A904A800F01F
:104A10006DFF0646002E00DCE2E00498742804D006
:104A200075280FD0762812D10DE0574A51681068CA
:104A30000832FEF728F8544A51681068083200F02E
:104A400078FDCBE0CAE0002051490860C9E0049835
:104A5000642855DB04986F2852DC0498642803D13D
:104A60004948406902901AE00498652803D14648F5
:104A70000069029013E00498662803D14248006858
:104A800002900CE00498672803D13F4840680290E8
:104A900005E0049868383C490831085C02900498A5
:104AA00000F0010008B1AA2000E041200746049868
:104AB00064384010C0EB0010232101EB40050320B7
:104AC0004FF6FF714FF47843CDE900102946384680
:104AD000029A00F02CFE0020042302AA2821009054
:104AE000F02000F059F9064603204FF6FF7100232D
:104AF000CDE9001029463846029A00F018FE49E038
:104B00006BE00000680300204672616D652053650C
:104B10006E640000546F74616C000000436F756E2A
:104B20007400000044656C61790000004944000095
:104B300042797465730000004461746130000000C4
:104B4000446174613100000044617461320000000E
:104B500044617461330000004461746134000000FA
:104B600044617461350000004461746136000000E6
:104B7000446174613700000053656E6400000000FA
:104B80005265736574000000C005002058040020C1
:104B9000200800200498642803D1664902984861DF
:104BA0001BE00498652803D162490298086114E06B
:104BB0000498662803D15F49029808600DE00498C4
:104BC000672803D15B490298486006E00298C2B2A8
:104BD00004986838574908310A5400BF00BF00BF25
:104BE00013E7554800F0D8FD05B0F0BD7FB54FF68E
:104BF000FF7000F056FD00201F214FF487734FF423
:104C0000EF72CDE900100121084600F050FD4CF292
:104C1000186029234FF4EF7219460090012000F02C
:104C20002DFD4CF218602A234FF4EF7219460090C4
:104C3000012000F023FD01240DE01F20009004EB73
:104C40008400C30004EB8400C1004FF4EF72012024
:104C500000F014FD641C072CEFDB4FF6FF700023FF
:104C60000090364805210268FA2000F032FD4FF628
:104C7000FF70002332A214210090FA2000F029FDD9
:104C800001210846FEF709FD4FF6FF704FF4784307
:104C9000AFF6D42205210090084600F01AFD4FF629
:104CA000FF7000232CA22D2100900A2000F011FD9E
:104CB0004FF6FF7000232AA2552100900A2000F031
:104CC00008FD4FF6FF70002328A27D2100900A20E6
:104CD00000F0FFFC4FF6FF70002327A2A5210090F3
:104CE0000A2000F0F6FC4FF6FF70002325A2CD212C
:104CF00000900A2000F0EDFC00210846FEF7CDFCF4
:104D00000521234800F02DFD0BE002A903A800F0C7
:104D1000EDFD0546002D00DC03E01E490398086008
:104D200000BF1C4800680028EFD0194800F034FD8F
:104D30007FBD0000C0050020580400205C0000205A
:104D400041756720313820323031362032303A31E7
:104D5000323A3036000000004D6F6E69746F720099
:104D600046696C74657220494400000046696C74A1
:104D7000657220444154410053656E64204672615F
:104D80006D65000054657374204D656E75000000FC
:104D9000DC050020200800202DE9FF4F87B00746E2
:104DA000884693464FF0FF39DBF800A000201F2112
:104DB000E6231A46CDE900104146384600F077FC5C
:104DC00000201F212423CD22CDE9001008F1050188
:104DD00007F10A0000F06BFC01210846FEF75DFCBC
:104DE000002408F105060020069040E02E367D1DC7
:104DF0000020059035E000201F2124231A46CDE92C
:104E000000103146284600F052FC01204FF6FF7199
:104E1000CDE9001004EB4400B04901EBC0000023D1
:104E2000B11C426905F10A0000F081FC04EB44006A
:104E3000AA4941F8305004EB440001EBC000466041
:104E4000242004EB4401A54A02EBC101886004EB75
:104E5000440102EBC101C860641C2E350598401C5A
:104E6000059005980528C6DB0698401C0690069814
:104E70000328BBDB7D1D08F1BD0600201F21242374
:104E80001A46CDE900103146284600F010FC0120FA
:104E90004FF6FF71CDE9001004EB44008F4901EBA0
:104EA000C0000023B11C426905F10A0000F03FFC7C
:104EB00004EB4400894941F8305004EB440001EB15
:104EC000C0004660242004EB4401844A02EBC10187
:104ED000886004EB440102EBC101C860641C2E35FC
:104EE00000201F2124233222CDE90010314628461C
:104EF00000F0DDFB1B208DF8040000208DF805007C
:104F000001210320FEF7C9FB4FF6FF70002301AA21
:104F1000F11C0090E81D00F0DCFB01210846FEF7C3
:104F2000BCFB04EB44006D4941F8305004EB4400F5
:104F300001EBC0004660322004EB4401674A02EBFB
:104F4000C1018860242004EB440102EBC101C86068
:104F5000641C3C3500201F2124233222CDE900109F
:104F60003146284600F0A3FB4FF6FF7000235CA2F9
:104F7000711C0090681C00F0ACFB04EB4400574926
:104F800041F8305004EB440001EBC0004660322091
:104F900004EB4401514A02EBC1018860242004EB78
:104FA000440102EBC101C860641C3C3500201F2194
:104FB00024233622CDE900103146284600F077FB45
:104FC0004FF6FF70002347A2711C0090A81C00F050
:104FD00080FB04EB4400414941F8305004EB4400AD
:104FE00001EBC0004660362004EB44013B4A02EB73
:104FF000C1018860242004EB440102EBC101C860B8
:10500000641C1321104600F0ACFB0A204FF6FF7120
:1050100000235246CDE9001008F1060107F1140003
:1050200000F085FB43E002A903A800F05FFC0490B8
:105030000498002800DC3AE00398752804D076280C
:105040000AD0772810D10AE0B9F1000F03DD4FEA4A
:105050002A1AA9F101091BE00020049028E0CBF8EE
:1050600000A00120049023E0B9F1000F02DA4FF014
:10507000000AD1460A98814509DA039840EA0A1ADB
:1050800009F10109BAF1000F01D14FF0000900BF89
:1050900000BF0A204FF6FF7100235246CDE90010F1
:1050A00008F1060107F1140000F041FB00BFBAE768
:1050B0000A4800F071FB80204FF6FF71E6231A4684
:1050C000CDE900104146384600F0F1FA00210846CB
:1050D000FEF7E3FA04980BB0BDE8F08F5406002009
:1050E00045534300454E540010B5044608220021A4
:1050F0002046FDF71AFDF9492068884202D04FF09A
:10510000FF3010BD902200212046FDF70EFD00204B
:10511000F7E710B5F248FFF7E7FF10BD00B5A5B0FF
:1051200001A8FFF7E1FF9022ED4901A801F0A8FED8
:1051300008B925B000BDE948E94908600120486088
:1051400090220021E648FDF7FAFC00BFF1E732208B
:10515000E4494860002088600860C860E24808614F
:105160004FF47A70E1494860002088600860C860A8
:10517000DF48086170470146D1E901231A44CB6832
:10518000D01A4A68824201DC4A68801A704710B51A
:1051900004462046FFF7EFFF002801DC012010BD88
:1051A0000020FCE710B504462046FFF7E4FF6168E5
:1051B000491E884201DB012010BD0020FCE770B5CC
:1051C00004460E462046FFF7E2FF08B1002070BDFE
:1051D0001EB1A068E0600120F9E7E5686D1C606819
:1051E000A84201DC60682D1AE5600120EFE770B588
:1051F00004460E462046FFF7CAFF08B1002070BDE6
:10520000E06885196068A84201DC60682D1A206991
:1052100000EB0510F3E72DE9F04704460E4617466C
:105220009846DDF820902046FFF7BCFF48B1B9F161
:10523000000F02D10020BDE8F08700212046FFF7D3
:10524000BEFFA568206900EB05100660216901EB2F
:1052500005110F73FDF783FD216901EB0511C8816D
:10526000216901EB0511081D3A46414601F077FE20
:105270006D1C6068A84201DC60682D1AA56020687A
:10528000401C20600120D6E72DE9F04104460E467F
:1052900017462046FFF786FF38B117B90020BDE852
:1052A000F08100212046FFF78AFFA568206900EB06
:1052B000051096E80E10A0E80E106D1C6068A8425C
:1052C00001DC60682D1AA5602068401C2060012068
:1052D000E5E7F8B504460D4616468648006808B16D
:1052E0000020F8BD012033462A46214600907D4823
:1052F000FFF791FFF5E70146082901DB0020704721
:105300007748083050F82100F9E70246082A01DB07
:10531000002070470846724B083343F82210F8E724
:1053200010B5002131E04A1C2CE06D48083050F8DF
:10533000220028B36A48083050F8213050F8220083
:10534000834204DD6648083050F82100C0B9644B40
:10535000083353F8214053F822309C4205D10024F1
:105360005F4B083343F822400BE05D4B083353F8A2
:10537000210053F8224043F8214043F8220000BFA7
:1053800000BF521C082AD0DB491C0729CBDB0020B8
:10539000534B9862002109E05148083050F8210031
:1053A00018B101204E4B986202E0491C0829F3DB3A
:1053B00000BF4B48806A10BD02464948806A08B960
:1053C0000120704700210FE04548083050F82100C7
:1053D00000B908E04248083050F82100904201D15D
:1053E0000120EEE700BF491C0829EDDB0020E8E7BB
:1053F0000246082901DB0020704739482C3000EBB9
:10540000421050F82100F7E710B50346082901DBE8
:10541000002010BD1046324C2C3404EB431444F8E9
:105420002120F6E700202E4BC3F88C00002115E068
:10543000002210E02A482C3000EB411050F82200E6
:1054400040B12748D0F88C0001238B401843244BEF
:10545000C3F88C00521C082AECDB491C0329E7DB4B
:105460001F48D0F88C00704710B503461C48D0F890
:105470008C0008B9012010BD002123E01848D0F8A5
:105480008C0001248C40204000B91AE0002213E077
:1054900013482C3000EB411050F8220000B90AE00C
:1054A0000F482C3000EB411050F822009C5CA042C9
:1054B00000D005E000BF521C082AE9DB0120DAE732
:1054C00000BF491C0329D9DB0020D4E710B5002117
:1054D0000448FFF78CFE044674B910BD445054468E
:1054E000345000208C1100206C0E00202050002031
:1054F000A01100201C080020207B002800DC0CE00C
:105500002068FFF759FF002800DC0CE0201DFFF7A2
:10551000ABFF002800DC06E000BF012221464B481B
:10552000FFF7B2FE00BF00214948FFF748FE00BF69
:10553000D3E77FB505460C4616460095E0B28DF8D8
:105540000C002246314601A801F009FDFDF707FCD9
:1055500080B2ADF80E00012269463C48FFF794FE88
:105560007FBD3B4880683A49C860002008603748E2
:1055700080683649C8600020086070473348C068BA
:10558000704710B53148FFF7F6FD10BD2F48006891
:1055900070472DE9F04107460E4639462B48FFF784
:1055A00026FE04461CB94FF0FF30BDE8F08129A16A
:1055B0003046226801F0FEFA002510E0207BA84268
:1055C00007DD201D435D324624A1304601F0F2FA8A
:1055D00004E0324623A1304601F0ECFA6D1C082DA0
:1055E000ECDBE389324621A1304601F0E3FA0120E9
:1055F000DBE770B505460C4614B94FF0FF3070BDBF
:1056000029461248FFF7F3FD206014B94FF0FF3030
:10561000F5E70020F3E71748006808B90120704754
:105620000020FCE71348006808B9012000E00020D2
:1056300010490860704710B5FFF789FD00200D493B
:10564000086090210C4801F0CFFC10BD20500020D4
:105650008C110020253033583A0000002573253086
:105660003258200025735858200000002573252D3E
:10567000366400001C080020345000202DE9FC4155
:1056800004460D4616461F46DDF8208000203B46A6
:1056900032462946CDE900802046FDF7B6FEBDE83A
:1056A000FC8110B504462046FDF72DFE10BD2DE906
:1056B000FC4706460F4614461D46DDE90A89234687
:1056C0002A4639463046CDE90089FDF720FFBDE87E
:1056D000FC872DE9F04105460E4617461C46DDF8CD
:1056E00018802046FDF70DFD4046FDF71CFD3A46AB
:1056F00031462846FDF7DEFFBDE8F0812DE9F04197
:1057000086B004460D4616461F46DDF83080324608
:1057100087A102A801F04EFA3B4602AA294620467C
:10572000CDF80080FFF7D5FF06B0BDE8F0812DE988
:10573000F04385B005460E4614461F46DDE90C9839
:10574000234642467CA101A801F034FA3B4601AA57
:1057500031462846CDF80090FFF7BBFF05B0BDE805
:10576000F08302467648774B1B6800EBC30042602B
:105770007348744B1B6840F8331072480068401C33
:105780000A2802DB4FF0FF3070476E480068401C6B
:105790006C4B18600020F7E701466A480068421E1B
:1057A000674800EBC2004068884202D04FF0FF30EB
:1057B000704764480068401E624B18600020F7E79D
:1057C00060480068002801DC002070475D480068E0
:1057D000401E5B4901EBC000F7E75B4909680A31ED
:1057E0005A4A1268881A0A2800DB0A38704730B50E
:1057F00004460D4654480368FFF7EFFF092802DB13
:105800004FF0FF3030BD524840F8334000EBC3004A
:105810004560581C03460A2800DB0A3B4A480360DF
:105820000020EFE72DE9F04106460F469046FFF7CE
:10583000C7FF05461DB94FF0FF30BDE8F0810024D9
:105840004EE0B8F1000F08D004EB4401686800EBAB
:10585000C100008A00F4804008E004EB440168685D
:1058600000EBC1000069012121EA903000B136E06F
:1058700004EB4401686850F83100B0422EDC04EBC0
:105880004401686850F8310004EB4402696801EB98
:10589000C20189680844B04220DD04EB4401686815
:1058A00000EBC1004068B84218DC04EB44016868B2
:1058B00000EBC100406804EB4402696801EBC201DF
:1058C000C9680844B84209DD04EB4402696801EB89
:1058D000C20148694146FFF78AFF04E000BF641C2B
:1058E0002868A042ADDC00BF0020A6E770B50546E1
:1058F0000E4616480468FEF7D7F8FFF76EFF00283B
:1059000002DC4FF0FF3070BD1DB1114850F834007B
:10591000286026B10E4800EBC40040683060601C6F
:1059200004460A2800DB0A3C084804600120EAE734
:10593000252D313064000000252D2A58000000007C
:10594000C450002024080020280800202C08002033
:105950001451002038B5044654B14FF6FF704FF68D
:105960001F0337A2532100901020FFF7B2FE09E079
:105970004FF6FF704FF4784333A25321009010206C
:10598000FFF7A7FE38BD1CB54FF6FF70FFF789FE85
:1059900000201F214FF487734FF4EF72CDE9001000
:1059A00001210846FFF783FE1F201E234FF4EF72EC
:1059B000194600900120FFF761FE1F201E234FF4BF
:1059C000D272012100901046FFF758FE4FF6FF708B
:1059D00000231FA2052100900846FFF77AFE4FF62C
:1059E000FF704FF61F031DA2052100904FF4D770E2
:1059F000FFF76FFE03211B48FFF7B3FE1AE069466D
:105A000001A8FFF773FF0446002C00DC12E00198A8
:105A1000642804D0652806D0662809D104E0012056
:105A2000FFF798FF04E003E007200F49086002E059
:105A300000BF00BFE3E70B48FFF7AEFE1CBD000050
:105A40004175746F4F4646004175746F4F4E20008C
:105A5000585A5120546573740000000045786974E9
:105A60000000000030080020200800202DE9FC5F25
:105A70004FF6FF70FFF715FE00201F214FF48773CC
:105A80004FF4EF72CDE9001001210846FFF70FFE39
:105A90001F201E234FF4EF72194600900120FFF7DC
:105AA000EDFD1F201E234FF4D272012100901046FD
:105AB000FFF7E4FD4FF6FF70002349A20521009097
:105AC0000846FFF706FE4FF6FF704FF61F0347A28A
:105AD000052100904FF4D770FFF7FBFD002462E032
